{
  "contractName": "ShibaFactory",
  "abi": [
    {
      "inputs": [
        {
          "internalType": "address",
          "name": "_feeTo",
          "type": "address"
        },
        {
          "internalType": "address",
          "name": "owner",
          "type": "address"
        },
        {
          "internalType": "uint16",
          "name": "_feePercent",
          "type": "uint16"
        }
      ],
      "payable": false,
      "stateMutability": "nonpayable",
      "type": "constructor"
    },
    {
      "anonymous": false,
      "inputs": [
        {
          "indexed": true,
          "internalType": "address",
          "name": "token0",
          "type": "address"
        },
        {
          "indexed": true,
          "internalType": "address",
          "name": "token1",
          "type": "address"
        },
        {
          "indexed": false,
          "internalType": "address",
          "name": "pair",
          "type": "address"
        },
        {
          "indexed": false,
          "internalType": "uint256",
          "name": "",
          "type": "uint256"
        }
      ],
      "name": "PairCreated",
      "type": "event"
    },
    {
      "constant": true,
      "inputs": [],
      "name": "INIT_CODE_PAIR_HASH",
      "outputs": [
        {
          "internalType": "bytes32",
          "name": "",
          "type": "bytes32"
        }
      ],
      "payable": false,
      "stateMutability": "view",
      "type": "function"
    },
    {
      "constant": true,
      "inputs": [
        {
          "internalType": "uint256",
          "name": "",
          "type": "uint256"
        }
      ],
      "name": "allPairs",
      "outputs": [
        {
          "internalType": "address",
          "name": "",
          "type": "address"
        }
      ],
      "payable": false,
      "stateMutability": "view",
      "type": "function"
    },
    {
      "constant": true,
      "inputs": [],
      "name": "feeTo",
      "outputs": [
        {
          "internalType": "address",
          "name": "",
          "type": "address"
        }
      ],
      "payable": false,
      "stateMutability": "view",
      "type": "function"
    },
    {
      "constant": true,
      "inputs": [],
      "name": "feeToSetter",
      "outputs": [
        {
          "internalType": "address",
          "name": "",
          "type": "address"
        }
      ],
      "payable": false,
      "stateMutability": "view",
      "type": "function"
    },
    {
      "constant": true,
      "inputs": [
        {
          "internalType": "address",
          "name": "",
          "type": "address"
        },
        {
          "internalType": "address",
          "name": "",
          "type": "address"
        }
      ],
      "name": "getPair",
      "outputs": [
        {
          "internalType": "address",
          "name": "",
          "type": "address"
        }
      ],
      "payable": false,
      "stateMutability": "view",
      "type": "function"
    },
    {
      "constant": true,
      "inputs": [],
      "name": "owner",
      "outputs": [
        {
          "internalType": "address",
          "name": "",
          "type": "address"
        }
      ],
      "payable": false,
      "stateMutability": "view",
      "type": "function"
    },
    {
      "constant": true,
      "inputs": [],
      "name": "allPairsLength",
      "outputs": [
        {
          "internalType": "uint256",
          "name": "",
          "type": "uint256"
        }
      ],
      "payable": false,
      "stateMutability": "view",
      "type": "function"
    },
    {
      "constant": false,
      "inputs": [
        {
          "internalType": "address",
          "name": "tokenA",
          "type": "address"
        },
        {
          "internalType": "address",
          "name": "tokenB",
          "type": "address"
        }
      ],
      "name": "createPair",
      "outputs": [
        {
          "internalType": "address",
          "name": "pair",
          "type": "address"
        }
      ],
      "payable": false,
      "stateMutability": "nonpayable",
      "type": "function"
    },
    {
      "constant": false,
      "inputs": [
        {
          "internalType": "address",
          "name": "_feeTo",
          "type": "address"
        }
      ],
      "name": "setFeeTo",
      "outputs": [],
      "payable": false,
      "stateMutability": "nonpayable",
      "type": "function"
    },
    {
      "constant": false,
      "inputs": [
        {
          "internalType": "address",
          "name": "_feeToSetter",
          "type": "address"
        }
      ],
      "name": "setFeeToSetter",
      "outputs": [],
      "payable": false,
      "stateMutability": "nonpayable",
      "type": "function"
    },
    {
      "constant": true,
      "inputs": [],
      "name": "feeAmount",
      "outputs": [
        {
          "internalType": "uint16",
          "name": "",
          "type": "uint16"
        }
      ],
      "payable": false,
      "stateMutability": "view",
      "type": "function"
    },
    {
      "constant": false,
      "inputs": [
        {
          "internalType": "uint16",
          "name": "_newFeeAmount",
          "type": "uint16"
        }
      ],
      "name": "setFeeAmount",
      "outputs": [],
      "payable": false,
      "stateMutability": "nonpayable",
      "type": "function"
    }
  ],
  "bytecode": "0x608060405234801561001057600080fd5b50604051612e2e380380612e2e8339818101604052606081101561003357600080fd5b5080516020820151604090920151600180546001600160a01b03199081166001600160a01b0395861690811790925560008054821695909416949094178355600480549094161761ffff60a01b1916600160a01b61ffff9092169190910217909155612d899081906100a590396000f3fe608060405234801561001057600080fd5b50600436106100b45760003560e01c806369e154041161007157806369e15404146101475780638da5cb5b14610166578063a2e74af61461016e578063c9c6539614610194578063e6a43905146101c2578063f46901ed146101f0576100b4565b8063017e7e58146100b9578063094b7415146100dd5780631e3dd18b146100e55780632758e7b114610102578063574f2ba3146101255780635855a25a1461013f575b600080fd5b6100c1610216565b604080516001600160a01b039092168252519081900360200190f35b6100c1610225565b6100c1600480360360208110156100fb57600080fd5b5035610234565b6101236004803603602081101561011857600080fd5b503561ffff1661025b565b005b61012d610335565b60408051918252519081900360200190f35b61012d61033b565b61014f6103ce565b6040805161ffff9092168252519081900360200190f35b6100c16103df565b6101236004803603602081101561018457600080fd5b50356001600160a01b03166103ee565b6100c1600480360360408110156101aa57600080fd5b506001600160a01b0381358116916020013516610466565b6100c1600480360360408110156101d857600080fd5b506001600160a01b0381358116916020013516610797565b6101236004803603602081101561020657600080fd5b50356001600160a01b03166107bd565b6000546001600160a01b031681565b6001546001600160a01b031681565b6003818154811061024157fe5b6000918252602090912001546001600160a01b0316905081565b6102636103df565b6001600160a01b0316336001600160a01b0316146102c8576040805162461bcd60e51b815260206004820152601760248201527f63616c6c6572206973206e6f7420746865206f776e6572000000000000000000604482015290519081900360640190fd5b60148161ffff161115610313576040805162461bcd60e51b815260206004820152600e60248201526d616d6f756e7420746f6f2062696760901b604482015290519081900360640190fd5b6004805461ffff909216600160a01b0261ffff60a01b19909216919091179055565b60035490565b60405161034a60208201610835565b6020820181038252601f19601f820116604052506040516020018082805190602001908083835b602083106103905780518252601f199092019160209182019101610371565b6001836020036101000a0380198251168184511680821785525050505050509050019150506040516020818303038152906040528051906020012081565b600454600160a01b900461ffff1690565b6004546001600160a01b031690565b6001546001600160a01b03163314610444576040805162461bcd60e51b815260206004820152601460248201527329b434b130a9bbb0b81d102327a92124a22222a760611b604482015290519081900360640190fd5b600180546001600160a01b0319166001600160a01b0392909216919091179055565b6000816001600160a01b0316836001600160a01b031614156104cf576040805162461bcd60e51b815260206004820152601e60248201527f5368696261537761703a204944454e544943414c5f4144445245535345530000604482015290519081900360640190fd5b600080836001600160a01b0316856001600160a01b0316106104f25783856104f5565b84845b90925090506001600160a01b038216610555576040805162461bcd60e51b815260206004820152601760248201527f5368696261537761703a205a45524f5f41444452455353000000000000000000604482015290519081900360640190fd5b6001600160a01b038281166000908152600260209081526040808320858516845290915290205416156105c8576040805162461bcd60e51b81526020600482015260166024820152755368696261537761703a20504149525f45584953545360501b604482015290519081900360640190fd5b6060604051806020016105da90610835565b6020820181038252601f19601f8201166040525090506000838360405160200180836001600160a01b03166001600160a01b031660601b8152601401826001600160a01b03166001600160a01b031660601b815260140192505050604051602081830303815290604052805190602001209050808251602084016000f56040805163485cc95560e01b81526001600160a01b038781166004830152868116602483015291519297509087169163485cc9559160448082019260009290919082900301818387803b1580156106ad57600080fd5b505af11580156106c1573d6000803e3d6000fd5b505050506001600160a01b0384811660008181526002602081815260408084208987168086529083528185208054978d166001600160a01b031998891681179091559383528185208686528352818520805488168517905560038054600181018255958190527fc2575a0e9e593c00f959f8c92f12db2869c3395a3b0502d05e2516446f71f85b90950180549097168417909655925483519283529082015281517f0d3648bd0f6ba80134a33ba9275ac585d9d315f0ad8355cddefde31afa28d0e9929181900390910190a35050505092915050565b60026020908152600092835260408084209091529082529020546001600160a01b031681565b6001546001600160a01b03163314610813576040805162461bcd60e51b815260206004820152601460248201527329b434b130a9bbb0b81d102327a92124a22222a760611b604482015290519081900360640190fd5b600080546001600160a01b0319166001600160a01b0392909216919091179055565b612512806108438339019056fe60806040526001600c5534801561001557600080fd5b5060405146908060526124c08239604080519182900360520182208282018252600d83526c53686962614e6f7661204c507360981b6020938401528151808301835260018152603160f81b908401528151808401919091527fd25f695115dc46a37c0b9c5f347e95df771f897c90e728aaeee3b81071d32683818301527fc89efdaa54c0f20c7adf612882df0950f5a951637e0307cdcb4c672f298b8bc6606082015260808101949094523060a0808601919091528151808603909101815260c09094019052825192019190912060035550600580546001600160a01b031916331790556123b8806101086000396000f3fe608060405234801561001057600080fd5b50600436106101a95760003560e01c80636a627842116100f9578063ba9a7a5611610097578063d21220a711610071578063d21220a714610534578063d505accf1461053c578063dd62ed3e1461058d578063fff6cae9146105bb576101a9565b8063ba9a7a56146104fe578063bc25cf7714610506578063c45a01551461052c576101a9565b80637ecebe00116100d35780637ecebe001461046557806389afcb441461048b57806395d89b41146104ca578063a9059cbb146104d2576101a9565b80636a6278421461041157806370a08231146104375780637464fc3d1461045d576101a9565b806323b872dd116101665780633644e515116101405780633644e515146103cb578063485cc955146103d35780635909c0d5146104015780635a3d549314610409576101a9565b806323b872dd1461036f57806330adf81f146103a5578063313ce567146103ad576101a9565b8063022c0d9f146101ae57806306fdde031461023c5780630902f1ac146102b9578063095ea7b3146102f15780630dfe16811461033157806318160ddd14610355575b600080fd5b61023a600480360360808110156101c457600080fd5b8135916020810135916001600160a01b0360408301351691908101906080810160608201356401000000008111156101fb57600080fd5b82018360208201111561020d57600080fd5b8035906020019184600183028401116401000000008311171561022f57600080fd5b5090925090506105c3565b005b610244610aff565b6040805160208082528351818301528351919283929083019185019080838360005b8381101561027e578181015183820152602001610266565b50505050905090810190601f1680156102ab5780820380516001836020036101000a031916815260200191505b509250505060405180910390f35b6102c1610b28565b604080516001600160701b03948516815292909316602083015263ffffffff168183015290519081900360600190f35b61031d6004803603604081101561030757600080fd5b506001600160a01b038135169060200135610b52565b604080519115158252519081900360200190f35b610339610b69565b604080516001600160a01b039092168252519081900360200190f35b61035d610b78565b60408051918252519081900360200190f35b61031d6004803603606081101561038557600080fd5b506001600160a01b03813581169160208101359091169060400135610b7e565b61035d610c18565b6103b5610c3c565b6040805160ff9092168252519081900360200190f35b61035d610c41565b61023a600480360360408110156103e957600080fd5b506001600160a01b0381358116916020013516610c47565b61035d610ccb565b61035d610cd1565b61035d6004803603602081101561042757600080fd5b50356001600160a01b0316610cd7565b61035d6004803603602081101561044d57600080fd5b50356001600160a01b0316610fd7565b61035d610fe9565b61035d6004803603602081101561047b57600080fd5b50356001600160a01b0316610fef565b6104b1600480360360208110156104a157600080fd5b50356001600160a01b0316611001565b6040805192835260208301919091528051918290030190f35b6102446113a7565b61031d600480360360408110156104e857600080fd5b506001600160a01b0381351690602001356113cb565b61035d6113d8565b61023a6004803603602081101561051c57600080fd5b50356001600160a01b03166113de565b610339611549565b610339611558565b61023a600480360360e081101561055257600080fd5b506001600160a01b03813581169160208101359091169060408101359060608101359060ff6080820135169060a08101359060c00135611567565b61035d600480360360408110156105a357600080fd5b506001600160a01b038135811691602001351661176d565b61023a61178a565b600c5460011461060e576040805162461bcd60e51b815260206004820152601160248201527014da1a589854ddd85c0e881313d0d2d151607a1b604482015290519081900360640190fd5b6000600c55841515806106215750600084115b61065c5760405162461bcd60e51b815260040180806020018281038252602581526020018061230f6025913960400191505060405180910390fd5b600080610667610b28565b5091509150816001600160701b03168710801561068c5750806001600160701b031686105b6106c75760405162461bcd60e51b81526004018080602001828103825260218152602001806122cd6021913960400191505060405180910390fd5b60065460075460009182916001600160a01b039182169190811690891682148015906107055750806001600160a01b0316896001600160a01b031614155b61074e576040805162461bcd60e51b81526020600482015260156024820152745368696261537761703a20494e56414c49445f544f60581b604482015290519081900360640190fd5b8a1561075f5761075f828a8d6118ec565b891561077057610770818a8c6118ec565b861561082b57886001600160a01b031663c21fee27338d8d8c8c6040518663ffffffff1660e01b815260040180866001600160a01b03166001600160a01b03168152602001858152602001848152602001806020018281038252848482818152602001925080828437600081840152601f19601f8201169050808301925050509650505050505050600060405180830381600087803b15801561081257600080fd5b505af1158015610826573d6000803e3d6000fd5b505050505b604080516370a0823160e01b815230600482015290516001600160a01b038416916370a08231916024808301926020929190829003018186803b15801561087157600080fd5b505afa158015610885573d6000803e3d6000fd5b505050506040513d602081101561089b57600080fd5b5051604080516370a0823160e01b815230600482015290519195506001600160a01b038316916370a0823191602480820192602092909190829003018186803b1580156108e757600080fd5b505afa1580156108fb573d6000803e3d6000fd5b505050506040513d602081101561091157600080fd5b5051925060009150506001600160701b0385168a90038311610934576000610943565b89856001600160701b03160383035b9050600089856001600160701b031603831161096057600061096f565b89856001600160701b03160383035b905060008211806109805750600081115b6109bb5760405162461bcd60e51b81526004018080602001828103825260248152602001806122a96024913960400191505060405180910390fd5b60006109ef6109d184601463ffffffff611a8616565b6109e38761271063ffffffff611a8616565b9063ffffffff611ae616565b90506000610a076109d184601463ffffffff611a8616565b9050610a396305f5e100610a2d6001600160701b038b8116908b1663ffffffff611a8616565b9063ffffffff611a8616565b610a49838363ffffffff611a8616565b1015610a8b576040805162461bcd60e51b815260206004820152600c60248201526b5368696261537761703a204b60a01b604482015290519081900360640190fd5b5050610a9984848888611b28565b60408051838152602081018390528082018d9052606081018c905290516001600160a01b038b169133917fd78ad95fa46c994b6551d0da85fc275fe613ce37657fb8d5e3d130840159d8229181900360800190a350506001600c55505050505050505050565b6040518060400160405280600d81526020016c53686962614e6f7661204c507360981b81525081565b6008546001600160701b0380821692600160701b830490911691600160e01b900463ffffffff1690565b6000610b5f338484611ced565b5060015b92915050565b6006546001600160a01b031681565b60005481565b6001600160a01b038316600090815260026020908152604080832033845290915281205460001914610c03576001600160a01b0384166000908152600260209081526040808320338452909152902054610bde908363ffffffff611ae616565b6001600160a01b03851660009081526002602090815260408083203384529091529020555b610c0e848484611d4f565b5060019392505050565b7f6e71edae12b1b97f4d1f60370fef10105fa2faae0126114a169c64845d6126c981565b601281565b60035481565b6005546001600160a01b03163314610c9d576040805162461bcd60e51b815260206004820152601460248201527329b434b130a9bbb0b81d102327a92124a22222a760611b604482015290519081900360640190fd5b600680546001600160a01b039384166001600160a01b03199182161790915560078054929093169116179055565b60095481565b600a5481565b6000600c54600114610d24576040805162461bcd60e51b815260206004820152601160248201527014da1a589854ddd85c0e881313d0d2d151607a1b604482015290519081900360640190fd5b6000600c81905580610d34610b28565b50600654604080516370a0823160e01b815230600482015290519395509193506000926001600160a01b03909116916370a08231916024808301926020929190829003018186803b158015610d8857600080fd5b505afa158015610d9c573d6000803e3d6000fd5b505050506040513d6020811015610db257600080fd5b5051600754604080516370a0823160e01b815230600482015290519293506000926001600160a01b03909216916370a0823191602480820192602092909190829003018186803b158015610e0557600080fd5b505afa158015610e19573d6000803e3d6000fd5b505050506040513d6020811015610e2f57600080fd5b505190506000610e4e836001600160701b03871663ffffffff611ae616565b90506000610e6b836001600160701b03871663ffffffff611ae616565b90506000610e798787611e09565b60005490915080610eb657610ea26103e86109e3610e9d878763ffffffff611a8616565b611fe4565b9850610eb160006103e8612036565b610f05565b610f026001600160701b038916610ed3868463ffffffff611a8616565b81610eda57fe5b046001600160701b038916610ef5868563ffffffff611a8616565b81610efc57fe5b046120cc565b98505b60008911610f445760405162461bcd60e51b815260040180806020018281038252602881526020018061235c6028913960400191505060405180910390fd5b610f4e8a8a612036565b610f5a86868a8a611b28565b8115610f8a57600854610f86906001600160701b0380821691600160701b90041663ffffffff611a8616565b600b555b6040805185815260208101859052815133927f4c209b5fc8ad50758f13e2e1088ba56a560dff690a1c6fef26394f4c03821c4f928290030190a250506001600c5550949695505050505050565b60016020526000908152604090205481565b600b5481565b60046020526000908152604090205481565b600080600c5460011461104f576040805162461bcd60e51b815260206004820152601160248201527014da1a589854ddd85c0e881313d0d2d151607a1b604482015290519081900360640190fd5b6000600c8190558061105f610b28565b50600654600754604080516370a0823160e01b815230600482015290519496509294506001600160a01b039182169391169160009184916370a08231916024808301926020929190829003018186803b1580156110bb57600080fd5b505afa1580156110cf573d6000803e3d6000fd5b505050506040513d60208110156110e557600080fd5b5051604080516370a0823160e01b815230600482015290519192506000916001600160a01b038516916370a08231916024808301926020929190829003018186803b15801561113357600080fd5b505afa158015611147573d6000803e3d6000fd5b505050506040513d602081101561115d57600080fd5b50513060009081526001602052604081205491925061117c8888611e09565b60005490915080611193848763ffffffff611a8616565b8161119a57fe5b049a50806111ae848663ffffffff611a8616565b816111b557fe5b04995060008b1180156111c8575060008a115b6112035760405162461bcd60e51b81526004018080602001828103825260288152602001806123346028913960400191505060405180910390fd5b61120d30846120e2565b611218878d8d6118ec565b611223868d8c6118ec565b604080516370a0823160e01b815230600482015290516001600160a01b038916916370a08231916024808301926020929190829003018186803b15801561126957600080fd5b505afa15801561127d573d6000803e3d6000fd5b505050506040513d602081101561129357600080fd5b5051604080516370a0823160e01b815230600482015290519196506001600160a01b038816916370a0823191602480820192602092909190829003018186803b1580156112df57600080fd5b505afa1580156112f3573d6000803e3d6000fd5b505050506040513d602081101561130957600080fd5b5051935061131985858b8b611b28565b811561134957600854611345906001600160701b0380821691600160701b90041663ffffffff611a8616565b600b555b604080518c8152602081018c905281516001600160a01b038f169233927fdccd412f0b1252819cb1fd330b93224ca42612892bb3f4f789976e6d81936496929081900390910190a35050505050505050506001600c81905550915091565b60405180604001604052806008815260200167053484942412d4c560c41b81525081565b6000610b5f338484611d4f565b6103e881565b600c54600114611429576040805162461bcd60e51b815260206004820152601160248201527014da1a589854ddd85c0e881313d0d2d151607a1b604482015290519081900360640190fd5b6000600c55600654600754600854604080516370a0823160e01b815230600482015290516001600160a01b0394851694909316926114d892859287926114d3926001600160701b03169185916370a0823191602480820192602092909190829003018186803b15801561149b57600080fd5b505afa1580156114af573d6000803e3d6000fd5b505050506040513d60208110156114c557600080fd5b50519063ffffffff611ae616565b6118ec565b600854604080516370a0823160e01b8152306004820152905161153f92849287926114d392600160701b90046001600160701b0316916001600160a01b038616916370a0823191602480820192602092909190829003018186803b15801561149b57600080fd5b50506001600c5550565b6005546001600160a01b031681565b6007546001600160a01b031681565b428410156115b5576040805162461bcd60e51b815260206004820152601660248201527514da1a5898539bdd9854ddd85c0e881156141254915160521b604482015290519081900360640190fd5b6003546001600160a01b0380891660008181526004602090815260408083208054600180820190925582517f6e71edae12b1b97f4d1f60370fef10105fa2faae0126114a169c64845d6126c98186015280840196909652958d166060860152608085018c905260a085019590955260c08085018b90528151808603909101815260e08501825280519083012061190160f01b6101008601526101028501969096526101228085019690965280518085039096018652610142840180825286519683019690962095839052610162840180825286905260ff89166101828501526101a284018890526101c28401879052519193926101e280820193601f1981019281900390910190855afa1580156116d0573d6000803e3d6000fd5b5050604051601f1901519150506001600160a01b038116158015906117065750886001600160a01b0316816001600160a01b0316145b611757576040805162461bcd60e51b815260206004820181905260248201527f53686962614e6f7661537761703a20494e56414c49445f5349474e4154555245604482015290519081900360640190fd5b611762898989611ced565b505050505050505050565b600260209081526000928352604080842090915290825290205481565b600c546001146117d5576040805162461bcd60e51b815260206004820152601160248201527014da1a589854ddd85c0e881313d0d2d151607a1b604482015290519081900360640190fd5b6000600c55600654604080516370a0823160e01b815230600482015290516118e5926001600160a01b0316916370a08231916024808301926020929190829003018186803b15801561182657600080fd5b505afa15801561183a573d6000803e3d6000fd5b505050506040513d602081101561185057600080fd5b5051600754604080516370a0823160e01b815230600482015290516001600160a01b03909216916370a0823191602480820192602092909190829003018186803b15801561189d57600080fd5b505afa1580156118b1573d6000803e3d6000fd5b505050506040513d60208110156118c757600080fd5b50516008546001600160701b0380821691600160701b900416611b28565b6001600c55565b604080518082018252601981527f7472616e7366657228616464726573732c75696e74323536290000000000000060209182015281516001600160a01b0385811660248301526044808301869052845180840390910181526064909201845291810180516001600160e01b031663a9059cbb60e01b1781529251815160009460609489169392918291908083835b602083106119995780518252601f19909201916020918201910161197a565b6001836020036101000a0380198251168184511680821785525050505050509050019150506000604051808303816000865af19150503d80600081146119fb576040519150601f19603f3d011682016040523d82523d6000602084013e611a00565b606091505b5091509150818015611a2e575080511580611a2e5750808060200190516020811015611a2b57600080fd5b50515b611a7f576040805162461bcd60e51b815260206004820152601a60248201527f5368696261537761703a205452414e534645525f4641494c4544000000000000604482015290519081900360640190fd5b5050505050565b600082611a9557506000610b63565b82820282848281611aa257fe5b0414611adf5760405162461bcd60e51b81526004018080602001828103825260218152602001806122ee6021913960400191505060405180910390fd5b9392505050565b6000611adf83836040518060400160405280601e81526020017f536166654d6174683a207375627472616374696f6e206f766572666c6f770000815250612180565b6001600160701b038411801590611b4657506001600160701b038311155b611b8d576040805162461bcd60e51b81526020600482015260136024820152725368696261537761703a204f564552464c4f5760681b604482015290519081900360640190fd5b60085463ffffffff42811691600160e01b90048116820390811615801590611bbd57506001600160701b03841615155b8015611bd157506001600160701b03831615155b15611c42578063ffffffff16611bff85611bea86612217565b6001600160e01b03169063ffffffff61222916565b600980546001600160e01b03929092169290920201905563ffffffff8116611c2a84611bea87612217565b600a80546001600160e01b0392909216929092020190555b600880546dffffffffffffffffffffffffffff19166001600160701b03888116919091176dffffffffffffffffffffffffffff60701b1916600160701b8883168102919091176001600160e01b0316600160e01b63ffffffff871602179283905560408051848416815291909304909116602082015281517f1c411e9a96e071241c2f21f7726b17ae89e3cab4c78be50e062b03a9fffbbad1929181900390910190a1505050505050565b6001600160a01b03808416600081815260026020908152604080832094871680845294825291829020859055815185815291517f8c5be1e5ebec7d5bd14f71427d1e84f3dd0314c0f7b2291e5b200ac8c7c3b9259281900390910190a3505050565b6001600160a01b038316600090815260016020526040902054611d78908263ffffffff611ae616565b6001600160a01b038085166000908152600160205260408082209390935590841681522054611dad908263ffffffff61224e16565b6001600160a01b0380841660008181526001602090815260409182902094909455805185815290519193928716927fddf252ad1be2c89b69c2b068fc378daa952ba7f163c4a11628f55a4df523b3ef92918290030190a3505050565b600080600560009054906101000a90046001600160a01b03166001600160a01b031663017e7e586040518163ffffffff1660e01b815260040160206040518083038186803b158015611e5a57600080fd5b505afa158015611e6e573d6000803e3d6000fd5b505050506040513d6020811015611e8457600080fd5b5051600b546001600160a01b038216158015945091925090611fd0578015611fcb576000611ec7610e9d6001600160701b0388811690881663ffffffff611a8616565b90506000611ed483611fe4565b905080821115611fc8576000611f02611ef3848463ffffffff611ae616565b6000549063ffffffff611a8616565b90506000611fa483611f98600560009054906101000a90046001600160a01b03166001600160a01b03166369e154046040518163ffffffff1660e01b815260040160206040518083038186803b158015611f5b57600080fd5b505afa158015611f6f573d6000803e3d6000fd5b505050506040513d6020811015611f8557600080fd5b5051879061ffff1663ffffffff611a8616565b9063ffffffff61224e16565b90506000818381611fb157fe5b0490508015611fc457611fc48782612036565b5050505b50505b611fdc565b8015611fdc576000600b555b505092915050565b60006003821115612027575080600160028204015b818110156120215780915060028182858161201057fe5b04018161201957fe5b049050611ff9565b50612031565b8115612031575060015b919050565b600054612049908263ffffffff61224e16565b60009081556001600160a01b038316815260016020526040902054612074908263ffffffff61224e16565b6001600160a01b03831660008181526001602090815260408083209490945583518581529351929391927fddf252ad1be2c89b69c2b068fc378daa952ba7f163c4a11628f55a4df523b3ef9281900390910190a35050565b60008183106120db5781611adf565b5090919050565b6001600160a01b03821660009081526001602052604090205461210b908263ffffffff611ae616565b6001600160a01b03831660009081526001602052604081209190915554612138908263ffffffff611ae616565b60009081556040805183815290516001600160a01b038516917fddf252ad1be2c89b69c2b068fc378daa952ba7f163c4a11628f55a4df523b3ef919081900360200190a35050565b6000818484111561220f5760405162461bcd60e51b81526004018080602001828103825283818151815260200191508051906020019080838360005b838110156121d45781810151838201526020016121bc565b50505050905090810190601f1680156122015780820380516001836020036101000a031916815260200191505b509250505060405180910390fd5b505050900390565b6001600160701b0316600160701b0290565b60006001600160701b0382166001600160e01b0384168161224657fe5b049392505050565b600082820183811015611adf576040805162461bcd60e51b815260206004820152601b60248201527f536166654d6174683a206164646974696f6e206f766572666c6f770000000000604482015290519081900360640190fdfe5368696261537761703a20494e53554646494349454e545f494e5055545f414d4f554e545368696261537761703a20494e53554646494349454e545f4c4951554944495459536166654d6174683a206d756c7469706c69636174696f6e206f766572666c6f775368696261537761703a20494e53554646494349454e545f4f55545055545f414d4f554e545368696261537761703a20494e53554646494349454e545f4c49515549444954595f4255524e45445368696261537761703a20494e53554646494349454e545f4c49515549444954595f4d494e544544a265627a7a723158206d195abd56ff66055e785611490f2f20efa8fb24e7a37b197da6ac951ddab5b364736f6c63430005100032454950373132446f6d61696e28737472696e67206e616d652c737472696e672076657273696f6e2c75696e7432353620636861696e49642c6164647265737320766572696679696e67436f6e747261637429a265627a7a7231582077c9fdd81a777f58b69ae452c4d80bdec3f174056b7dc60e8c9a8fd13981362b64736f6c63430005100032",
  "source": "// SPDX-License-Identifier: MIT\r\npragma solidity =0.5.16;\r\n\r\nimport './interfaces/IShibaFactory.sol';\r\nimport './ShibaPair.sol';\r\n\r\ncontract ShibaFactory is IShibaFactory {\r\n    bytes32 public constant INIT_CODE_PAIR_HASH = keccak256(abi.encodePacked(type(ShibaPair).creationCode));\r\n\r\n    address public feeTo;\r\n    address public feeToSetter;\r\n\r\n    mapping(address => mapping(address => address)) public getPair;\r\n    address[] public allPairs;\r\n    address private _owner;\r\n    uint16 private _feeAmount;\r\n\r\n    event PairCreated(address indexed token0, address indexed token1, address pair, uint);\r\n\r\n    constructor(address _feeTo, address owner, uint16 _feePercent) public {\r\n        feeToSetter = owner;\r\n        feeTo = _feeTo;\r\n        _owner = owner;\r\n        _feeAmount = _feePercent;\r\n    }\r\n\r\n    function owner() public view returns (address) {\r\n        return _owner;\r\n    }\r\n\r\n    function allPairsLength() external view returns (uint) {\r\n        return allPairs.length;\r\n    }\r\n\r\n    function createPair(address tokenA, address tokenB) external returns (address pair) {\r\n        require(tokenA != tokenB, 'ShibaSwap: IDENTICAL_ADDRESSES');\r\n        (address token0, address token1) = tokenA < tokenB ? (tokenA, tokenB) : (tokenB, tokenA);\r\n        require(token0 != address(0), 'ShibaSwap: ZERO_ADDRESS');\r\n        require(getPair[token0][token1] == address(0), 'ShibaSwap: PAIR_EXISTS'); // single check is sufficient\r\n        bytes memory bytecode = type(ShibaPair).creationCode;\r\n        bytes32 salt = keccak256(abi.encodePacked(token0, token1));\r\n        assembly {\r\n            pair := create2(0, add(bytecode, 32), mload(bytecode), salt)\r\n        }\r\n        IShibaPair(pair).initialize(token0, token1);\r\n        getPair[token0][token1] = pair;\r\n        getPair[token1][token0] = pair; // populate mapping in the reverse direction\r\n        allPairs.push(pair);\r\n        emit PairCreated(token0, token1, pair, allPairs.length);\r\n    }\r\n\r\n    function setFeeTo(address _feeTo) external {\r\n        require(msg.sender == feeToSetter, 'ShibaSwap: FORBIDDEN');\r\n        feeTo = _feeTo;\r\n    }\r\n\r\n    function setFeeToSetter(address _feeToSetter) external {\r\n        require(msg.sender == feeToSetter, 'ShibaSwap: FORBIDDEN');\r\n        feeToSetter = _feeToSetter;\r\n    }\r\n\r\n    function feeAmount() external view returns (uint16){\r\n        return _feeAmount;\r\n    }\r\n\r\n    function setFeeAmount(uint16 _newFeeAmount) external{\r\n        // This parameter allow us to lower the fee which will be send to the feeManager\r\n        // 20 = 0.20% (all fee goes directly to the feeManager)\r\n        // If we update it to 10 for example, 0.10% are going to LP holder and 0.10% to the feeManager\r\n        require(msg.sender == owner(), \"caller is not the owner\");\r\n        require (_newFeeAmount <= 20, \"amount too big\");\r\n        _feeAmount = _newFeeAmount;\r\n    }\r\n}\r\n",
  "sourcePath": "D:/DeployShiba/ShibaFactory/contracts/ShibaFactory.sol",
  "compiler": {
    "name": "solc",
    "version": "0.5.16+commit.9c3226ce.Emscripten.clang"
  },
  "schemaVersion": "3.4.0",
  "updatedAt": "2021-05-25T16:44:42.092Z",
  "networkType": "ethereum",
  "devdoc": {
    "methods": {}
  },
  "userdoc": {
    "methods": {}
  }
}