{
  "contractName": "FeeManager",
  "abi": [
    {
      "inputs": [
        {
          "internalType": "contract IBEP20",
          "name": "_Nova",
          "type": "address"
        },
        {
          "internalType": "address",
          "name": "_teamAddr",
          "type": "address"
        },
        {
          "internalType": "uint256",
          "name": "_moneyPotShare",
          "type": "uint256"
        }
      ],
      "stateMutability": "nonpayable",
      "type": "constructor"
    },
    {
      "anonymous": false,
      "inputs": [
        {
          "indexed": true,
          "internalType": "address",
          "name": "previousOwner",
          "type": "address"
        },
        {
          "indexed": true,
          "internalType": "address",
          "name": "newOwner",
          "type": "address"
        }
      ],
      "name": "OwnershipTransferred",
      "type": "event"
    },
    {
      "inputs": [],
      "name": "BURN_ADDRESS",
      "outputs": [
        {
          "internalType": "address",
          "name": "",
          "type": "address"
        }
      ],
      "stateMutability": "view",
      "type": "function"
    },
    {
      "inputs": [],
      "name": "Nova",
      "outputs": [
        {
          "internalType": "contract IBEP20",
          "name": "",
          "type": "address"
        }
      ],
      "stateMutability": "view",
      "type": "function"
    },
    {
      "inputs": [],
      "name": "moneyPot",
      "outputs": [
        {
          "internalType": "contract IMoneyPot",
          "name": "",
          "type": "address"
        }
      ],
      "stateMutability": "view",
      "type": "function"
    },
    {
      "inputs": [],
      "name": "moneyPotShare",
      "outputs": [
        {
          "internalType": "uint256",
          "name": "",
          "type": "uint256"
        }
      ],
      "stateMutability": "view",
      "type": "function"
    },
    {
      "inputs": [],
      "name": "owner",
      "outputs": [
        {
          "internalType": "address",
          "name": "",
          "type": "address"
        }
      ],
      "stateMutability": "view",
      "type": "function"
    },
    {
      "inputs": [],
      "name": "renounceOwnership",
      "outputs": [],
      "stateMutability": "nonpayable",
      "type": "function"
    },
    {
      "inputs": [],
      "name": "router",
      "outputs": [
        {
          "internalType": "contract IShibaRouter02",
          "name": "",
          "type": "address"
        }
      ],
      "stateMutability": "view",
      "type": "function"
    },
    {
      "inputs": [],
      "name": "teamAddr",
      "outputs": [
        {
          "internalType": "address",
          "name": "",
          "type": "address"
        }
      ],
      "stateMutability": "view",
      "type": "function"
    },
    {
      "inputs": [],
      "name": "teamShare",
      "outputs": [
        {
          "internalType": "uint256",
          "name": "",
          "type": "uint256"
        }
      ],
      "stateMutability": "view",
      "type": "function"
    },
    {
      "inputs": [
        {
          "internalType": "address",
          "name": "newOwner",
          "type": "address"
        }
      ],
      "name": "transferOwnership",
      "outputs": [],
      "stateMutability": "nonpayable",
      "type": "function"
    },
    {
      "inputs": [
        {
          "internalType": "address",
          "name": "_token",
          "type": "address"
        }
      ],
      "name": "removeLiquidityToToken",
      "outputs": [],
      "stateMutability": "nonpayable",
      "type": "function"
    },
    {
      "inputs": [
        {
          "internalType": "address",
          "name": "_token0",
          "type": "address"
        },
        {
          "internalType": "address",
          "name": "_token1",
          "type": "address"
        }
      ],
      "name": "swapBalanceToToken",
      "outputs": [],
      "stateMutability": "nonpayable",
      "type": "function"
    },
    {
      "inputs": [
        {
          "internalType": "address",
          "name": "_token0",
          "type": "address"
        },
        {
          "internalType": "address",
          "name": "_token1",
          "type": "address"
        },
        {
          "internalType": "uint256",
          "name": "_token0Amount",
          "type": "uint256"
        }
      ],
      "name": "swapToToken",
      "outputs": [],
      "stateMutability": "nonpayable",
      "type": "function"
    },
    {
      "inputs": [
        {
          "internalType": "uint256",
          "name": "_moneyPotShare",
          "type": "uint256"
        }
      ],
      "name": "updateShares",
      "outputs": [],
      "stateMutability": "nonpayable",
      "type": "function"
    },
    {
      "inputs": [
        {
          "internalType": "address",
          "name": "_newTeamAddr",
          "type": "address"
        }
      ],
      "name": "setTeamAddr",
      "outputs": [],
      "stateMutability": "nonpayable",
      "type": "function"
    },
    {
      "inputs": [
        {
          "internalType": "address",
          "name": "_router",
          "type": "address"
        }
      ],
      "name": "setupRouter",
      "outputs": [],
      "stateMutability": "nonpayable",
      "type": "function"
    },
    {
      "inputs": [
        {
          "internalType": "contract IMoneyPot",
          "name": "_moneyPot",
          "type": "address"
        }
      ],
      "name": "setupMoneyPot",
      "outputs": [],
      "stateMutability": "nonpayable",
      "type": "function"
    },
    {
      "inputs": [],
      "name": "distributeFee",
      "outputs": [],
      "stateMutability": "nonpayable",
      "type": "function"
    }
  ],
  "bytecode": "0x608060405234801561001057600080fd5b50604051611a5c380380611a5c8339818101604052606081101561003357600080fd5b5080516020820151604090920151909190600061004e6100d9565b600080546001600160a01b0319166001600160a01b0383169081178255604051929350917f8be0079c531659141344cd1fd0a4f28419497f9722a3daafe3b4186f6b6457e0908290a350600580546001600160a01b039485166001600160a01b03199182161790915560068054939094169216919091179091556001819055612710036002556100dd565b3390565b611970806100ec6000396000f3fe608060405234801561001057600080fd5b50600436106101165760003560e01c8063a753c636116100a2578063ea6ef2fe11610071578063ea6ef2fe14610266578063f03250fd1461026e578063f2fde38b146102a4578063f887ea40146102ca578063fccc2813146102d257610116565b8063a753c636146101db578063b6608467146101f5578063b898ff8214610212578063c81620681461024057610116565b80634fae6a5b116100e95780634fae6a5b1461015957806355d403221461017f578063620261a2146101a5578063715018a6146101cb5780638da5cb5b146101d357610116565b80631bb63d0c1461011b57806326c4e60d1461013f57806336ae3d1c146101495780634a5ff74914610151575b600080fd5b6101236102da565b604080516001600160a01b039092168252519081900360200190f35b6101476102e9565b005b61012361077c565b61012361078b565b6101476004803603602081101561016f57600080fd5b50356001600160a01b031661079a565b6101476004803603602081101561019557600080fd5b50356001600160a01b0316610814565b610147600480360360208110156101bb57600080fd5b50356001600160a01b0316610b1d565b610147610b97565b610123610c39565b6101e3610c48565b60408051918252519081900360200190f35b6101476004803603602081101561020b57600080fd5b5035610c4e565b6101476004803603604081101561022857600080fd5b506001600160a01b0381358116916020013516610d3e565b6101476004803603602081101561025657600080fd5b50356001600160a01b03166110e6565b6101e3611160565b6101476004803603606081101561028457600080fd5b506001600160a01b03813581169160208101359091169060400135611166565b610147600480360360208110156102ba57600080fd5b50356001600160a01b0316611270565b6101236112d1565b6101236112e0565b6005546001600160a01b031681565b6102f16112e6565b6000546001600160a01b03908116911614610341576040805162461bcd60e51b815260206004820181905260248201526000805160206118f8833981519152604482015290519081900360640190fd5b60035460408051639e1df17160e01b815290516000926001600160a01b031691639e1df171916004808301926020929190829003018186803b15801561038657600080fd5b505afa15801561039a573d6000803e3d6000fd5b505050506040513d60208110156103b057600080fd5b5051905060005b818110156105fd57600354604080516311d0462960e21b81526004810184905290516000926001600160a01b03169163474118a4916024808301926020929190829003018186803b15801561040b57600080fd5b505afa15801561041f573d6000803e3d6000fd5b505050506040513d602081101561043557600080fd5b5051604080516370a0823160e01b815230600482015290519192506000916001600160a01b038416916370a08231916024808301926020929190829003018186803b15801561048357600080fd5b505afa158015610497573d6000803e3d6000fd5b505050506040513d60208110156104ad57600080fd5b50516001549091506000906104d190612710906104cb9085906112ea565b9061134c565b6003546040805163095ea7b360e01b81526001600160a01b0392831660048201526024810184905290519293509085169163095ea7b3916044808201926020929091908290030181600087803b15801561052a57600080fd5b505af115801561053e573d6000803e3d6000fd5b505050506040513d602081101561055457600080fd5b505060035460408051634bd68e6760e11b81526001600160a01b03868116600483015260248201859052915191909216916397ad1cce91604480830192600092919082900301818387803b1580156105ab57600080fd5b505af11580156105bf573d6000803e3d6000fd5b50506006546105ef92506001600160a01b031690506105de848461138e565b6001600160a01b03861691906113d0565b5050508060010190506103b7565b50600554604080516370a0823160e01b815230600482015290516000926001600160a01b0316916370a08231916024808301926020929190829003018186803b15801561064957600080fd5b505afa15801561065d573d6000803e3d6000fd5b505050506040513d602081101561067357600080fd5b5051111561077957600554604080516370a0823160e01b815230600482015290516001600160a01b039092169163a9059cbb9161dead9184916370a08231916024808301926020929190829003018186803b1580156106d157600080fd5b505afa1580156106e5573d6000803e3d6000fd5b505050506040513d60208110156106fb57600080fd5b5051604080516001600160e01b031960e086901b1681526001600160a01b03909316600484015260248301919091525160448083019260209291908290030181600087803b15801561074c57600080fd5b505af1158015610760573d6000803e3d6000fd5b505050506040513d602081101561077657600080fd5b50505b50565b6003546001600160a01b031681565b6006546001600160a01b031681565b6107a26112e6565b6000546001600160a01b039081169116146107f2576040805162461bcd60e51b815260206004820181905260248201526000805160206118f8833981519152604482015290519081900360640190fd5b600380546001600160a01b0319166001600160a01b0392909216919091179055565b61081c6112e6565b6000546001600160a01b0390811691161461086c576040805162461bcd60e51b815260206004820181905260248201526000805160206118f8833981519152604482015290519081900360640190fd5b604080516370a0823160e01b8152306004820152905182916000916001600160a01b038416916370a08231916024808301926020929190829003018186803b1580156108b757600080fd5b505afa1580156108cb573d6000803e3d6000fd5b505050506040513d60208110156108e157600080fd5b505160408051630dfe168160e01b815290519192506000916001600160a01b03851691630dfe1681916004808301926020929190829003018186803b15801561092957600080fd5b505afa15801561093d573d6000803e3d6000fd5b505050506040513d602081101561095357600080fd5b50516040805163d21220a760e01b815290519192506000916001600160a01b0386169163d21220a7916004808301926020929190829003018186803b15801561099b57600080fd5b505afa1580156109af573d6000803e3d6000fd5b505050506040513d60208110156109c557600080fd5b5051600480546040805163095ea7b360e01b81526001600160a01b0392831693810193909352602483018790525192935086169163095ea7b3916044808201926020929091908290030181600087803b158015610a2157600080fd5b505af1158015610a35573d6000803e3d6000fd5b505050506040513d6020811015610a4b57600080fd5b50506004546001600160a01b031663baa2abde83838660008030610a70426064611422565b6040518863ffffffff1660e01b815260040180886001600160a01b03168152602001876001600160a01b03168152602001868152602001858152602001848152602001836001600160a01b031681526020018281526020019750505050505050506040805180830381600087803b158015610aea57600080fd5b505af1158015610afe573d6000803e3d6000fd5b505050506040513d6040811015610b1457600080fd5b50505050505050565b610b256112e6565b6000546001600160a01b03908116911614610b75576040805162461bcd60e51b815260206004820181905260248201526000805160206118f8833981519152604482015290519081900360640190fd5b600480546001600160a01b0319166001600160a01b0392909216919091179055565b610b9f6112e6565b6000546001600160a01b03908116911614610bef576040805162461bcd60e51b815260206004820181905260248201526000805160206118f8833981519152604482015290519081900360640190fd5b600080546040516001600160a01b03909116907f8be0079c531659141344cd1fd0a4f28419497f9722a3daafe3b4186f6b6457e0908390a3600080546001600160a01b0319169055565b6000546001600160a01b031690565b60015481565b610c566112e6565b6000546001600160a01b03908116911614610ca6576040805162461bcd60e51b815260206004820181905260248201526000805160206118f8833981519152604482015290519081900360640190fd5b612710811115610cef576040805162461bcd60e51b815260206004820152600f60248201526e125b9d985b1a59081c195c98d95b9d608a1b604482015290519081900360640190fd5b611d4c811015610d305760405162461bcd60e51b81526004018080602001828103825260238152602001806119186023913960400191505060405180910390fd5b600181905561271003600255565b610d466112e6565b6000546001600160a01b03908116911614610d96576040805162461bcd60e51b815260206004820181905260248201526000805160206118f8833981519152604482015290519081900360640190fd5b6005546001600160a01b0383811691161415610df1576040805162461bcd60e51b81526020600482015260156024820152742737bb309031b0b71037b7363c90313290313ab93760591b604482015290519081900360640190fd5b6000826001600160a01b03166370a08231306040518263ffffffff1660e01b815260040180826001600160a01b0316815260200191505060206040518083038186803b158015610e4057600080fd5b505afa158015610e54573d6000803e3d6000fd5b505050506040513d6020811015610e6a57600080fd5b5051600480546040805163095ea7b360e01b81526001600160a01b0392831693810193909352602483018490525192935085169163095ea7b3916044808201926020929091908290030181600087803b158015610ec657600080fd5b505af1158015610eda573d6000803e3d6000fd5b505050506040513d6020811015610ef057600080fd5b505060408051600280825260608083018452926020830190803683370190505090508381600081518110610f2057fe5b60200260200101906001600160a01b031690816001600160a01b0316815250508281600181518110610f4e57fe5b6001600160a01b039283166020918202929092010152600454166338ed17398360008430610f7d426064611422565b6040518663ffffffff1660e01b81526004018086815260200185815260200180602001846001600160a01b03168152602001838152602001828103825285818151815260200191508051906020019060200280838360005b83811015610fed578181015183820152602001610fd5565b505050509050019650505050505050600060405180830381600087803b15801561101657600080fd5b505af115801561102a573d6000803e3d6000fd5b505050506040513d6000823e601f3d908101601f19168201604052602081101561105357600080fd5b810190808051604051939291908464010000000082111561107357600080fd5b90830190602082018581111561108857600080fd5b82518660208202830111640100000000821117156110a557600080fd5b82525081516020918201928201910280838360005b838110156110d25781810151838201526020016110ba565b505050509050016040525050505050505050565b6110ee6112e6565b6000546001600160a01b0390811691161461113e576040805162461bcd60e51b815260206004820181905260248201526000805160206118f8833981519152604482015290519081900360640190fd5b600680546001600160a01b0319166001600160a01b0392909216919091179055565b60025481565b61116e6112e6565b6000546001600160a01b039081169116146111be576040805162461bcd60e51b815260206004820181905260248201526000805160206118f8833981519152604482015290519081900360640190fd5b6005546001600160a01b0384811691161415611219576040805162461bcd60e51b81526020600482015260156024820152742737bb309031b0b71037b7363c90313290313ab93760591b604482015290519081900360640190fd5b600480546040805163095ea7b360e01b81526001600160a01b039283169381019390935260248301849052519085169163095ea7b39160448083019260209291908290030181600087803b158015610ec657600080fd5b6112786112e6565b6000546001600160a01b039081169116146112c8576040805162461bcd60e51b815260206004820181905260248201526000805160206118f8833981519152604482015290519081900360640190fd5b6107798161147c565b6004546001600160a01b031681565b61dead81565b3390565b6000826112f957506000611346565b8282028284828161130657fe5b04146113435760405162461bcd60e51b81526004018080602001828103825260218152602001806118d76021913960400191505060405180910390fd5b90505b92915050565b600061134383836040518060400160405280601a81526020017f536166654d6174683a206469766973696f6e206279207a65726f00000000000081525061151c565b600061134383836040518060400160405280601e81526020017f536166654d6174683a207375627472616374696f6e206f766572666c6f7700008152506115be565b604080516001600160a01b038416602482015260448082018490528251808303909101815260649091019091526020810180516001600160e01b031663a9059cbb60e01b179052610776908490611618565b600082820183811015611343576040805162461bcd60e51b815260206004820152601b60248201527f536166654d6174683a206164646974696f6e206f766572666c6f770000000000604482015290519081900360640190fd5b6001600160a01b0381166114c15760405162461bcd60e51b81526004018080602001828103825260268152602001806118b16026913960400191505060405180910390fd5b600080546040516001600160a01b03808516939216917f8be0079c531659141344cd1fd0a4f28419497f9722a3daafe3b4186f6b6457e091a3600080546001600160a01b0319166001600160a01b0392909216919091179055565b600081836115a85760405162461bcd60e51b81526004018080602001828103825283818151815260200191508051906020019080838360005b8381101561156d578181015183820152602001611555565b50505050905090810190601f16801561159a5780820380516001836020036101000a031916815260200191505b509250505060405180910390fd5b5060008385816115b457fe5b0495945050505050565b600081848411156116105760405162461bcd60e51b815260206004820181815283516024840152835190928392604490910191908501908083836000831561156d578181015183820152602001611555565b505050900390565b606061166d826040518060400160405280602081526020017f5361666542455032303a206c6f772d6c6576656c2063616c6c206661696c6564815250856001600160a01b03166116c99092919063ffffffff16565b8051909150156107765780806020019051602081101561168c57600080fd5b50516107765760405162461bcd60e51b815260040180806020018281038252602a815260200180611887602a913960400191505060405180910390fd5b60606116d884846000856116e0565b949350505050565b60606116eb8561184d565b61173c576040805162461bcd60e51b815260206004820152601d60248201527f416464726573733a2063616c6c20746f206e6f6e2d636f6e7472616374000000604482015290519081900360640190fd5b60006060866001600160a01b031685876040518082805190602001908083835b6020831061177b5780518252601f19909201916020918201910161175c565b6001836020036101000a03801982511681845116808217855250505050505090500191505060006040518083038185875af1925050503d80600081146117dd576040519150601f19603f3d011682016040523d82523d6000602084013e6117e2565b606091505b509150915081156117f65791506116d89050565b8051156118065780518082602001fd5b60405162461bcd60e51b815260206004820181815286516024840152865187939192839260440191908501908083836000831561156d578181015183820152602001611555565b6000813f7fc5d2460186f7233c927e7db2dcc703c0e500b653ca82273b7bfad8045d85a4708181148015906116d857505015159291505056fe5361666542455032303a204245503230206f7065726174696f6e20646964206e6f7420737563636565644f776e61626c653a206e6577206f776e657220697320746865207a65726f2061646472657373536166654d6174683a206d756c7469706c69636174696f6e206f766572666c6f774f776e61626c653a2063616c6c6572206973206e6f7420746865206f776e65724d6f6e6579706f74207368617265206d757374206265206174206c6561737420373525a26469706673582212201683669ad6f9bc52f27afbc7f454c42b6116f97b793ee6123897f7d692acc58964736f6c634300060c0033",
  "immutableReferences": {},
  "source": "// SPDX-License-Identifier: MIT\r\n\r\npragma solidity 0.6.12;\r\n\r\nimport \"./libs/Ownable.sol\";\r\nimport \"./libs/SafeMath.sol\";\r\nimport \"./libs/IBEP20.sol\";\r\nimport \"./libs/SafeBEP20.sol\";\r\nimport \"./interfaces/IMoneyPot.sol\";\r\nimport \"./interfaces/IShibaRouter02.sol\";\r\nimport \"./interfaces/IShibaPair.sol\";\r\n\r\n/*\r\nThe FeeManager is a kind of contract-wallet that allow the owner to unbind (LP) and swap tokens\r\nto BNB/BUSD before sending them to the Money Pot\r\n*/\r\ncontract FeeManager is Ownable{\r\n    using SafeMath for uint256;\r\n    using SafeBEP20 for IBEP20;\r\n\r\n    uint256 public moneyPotShare;\r\n    uint256 public teamShare;\r\n\r\n    IMoneyPot public moneyPot;\r\n    IShibaRouter02 public router;\r\n    IBEP20 public Nova;\r\n\r\n    address public teamAddr; // Used for dev/marketing and others funds for project\r\n\r\n    address public constant BURN_ADDRESS = 0x000000000000000000000000000000000000dEaD;\r\n\r\n    constructor (IBEP20 _Nova, address _teamAddr,\r\n                uint256 _moneyPotShare) public{\r\n        Nova = _Nova;\r\n        teamAddr = _teamAddr; /*swap fees team wallet*/\r\n        moneyPotShare = _moneyPotShare;\r\n        teamShare = 10000 - moneyPotShare;\r\n    }\r\n\r\n    function removeLiquidityToToken(address _token) external onlyOwner{\r\n        IShibaPair _pair = IShibaPair(_token);\r\n        uint256 _amount = _pair.balanceOf(address(this));\r\n        address token0 = _pair.token0();\r\n        address token1 = _pair.token1();\r\n\r\n        _pair.approve(address(router), _amount);\r\n        router.removeLiquidity(token0, token1, _amount, 0, 0, address(this), block.timestamp.add(100));\r\n    }\r\n\r\n    function swapBalanceToToken(address _token0, address _token1) external onlyOwner {\r\n        require(_token0 != address(Nova), \"Nova can only be burn\");\r\n        uint256 _amount = IBEP20(_token0).balanceOf(address(this));\r\n        IBEP20(_token0).approve(address(router), _amount);\r\n        address[] memory path = new address[](2);\r\n        path[0] = _token0;\r\n        path[1] = _token1;\r\n        router.swapExactTokensForTokens(_amount, 0, path, address(this), block.timestamp.add(100));\r\n    }\r\n\r\n    function swapToToken(address _token0, address _token1, uint256 _token0Amount) external onlyOwner {\r\n        require(_token0 != address(Nova), \"Nova can only be burn\");\r\n        IBEP20(_token0).approve(address(router), _token0Amount);\r\n        address[] memory path = new address[](2);\r\n        path[0] = _token0;\r\n        path[1] = _token1;\r\n        router.swapExactTokensForTokens(_token0Amount, 0, path, address(this), block.timestamp.add(100));\r\n    }\r\n\r\n    function updateShares(uint256 _moneyPotShare) external onlyOwner{\r\n        require(_moneyPotShare <= 10000, \"Invalid percent\");\r\n        require(_moneyPotShare >= 7500, \"Moneypot share must be at least 75%\");\r\n        moneyPotShare = _moneyPotShare;\r\n        teamShare = 10000 - moneyPotShare;\r\n    }\r\n\r\n    function setTeamAddr(address _newTeamAddr) external onlyOwner{\r\n        teamAddr = _newTeamAddr;\r\n    }\r\n\r\n    function setupRouter(address _router) external onlyOwner{\r\n        router = IShibaRouter02(_router);\r\n    }\r\n\r\n    function setupMoneyPot(IMoneyPot _moneyPot) external onlyOwner{\r\n        moneyPot = _moneyPot;\r\n    }\r\n\r\n    /* distribute fee to the moneypot and dev wallet  */\r\n    function distributeFee() external onlyOwner {\r\n        uint256 length = moneyPot.getRegisteredTokenLength();\r\n        for (uint256 index = 0; index < length; ++index) {\r\n            IBEP20 _curToken = IBEP20(moneyPot.getRegisteredToken(index));\r\n            uint256 _amount = _curToken.balanceOf(address(this));\r\n            uint256 _moneyPotAmount = _amount.mul(moneyPotShare).div(10000);\r\n            _curToken.approve(address(moneyPot), _moneyPotAmount);\r\n            moneyPot.depositRewards(address(_curToken), _moneyPotAmount);\r\n            _curToken.safeTransfer(teamAddr, _amount.sub(_moneyPotAmount));\r\n        }\r\n        if (Nova.balanceOf(address(this)) > 0){\r\n            Nova.transfer(BURN_ADDRESS, Nova.balanceOf(address(this)));\r\n        }\r\n    }\r\n}",
  "sourcePath": "D:/DeployShiba/shibanova/contracts/FeeManager.sol",
  "compiler": {
    "name": "solc",
    "version": "0.6.12+commit.27d51765.Emscripten.clang"
  },
  "schemaVersion": "3.4.0",
  "updatedAt": "2021-05-25T18:22:43.683Z",
  "devdoc": {
    "kind": "dev",
    "methods": {
      "owner()": {
        "details": "Returns the address of the current owner."
      },
      "renounceOwnership()": {
        "details": "Leaves the contract without owner. It will not be possible to call `onlyOwner` functions anymore. Can only be called by the current owner. NOTE: Renouncing ownership will leave the contract without an owner, thereby removing any functionality that is only available to the owner."
      },
      "transferOwnership(address)": {
        "details": "Transfers ownership of the contract to a new account (`newOwner`). Can only be called by the current owner."
      }
    },
    "version": 1
  },
  "userdoc": {
    "kind": "user",
    "methods": {},
    "version": 1
  }
}