{
  "contractName": "MasterShiba",
  "abi": [
    {
      "inputs": [
        {
          "internalType": "contract ShibaBEP20",
          "name": "_Nova",
          "type": "address"
        },
        {
          "internalType": "contract ShibaBEP20",
          "name": "_sNova",
          "type": "address"
        },
        {
          "internalType": "contract ShibaBonusAggregator",
          "name": "_bonusAggregator",
          "type": "address"
        },
        {
          "internalType": "address",
          "name": "_devaddr",
          "type": "address"
        },
        {
          "internalType": "address",
          "name": "_feeAddress",
          "type": "address"
        },
        {
          "internalType": "uint256",
          "name": "_NovaPerBlock",
          "type": "uint256"
        },
        {
          "internalType": "uint256",
          "name": "_startBlock",
          "type": "uint256"
        }
      ],
      "stateMutability": "nonpayable",
      "type": "constructor"
    },
    {
      "anonymous": false,
      "inputs": [
        {
          "indexed": true,
          "internalType": "address",
          "name": "user",
          "type": "address"
        },
        {
          "indexed": true,
          "internalType": "uint256",
          "name": "pid",
          "type": "uint256"
        },
        {
          "indexed": false,
          "internalType": "uint256",
          "name": "amount",
          "type": "uint256"
        }
      ],
      "name": "Deposit",
      "type": "event"
    },
    {
      "anonymous": false,
      "inputs": [
        {
          "indexed": true,
          "internalType": "address",
          "name": "user",
          "type": "address"
        },
        {
          "indexed": true,
          "internalType": "uint256",
          "name": "pid",
          "type": "uint256"
        },
        {
          "indexed": false,
          "internalType": "uint256",
          "name": "amount",
          "type": "uint256"
        }
      ],
      "name": "EmergencyWithdraw",
      "type": "event"
    },
    {
      "anonymous": false,
      "inputs": [
        {
          "indexed": true,
          "internalType": "address",
          "name": "caller",
          "type": "address"
        },
        {
          "indexed": false,
          "internalType": "uint256",
          "name": "previousAmount",
          "type": "uint256"
        },
        {
          "indexed": false,
          "internalType": "uint256",
          "name": "newAmount",
          "type": "uint256"
        }
      ],
      "name": "EmissionRateUpdated",
      "type": "event"
    },
    {
      "anonymous": false,
      "inputs": [
        {
          "indexed": true,
          "internalType": "address",
          "name": "previousOwner",
          "type": "address"
        },
        {
          "indexed": true,
          "internalType": "address",
          "name": "newOwner",
          "type": "address"
        }
      ],
      "name": "OwnershipTransferred",
      "type": "event"
    },
    {
      "anonymous": false,
      "inputs": [
        {
          "indexed": true,
          "internalType": "address",
          "name": "user",
          "type": "address"
        },
        {
          "indexed": true,
          "internalType": "uint256",
          "name": "pid",
          "type": "uint256"
        },
        {
          "indexed": false,
          "internalType": "uint256",
          "name": "amount",
          "type": "uint256"
        }
      ],
      "name": "Withdraw",
      "type": "event"
    },
    {
      "inputs": [],
      "name": "Nova",
      "outputs": [
        {
          "internalType": "contract ShibaBEP20",
          "name": "",
          "type": "address"
        }
      ],
      "stateMutability": "view",
      "type": "function",
      "constant": true
    },
    {
      "inputs": [],
      "name": "NovaPerBlock",
      "outputs": [
        {
          "internalType": "uint256",
          "name": "",
          "type": "uint256"
        }
      ],
      "stateMutability": "view",
      "type": "function",
      "constant": true
    },
    {
      "inputs": [],
      "name": "bonusAggregator",
      "outputs": [
        {
          "internalType": "contract ShibaBonusAggregator",
          "name": "",
          "type": "address"
        }
      ],
      "stateMutability": "view",
      "type": "function",
      "constant": true
    },
    {
      "inputs": [],
      "name": "devaddr",
      "outputs": [
        {
          "internalType": "address",
          "name": "",
          "type": "address"
        }
      ],
      "stateMutability": "view",
      "type": "function",
      "constant": true
    },
    {
      "inputs": [],
      "name": "emissionReductionPeriodBlocks",
      "outputs": [
        {
          "internalType": "uint256",
          "name": "",
          "type": "uint256"
        }
      ],
      "stateMutability": "view",
      "type": "function",
      "constant": true
    },
    {
      "inputs": [],
      "name": "emissionReductionRatePerPeriod",
      "outputs": [
        {
          "internalType": "uint256",
          "name": "",
          "type": "uint256"
        }
      ],
      "stateMutability": "view",
      "type": "function",
      "constant": true
    },
    {
      "inputs": [],
      "name": "feeAddress",
      "outputs": [
        {
          "internalType": "address",
          "name": "",
          "type": "address"
        }
      ],
      "stateMutability": "view",
      "type": "function",
      "constant": true
    },
    {
      "inputs": [],
      "name": "initialEmissionRate",
      "outputs": [
        {
          "internalType": "uint256",
          "name": "",
          "type": "uint256"
        }
      ],
      "stateMutability": "view",
      "type": "function",
      "constant": true
    },
    {
      "inputs": [],
      "name": "lastReductionPeriodIndex",
      "outputs": [
        {
          "internalType": "uint256",
          "name": "",
          "type": "uint256"
        }
      ],
      "stateMutability": "view",
      "type": "function",
      "constant": true
    },
    {
      "inputs": [],
      "name": "minimumEmissionRate",
      "outputs": [
        {
          "internalType": "uint256",
          "name": "",
          "type": "uint256"
        }
      ],
      "stateMutability": "view",
      "type": "function",
      "constant": true
    },
    {
      "inputs": [],
      "name": "owner",
      "outputs": [
        {
          "internalType": "address",
          "name": "",
          "type": "address"
        }
      ],
      "stateMutability": "view",
      "type": "function",
      "constant": true
    },
    {
      "inputs": [
        {
          "internalType": "uint256",
          "name": "",
          "type": "uint256"
        }
      ],
      "name": "poolInfo",
      "outputs": [
        {
          "internalType": "contract IBEP20",
          "name": "lpToken",
          "type": "address"
        },
        {
          "internalType": "uint256",
          "name": "lpSupply",
          "type": "uint256"
        },
        {
          "internalType": "uint256",
          "name": "allocPoint",
          "type": "uint256"
        },
        {
          "internalType": "uint256",
          "name": "lastRewardBlock",
          "type": "uint256"
        },
        {
          "internalType": "uint256",
          "name": "accNovaPerShare",
          "type": "uint256"
        },
        {
          "internalType": "uint256",
          "name": "depositFeeBP",
          "type": "uint256"
        },
        {
          "internalType": "bool",
          "name": "isSNovaRewards",
          "type": "bool"
        }
      ],
      "stateMutability": "view",
      "type": "function",
      "constant": true
    },
    {
      "inputs": [],
      "name": "renounceOwnership",
      "outputs": [],
      "stateMutability": "nonpayable",
      "type": "function"
    },
    {
      "inputs": [],
      "name": "sNova",
      "outputs": [
        {
          "internalType": "contract ShibaBEP20",
          "name": "",
          "type": "address"
        }
      ],
      "stateMutability": "view",
      "type": "function",
      "constant": true
    },
    {
      "inputs": [],
      "name": "startBlock",
      "outputs": [
        {
          "internalType": "uint256",
          "name": "",
          "type": "uint256"
        }
      ],
      "stateMutability": "view",
      "type": "function",
      "constant": true
    },
    {
      "inputs": [],
      "name": "totalAllocPoint",
      "outputs": [
        {
          "internalType": "uint256",
          "name": "",
          "type": "uint256"
        }
      ],
      "stateMutability": "view",
      "type": "function",
      "constant": true
    },
    {
      "inputs": [
        {
          "internalType": "address",
          "name": "newOwner",
          "type": "address"
        }
      ],
      "name": "transferOwnership",
      "outputs": [],
      "stateMutability": "nonpayable",
      "type": "function"
    },
    {
      "inputs": [
        {
          "internalType": "uint256",
          "name": "",
          "type": "uint256"
        },
        {
          "internalType": "address",
          "name": "",
          "type": "address"
        }
      ],
      "name": "userInfo",
      "outputs": [
        {
          "internalType": "uint256",
          "name": "amount",
          "type": "uint256"
        },
        {
          "internalType": "uint256",
          "name": "amountWithBonus",
          "type": "uint256"
        },
        {
          "internalType": "uint256",
          "name": "rewardDebt",
          "type": "uint256"
        }
      ],
      "stateMutability": "view",
      "type": "function",
      "constant": true
    },
    {
      "inputs": [],
      "name": "poolLength",
      "outputs": [
        {
          "internalType": "uint256",
          "name": "",
          "type": "uint256"
        }
      ],
      "stateMutability": "view",
      "type": "function",
      "constant": true
    },
    {
      "inputs": [
        {
          "internalType": "uint256",
          "name": "_pid",
          "type": "uint256"
        },
        {
          "internalType": "address",
          "name": "_user",
          "type": "address"
        }
      ],
      "name": "userBonus",
      "outputs": [
        {
          "internalType": "uint256",
          "name": "",
          "type": "uint256"
        }
      ],
      "stateMutability": "view",
      "type": "function",
      "constant": true
    },
    {
      "inputs": [
        {
          "internalType": "uint256",
          "name": "_from",
          "type": "uint256"
        },
        {
          "internalType": "uint256",
          "name": "_to",
          "type": "uint256"
        }
      ],
      "name": "getMultiplier",
      "outputs": [
        {
          "internalType": "uint256",
          "name": "",
          "type": "uint256"
        }
      ],
      "stateMutability": "pure",
      "type": "function",
      "constant": true
    },
    {
      "inputs": [
        {
          "internalType": "uint256",
          "name": "_allocPoint",
          "type": "uint256"
        },
        {
          "internalType": "contract IBEP20",
          "name": "_lpToken",
          "type": "address"
        },
        {
          "internalType": "uint256",
          "name": "_depositFeeBP",
          "type": "uint256"
        },
        {
          "internalType": "bool",
          "name": "_isSNovaRewards",
          "type": "bool"
        }
      ],
      "name": "add",
      "outputs": [],
      "stateMutability": "nonpayable",
      "type": "function"
    },
    {
      "inputs": [
        {
          "internalType": "uint256",
          "name": "_pid",
          "type": "uint256"
        },
        {
          "internalType": "uint256",
          "name": "_allocPoint",
          "type": "uint256"
        },
        {
          "internalType": "uint256",
          "name": "_depositFeeBP",
          "type": "uint256"
        },
        {
          "internalType": "bool",
          "name": "_isSNovaRewards",
          "type": "bool"
        }
      ],
      "name": "set",
      "outputs": [],
      "stateMutability": "nonpayable",
      "type": "function"
    },
    {
      "inputs": [
        {
          "internalType": "uint256",
          "name": "_pid",
          "type": "uint256"
        },
        {
          "internalType": "address",
          "name": "_user",
          "type": "address"
        }
      ],
      "name": "pendingNova",
      "outputs": [
        {
          "internalType": "uint256",
          "name": "",
          "type": "uint256"
        }
      ],
      "stateMutability": "view",
      "type": "function",
      "constant": true
    },
    {
      "inputs": [],
      "name": "massUpdatePools",
      "outputs": [],
      "stateMutability": "nonpayable",
      "type": "function"
    },
    {
      "inputs": [
        {
          "internalType": "uint256",
          "name": "_pid",
          "type": "uint256"
        }
      ],
      "name": "updatePool",
      "outputs": [],
      "stateMutability": "nonpayable",
      "type": "function"
    },
    {
      "inputs": [
        {
          "internalType": "address",
          "name": "_user",
          "type": "address"
        },
        {
          "internalType": "uint256",
          "name": "_pid",
          "type": "uint256"
        },
        {
          "internalType": "uint256",
          "name": "bonus",
          "type": "uint256"
        }
      ],
      "name": "updateUserBonus",
      "outputs": [],
      "stateMutability": "nonpayable",
      "type": "function"
    },
    {
      "inputs": [
        {
          "internalType": "uint256",
          "name": "_pid",
          "type": "uint256"
        },
        {
          "internalType": "uint256",
          "name": "_amount",
          "type": "uint256"
        }
      ],
      "name": "deposit",
      "outputs": [],
      "stateMutability": "nonpayable",
      "type": "function"
    },
    {
      "inputs": [
        {
          "internalType": "uint256",
          "name": "_pid",
          "type": "uint256"
        },
        {
          "internalType": "uint256",
          "name": "_amount",
          "type": "uint256"
        }
      ],
      "name": "withdraw",
      "outputs": [],
      "stateMutability": "nonpayable",
      "type": "function"
    },
    {
      "inputs": [
        {
          "internalType": "uint256",
          "name": "_pid",
          "type": "uint256"
        }
      ],
      "name": "emergencyWithdraw",
      "outputs": [],
      "stateMutability": "nonpayable",
      "type": "function"
    },
    {
      "inputs": [
        {
          "internalType": "uint256",
          "name": "_pid",
          "type": "uint256"
        }
      ],
      "name": "getPoolInfo",
      "outputs": [
        {
          "internalType": "address",
          "name": "lpToken",
          "type": "address"
        },
        {
          "internalType": "uint256",
          "name": "allocPoint",
          "type": "uint256"
        },
        {
          "internalType": "uint256",
          "name": "lastRewardBlock",
          "type": "uint256"
        },
        {
          "internalType": "uint256",
          "name": "accNovaPerShare",
          "type": "uint256"
        },
        {
          "internalType": "uint256",
          "name": "depositFeeBP",
          "type": "uint256"
        },
        {
          "internalType": "bool",
          "name": "isSNovaRewards",
          "type": "bool"
        }
      ],
      "stateMutability": "view",
      "type": "function",
      "constant": true
    },
    {
      "inputs": [
        {
          "internalType": "address",
          "name": "_devaddr",
          "type": "address"
        }
      ],
      "name": "dev",
      "outputs": [],
      "stateMutability": "nonpayable",
      "type": "function"
    },
    {
      "inputs": [
        {
          "internalType": "address",
          "name": "_feeAddress",
          "type": "address"
        }
      ],
      "name": "setFeeAddress",
      "outputs": [],
      "stateMutability": "nonpayable",
      "type": "function"
    },
    {
      "inputs": [
        {
          "internalType": "uint256",
          "name": "_minimumEmissionRate",
          "type": "uint256"
        }
      ],
      "name": "updateMinimumEmissionRate",
      "outputs": [],
      "stateMutability": "nonpayable",
      "type": "function"
    }
  ],
  "bytecode": "0x610100604052600060098190556706f05b59d3b20000600a5561384060c05260c860e052600b5534801561003257600080fd5b5060405162002be538038062002be5833981810160405260e081101561005757600080fd5b508051602082015160408301516060840151608085015160a086015160c0909601519495939492939192909190600061008e6102d5565b600080546001600160a01b0319166001600160a01b0383169081178255604051929350917f8be0079c531659141344cd1fd0a4f28419497f9722a3daafe3b4186f6b6457e0908290a35060008054600160a01b60ff60a01b19909116178155600280546001600160a01b03199081166001600160a01b039a8b16908117909255600380548216998b1699909917909855600180548916978a16979097178755600480548916968a1696909617909555600680548816948916949094179093556005829055608081815260a09283526040805160e081018252958652602086018581526103209187018281526060880194855292870186815294870186815260c08801878152600780549a8b0181559788905297517fa66cc928b5edb82af9bd49922954155ab7b0942694bea4ce44661d9a8736c688999097029889018054909a1696909a169590951790975592517fa66cc928b5edb82af9bd49922954155ab7b0942694bea4ce44661d9a8736c68986015591517fa66cc928b5edb82af9bd49922954155ab7b0942694bea4ce44661d9a8736c68a85015590517fa66cc928b5edb82af9bd49922954155ab7b0942694bea4ce44661d9a8736c68b840155517fa66cc928b5edb82af9bd49922954155ab7b0942694bea4ce44661d9a8736c68c83015592517fa66cc928b5edb82af9bd49922954155ab7b0942694bea4ce44661d9a8736c68d82015591517fa66cc928b5edb82af9bd49922954155ab7b0942694bea4ce44661d9a8736c68e909201805460ff1916921515929092179091556009556102d9565b3390565b60805160a05160c05160e0516128a96200033c600039806107f15280612242525080611b595280611c0c52806121cd525080610824525080610af2528061142f52806114565280611b7e5280612160528061218952806121f252506128a96000f3fe608060405234801561001057600080fd5b50600436106102065760003560e01c8063715018a61161011a578063988d7a60116100ad578063e2bbb1581161007c578063e2bbb1581461057b578063e401f4391461059e578063ef0e4925146105a6578063f2fde38b146105c3578063fb9788cb146105e957610206565b8063988d7a6014610505578063c60dc8e01461053f578063c673fa3714610547578063d49e77cd1461057357610206565b80638da5cb5b116100e95780638da5cb5b1461045e5780638dbb1e3a1461046657806393f1a40b1461048957806395575eef146104d357610206565b8063715018a6146103d95780638705fcd4146103e15780638862445a146104075780638d88a90e1461043857610206565b80633ea69dd71161019d57806348cd4cb11161016c57806348cd4cb11461038757806351eb05a61461038f5780635312ea8e146103ac578063630b5ba1146103c95780636a9a7660146103d157610206565b80633ea69dd71461034a578063412753581461035257806341b1cf151461035a578063441a3e701461036257610206565b80631bb63d0c116101d95780631bb63d0c146102ba5780632ce39db1146102de5780632f380b35146102e65780633215ad4a1461034257610206565b8063081e3eda1461020b5780630a130c72146102255780631526fe271461025157806317caf6f1146102b2575b600080fd5b6102136105f1565b60408051918252519081900360200190f35b6102136004803603604081101561023b57600080fd5b50803590602001356001600160a01b03166105f7565b61026e6004803603602081101561026757600080fd5b5035610684565b604080516001600160a01b0390981688526020880196909652868601949094526060860192909252608085015260a0840152151560c0830152519081900360e00190f35b6102136106dd565b6102c26106e3565b604080516001600160a01b039092168252519081900360200190f35b6102c26106f2565b610303600480360360208110156102fc57600080fd5b5035610701565b604080516001600160a01b03909716875260208701959095528585019390935260608501919091526080840152151560a0830152519081900360c00190f35b6102136107e9565b6102136107ef565b6102c2610813565b610213610822565b6103856004803603604081101561037857600080fd5b5080359060200135610846565b005b610213610af0565b610385600480360360208110156103a557600080fd5b5035610b14565b610385600480360360208110156103c257600080fd5b5035610d9b565b610385610e59565b610213610e78565b610385610e7e565b610385600480360360208110156103f757600080fd5b50356001600160a01b0316610f20565b6103856004803603608081101561041d57600080fd5b50803590602081013590604081013590606001351515610f9a565b6103856004803603602081101561044e57600080fd5b50356001600160a01b03166110ff565b6102c261116c565b6102136004803603604081101561047c57600080fd5b508035906020013561117b565b6104b56004803603604081101561049f57600080fd5b50803590602001356001600160a01b031661118e565b60408051938452602084019290925282820152519081900360600190f35b610385600480360360608110156104e957600080fd5b506001600160a01b0381351690602081013590604001356111ba565b6103856004803603608081101561051b57600080fd5b508035906001600160a01b036020820135169060408101359060600135151561138a565b6102c2611615565b6102136004803603604081101561055d57600080fd5b50803590602001356001600160a01b0316611624565b6102c261173c565b6103856004803603604081101561059157600080fd5b508035906020013561174b565b610213611aa1565b610385600480360360208110156105bc57600080fd5b5035611aa7565b610385600480360360208110156105d957600080fd5b50356001600160a01b0316611ba9565b610213611c0a565b60075490565b60015460408051636bb6b92760e11b81526001600160a01b038481166004830152602482018690529151600093929092169163d76d724e91604480820192602092909190829003018186803b15801561064f57600080fd5b505afa158015610663573d6000803e3d6000fd5b505050506040513d602081101561067957600080fd5b505190505b92915050565b6007818154811061069157fe5b600091825260209091206007909102018054600182015460028301546003840154600485015460058601546006909601546001600160a01b039095169650929491939092919060ff1687565b60095481565b6002546001600160a01b031681565b6003546001600160a01b031681565b6000806000806000806007878154811061071757fe5b600091825260209091206007918202015481546001600160a01b0390911691908990811061074157fe5b9060005260206000209060070201600201546007898154811061076057fe5b90600052602060002090600702016003015460078a8154811061077f57fe5b90600052602060002090600702016004015460078b8154811061079e57fe5b90600052602060002090600702016005015460078c815481106107bd57fe5b6000918252602090912060079091020160060154949c939b509199509750955060ff9091169350915050565b60055481565b7f000000000000000000000000000000000000000000000000000000000000000081565b6006546001600160a01b031681565b7f000000000000000000000000000000000000000000000000000000000000000081565b6007548290811061089b576040805162461bcd60e51b815260206004820152601a60248201527976616c6964617465506f6f6c3a20706f6f6c206578697374733f60301b604482015290519081900360640190fd5b600054600160a01b900460ff166108f9576040805162461bcd60e51b815260206004820152601f60248201527f5265656e7472616e637947756172643a207265656e7472616e742063616c6c00604482015290519081900360640190fd5b6000805460ff60a01b19168155600780548590811061091457fe5b600091825260208083208784526008825260408085203386529092529220805460079092029092019250841115610987576040805162461bcd60e51b81526020600482015260126024820152711dda5d1a191c985dce881b9bdd0819dbdbd960721b604482015290519081900360640190fd5b61099085610b14565b60006109ca82600201546109c464e8d4a510006109be87600401548760010154611c2e90919063ffffffff16565b90611c87565b90611cc9565b905080156109f857600683015460ff16156109ee576109e93382611d0b565b6109f8565b6109f83382611ede565b8415610a75578154610a0a9086611cc9565b82556000610a326127106109be610a2b82610a258c336105f7565b906120ab565b8990611c2e565b6001840154909150610a449082611cc9565b60018401558354610a5f906001600160a01b03163388612105565b6001840154610a6e9082611cc9565b6001850155505b610a9964e8d4a510006109be85600401548560010154611c2e90919063ffffffff16565b6002830155604080518681529051879133917ff279e6a1f5e320cca91135676d9cb6e44ca8a08c0b88342bcdb1144f6511b5689181900360200190a350506000805460ff60a01b1916600160a01b17905550505050565b7f000000000000000000000000000000000000000000000000000000000000000081565b60075481908110610b69576040805162461bcd60e51b815260206004820152601a60248201527976616c6964617465506f6f6c3a20706f6f6c206578697374733f60301b604482015290519081900360640190fd5b610b7161215c565b600060078381548110610b8057fe5b9060005260206000209060070201905080600301544311610ba15750610d97565b600181015480610bb8575043600390910155610d97565b6000610bc883600301544361117b565b90506000610bf56009546109be8660020154610bef60055487611c2e90919063ffffffff16565b90611c2e565b90506000610c0482600a611c87565b60025460048054604080516340c10f1960e01b81526001600160a01b03928316938101939093526024830185905251939450909116916340c10f199160448082019260009290919082900301818387803b158015610c6157600080fd5b505af1158015610c75573d6000803e3d6000fd5b50505050600685015460ff1615610cf657600354604080516340c10f1960e01b81523060048201526024810185905290516001600160a01b03909216916340c10f199160448082019260009290919082900301818387803b158015610cd957600080fd5b505af1158015610ced573d6000803e3d6000fd5b50505050610d62565b600254604080516340c10f1960e01b81523060048201526024810185905290516001600160a01b03909216916340c10f199160448082019260009290919082900301818387803b158015610d4957600080fd5b505af1158015610d5d573d6000803e3d6000fd5b505050505b610d83610d78856109be8564e8d4a51000611c2e565b6004870154906120ab565b600486015550504360039093019290925550505b5050565b600060078281548110610daa57fe5b600091825260208083208584526008825260408085203386529092529220805460018083015460079094029094019384015493945090929091610ded9190611cc9565b600180850191909155600080845560028401819055908301558254610e1c906001600160a01b03163383612105565b604080518281529051859133917fbb757047c2b5f3974fe26b7c10f732e7bce710b0952a71082702781e62ae05959181900360200190a350505050565b60075460005b81811015610d9757610e7081610b14565b600101610e5f565b600b5481565b610e866122ed565b6000546001600160a01b03908116911614610ed6576040805162461bcd60e51b81526020600482018190526024820152600080516020612832833981519152604482015290519081900360640190fd5b600080546040516001600160a01b03909116907f8be0079c531659141344cd1fd0a4f28419497f9722a3daafe3b4186f6b6457e0908390a3600080546001600160a01b0319169055565b610f286122ed565b6000546001600160a01b03908116911614610f78576040805162461bcd60e51b81526020600482018190526024820152600080516020612832833981519152604482015290519081900360640190fd5b600680546001600160a01b0319166001600160a01b0392909216919091179055565b610fa26122ed565b6000546001600160a01b03908116911614610ff2576040805162461bcd60e51b81526020600482018190526024820152600080516020612832833981519152604482015290519081900360640190fd5b6101908211156110335760405162461bcd60e51b815260040180806020018281038252602581526020018061280d6025913960400191505060405180910390fd5b61103b610e59565b60006007858154811061104a57fe5b9060005260206000209060070201600201549050836007868154811061106c57fe5b906000526020600020906007020160020181905550826007868154811061108f57fe5b90600052602060002090600702016005018190555081600786815481106110b257fe5b60009182526020909120600790910201600601805460ff19169115159190911790558381146110f8576110f484610a2583600954611cc990919063ffffffff16565b6009555b5050505050565b6004546001600160a01b0316331461114a576040805162461bcd60e51b81526020600482015260096024820152686465763a207775743f60b81b604482015290519081900360640190fd5b600480546001600160a01b0319166001600160a01b0392909216919091179055565b6000546001600160a01b031690565b60006111878284611cc9565b9392505050565b600860209081526000928352604080842090915290825290208054600182015460029092015490919083565b6007548290811061120f576040805162461bcd60e51b815260206004820152601a60248201527976616c6964617465506f6f6c3a20706f6f6c206578697374733f60301b604482015290519081900360640190fd5b6001546001600160a01b0316331461125c576040805162461bcd60e51b81526020600482018190526024820152600080516020612832833981519152604482015290519081900360640190fd5b60006007848154811061126b57fe5b600091825260208083208784526008825260408085206001600160a01b038b1686529092529220600790910290910191506112a585610b14565b80541561130a5760006112da82600201546109c464e8d4a510006109be87600401548760010154611c2e90919063ffffffff16565b9050801561130857600683015460ff16156112fe576112f98782611d0b565b611308565b6113088782611ede565b505b6001808201549083015461131d91611cc9565b600183015561133d6127106109be61133587836120ab565b845490611c2e565b6001808301829055830154611351916120ab565b826001018190555061137d64e8d4a510006109be84600401548460010154611c2e90919063ffffffff16565b6002909101555050505050565b6113926122ed565b6000546001600160a01b039081169116146113e2576040805162461bcd60e51b81526020600482018190526024820152600080516020612832833981519152604482015290519081900360640190fd5b6101908211156114235760405162461bcd60e51b81526004018080602001828103825260258152602001806127566025913960400191505060405180910390fd5b61142b610e59565b60007f0000000000000000000000000000000000000000000000000000000000000000431161147a577f000000000000000000000000000000000000000000000000000000000000000061147c565b435b60095490915061148c90866120ab565b6009556040805160e0810182526001600160a01b039586168152600060208201818152928201978852606082019384526080820181815260a0830196875294151560c08301908152600780546001810182559281905292517fa66cc928b5edb82af9bd49922954155ab7b0942694bea4ce44661d9a8736c6889290930291820180546001600160a01b031916939098169290921790965590517fa66cc928b5edb82af9bd49922954155ab7b0942694bea4ce44661d9a8736c68986015594517fa66cc928b5edb82af9bd49922954155ab7b0942694bea4ce44661d9a8736c68a850155517fa66cc928b5edb82af9bd49922954155ab7b0942694bea4ce44661d9a8736c68b840155517fa66cc928b5edb82af9bd49922954155ab7b0942694bea4ce44661d9a8736c68c830155517fa66cc928b5edb82af9bd49922954155ab7b0942694bea4ce44661d9a8736c68d82015590517fa66cc928b5edb82af9bd49922954155ab7b0942694bea4ce44661d9a8736c68e909101805460ff1916911515919091179055565b6001546001600160a01b031681565b6000806007848154811061163457fe5b600091825260208083208784526008825260408085206001600160a01b0389168652909252922060046007909202909201908101546001820154600383015492945090914311801561168557508015155b156116e557600061169a85600301544361117b565b905060006116c16009546109be8860020154610bef60055487611c2e90919063ffffffff16565b90506116e06116d9846109be8464e8d4a51000611c2e565b85906120ab565b935050505b600061170f84600201546109c464e8d4a510006109be878960010154611c2e90919063ffffffff16565b600686015490915060ff166117315761172e60646109be836062611c2e565b90505b979650505050505050565b6004546001600160a01b031681565b600754829081106117a0576040805162461bcd60e51b815260206004820152601a60248201527976616c6964617465506f6f6c3a20706f6f6c206578697374733f60301b604482015290519081900360640190fd5b600054600160a01b900460ff166117fe576040805162461bcd60e51b815260206004820152601f60248201527f5265656e7472616e637947756172643a207265656e7472616e742063616c6c00604482015290519081900360640190fd5b6000805460ff60a01b1916815560078054339291908690811061181d57fe5b600091825260208083208884526008825260408085206001600160a01b038816865290925292206007909102909101915061185786610b14565b8054156118bc57600061188c82600201546109c464e8d4a510006109be87600401548760010154611c2e90919063ffffffff16565b905080156118ba57600683015460ff16156118b0576118ab8482611d0b565b6118ba565b6118ba8482611ede565b505b8415611a1d5781546118d9906001600160a01b03168430886122f1565b60025482546001600160a01b039081169116141561191357600061190360646109be886002611c2e565b905061190f8682611cc9565b9550505b6005820154156119c757600061193c6127106109be856005015489611c2e90919063ffffffff16565b600654845491925061195b916001600160a01b03908116911683612105565b815461196d9082906109c490896120ab565b825560006119926127106109be61198882610a258d8b6105f7565b610bef8b87611cc9565b60018401549091506119a490826120ab565b6001808501919091558401546119ba90826120ab565b600185015550611a1d9050565b80546119d390866120ab565b815560006119ee6127106109be610a2b82610a258c8a6105f7565b6001830154909150611a0090826120ab565b600180840191909155830154611a1690826120ab565b6001840155505b611a4164e8d4a510006109be84600401548460010154611c2e90919063ffffffff16565b600282015560408051868152905187916001600160a01b038616917f90890809c654f11d6e72a28fa60149770a0d11ec6c92319d6ceb2bb0a4ea1a159181900360200190a350506000805460ff60a01b1916600160a01b17905550505050565b600a5481565b611aaf6122ed565b6000546001600160a01b03908116911614611aff576040805162461bcd60e51b81526020600482018190526024820152600080516020612832833981519152604482015290519081900360640190fd5b80600a5411611b45576040805162461bcd60e51b815260206004820152600d60248201526c36bab9ba103132903637bbb2b960991b604482015290519081900360640190fd5b600a819055600554811415611ba657611ba27f00000000000000000000000000000000000000000000000000000000000000006109be437f0000000000000000000000000000000000000000000000000000000000000000611cc9565b600b555b50565b611bb16122ed565b6000546001600160a01b03908116911614611c01576040805162461bcd60e51b81526020600482018190526024820152600080516020612832833981519152604482015290519081900360640190fd5b611ba68161234b565b7f000000000000000000000000000000000000000000000000000000000000000081565b600082611c3d5750600061067e565b82820282848281611c4a57fe5b04146111875760405162461bcd60e51b81526004018080602001828103825260218152602001806127ec6021913960400191505060405180910390fd5b600061118783836040518060400160405280601a81526020017f536166654d6174683a206469766973696f6e206279207a65726f0000000000008152506123eb565b600061118783836040518060400160405280601e81526020017f536166654d6174683a207375627472616374696f6e206f766572666c6f77000081525061248d565b600354604080516370a0823160e01b815230600482015290516000926001600160a01b0316916370a08231916024808301926020929190829003018186803b158015611d5657600080fd5b505afa158015611d6a573d6000803e3d6000fd5b505050506040513d6020811015611d8057600080fd5b50519050600081831115611e17576003546040805163a9059cbb60e01b81526001600160a01b038781166004830152602482018690529151919092169163a9059cbb9160448083019260209291908290030181600087803b158015611de457600080fd5b505af1158015611df8573d6000803e3d6000fd5b505050506040513d6020811015611e0e57600080fd5b50519050611e9c565b6003546040805163a9059cbb60e01b81526001600160a01b038781166004830152602482018790529151919092169163a9059cbb9160448083019260209291908290030181600087803b158015611e6d57600080fd5b505af1158015611e81573d6000803e3d6000fd5b505050506040513d6020811015611e9757600080fd5b505190505b80611ed85760405162461bcd60e51b81526004018080602001828103825260228152602001806128526022913960400191505060405180910390fd5b50505050565b600254604080516370a0823160e01b815230600482015290516000926001600160a01b0316916370a08231916024808301926020929190829003018186803b158015611f2957600080fd5b505afa158015611f3d573d6000803e3d6000fd5b505050506040513d6020811015611f5357600080fd5b50519050600081831115611fea576002546040805163a9059cbb60e01b81526001600160a01b038781166004830152602482018690529151919092169163a9059cbb9160448083019260209291908290030181600087803b158015611fb757600080fd5b505af1158015611fcb573d6000803e3d6000fd5b505050506040513d6020811015611fe157600080fd5b5051905061206f565b6002546040805163a9059cbb60e01b81526001600160a01b038781166004830152602482018790529151919092169163a9059cbb9160448083019260209291908290030181600087803b15801561204057600080fd5b505af1158015612054573d6000803e3d6000fd5b505050506040513d602081101561206a57600080fd5b505190505b80611ed85760405162461bcd60e51b81526004018080602001828103825260218152602001806127cb6021913960400191505060405180910390fd5b600082820183811015611187576040805162461bcd60e51b815260206004820152601b60248201527f536166654d6174683a206164646974696f6e206f766572666c6f770000000000604482015290519081900360640190fd5b604080516001600160a01b038416602482015260448082018490528251808303909101815260649091019091526020810180516001600160e01b031663a9059cbb60e01b1790526121579084906124e7565b505050565b60007f00000000000000000000000000000000000000000000000000000000000000001180156121ac57507f00000000000000000000000000000000000000000000000000000000000000004311155b156121b6576122eb565b600a54600554116121c6576122eb565b60006122167f00000000000000000000000000000000000000000000000000000000000000006109be437f0000000000000000000000000000000000000000000000000000000000000000611cc9565b9050600b54811161222757506122eb565b600554600b545b82811015612272576122686127106109be847f00000000000000000000000000000000000000000000000000000000000000008303611c2e565b915060010161222e565b50600a5481106122825780612286565b600a545b905060055481106122985750506122eb565b6122a0610e59565b600b82905560058054908290556040805182815260208101849052815133927feedc6338c9c1ad8f3cd6c90dd09dbe98dbd57e610d3e59a17996d07acb0d9511928290030190a25050505b565b3390565b604080516001600160a01b0380861660248301528416604482015260648082018490528251808303909101815260849091019091526020810180516001600160e01b03166323b872dd60e01b179052611ed89085906124e7565b6001600160a01b0381166123905760405162461bcd60e51b81526004018080602001828103825260268152602001806127a56026913960400191505060405180910390fd5b600080546040516001600160a01b03808516939216917f8be0079c531659141344cd1fd0a4f28419497f9722a3daafe3b4186f6b6457e091a3600080546001600160a01b0319166001600160a01b0392909216919091179055565b600081836124775760405162461bcd60e51b81526004018080602001828103825283818151815260200191508051906020019080838360005b8381101561243c578181015183820152602001612424565b50505050905090810190601f1680156124695780820380516001836020036101000a031916815260200191505b509250505060405180910390fd5b50600083858161248357fe5b0495945050505050565b600081848411156124df5760405162461bcd60e51b815260206004820181815283516024840152835190928392604490910191908501908083836000831561243c578181015183820152602001612424565b505050900390565b606061253c826040518060400160405280602081526020017f5361666542455032303a206c6f772d6c6576656c2063616c6c206661696c6564815250856001600160a01b03166125989092919063ffffffff16565b8051909150156121575780806020019051602081101561255b57600080fd5b50516121575760405162461bcd60e51b815260040180806020018281038252602a81526020018061277b602a913960400191505060405180910390fd5b60606125a784846000856125af565b949350505050565b60606125ba8561271c565b61260b576040805162461bcd60e51b815260206004820152601d60248201527f416464726573733a2063616c6c20746f206e6f6e2d636f6e7472616374000000604482015290519081900360640190fd5b60006060866001600160a01b031685876040518082805190602001908083835b6020831061264a5780518252601f19909201916020918201910161262b565b6001836020036101000a03801982511681845116808217855250505050505090500191505060006040518083038185875af1925050503d80600081146126ac576040519150601f19603f3d011682016040523d82523d6000602084013e6126b1565b606091505b509150915081156126c55791506125a79050565b8051156126d55780518082602001fd5b60405162461bcd60e51b815260206004820181815286516024840152865187939192839260440191908501908083836000831561243c578181015183820152602001612424565b6000813f7fc5d2460186f7233c927e7db2dcc703c0e500b653ca82273b7bfad8045d85a4708181148015906125a757505015159291505056fe6164643a20696e76616c6964206465706f7369742066656520626173697320706f696e74735361666542455032303a204245503230206f7065726174696f6e20646964206e6f7420737563636565644f776e61626c653a206e6577206f776e657220697320746865207a65726f2061646472657373736166654e6f76615472616e736665723a205472616e73666572206661696c6564536166654d6174683a206d756c7469706c69636174696f6e206f766572666c6f777365743a20696e76616c6964206465706f7369742066656520626173697320706f696e74734f776e61626c653a2063616c6c6572206973206e6f7420746865206f776e657273616665534e6f76615472616e736665723a205472616e73666572206661696c6564a264697066735822122013fe9e01b646621d2fcfd63f38202ecda87b6bedeed160273c3dc524244d015064736f6c634300060c0033",
  "immutableReferences": {
    "530": [
      {
        "length": 32,
        "start": 2802
      },
      {
        "length": 32,
        "start": 5167
      },
      {
        "length": 32,
        "start": 5206
      },
      {
        "length": 32,
        "start": 7038
      },
      {
        "length": 32,
        "start": 8544
      },
      {
        "length": 32,
        "start": 8585
      },
      {
        "length": 32,
        "start": 8690
      }
    ],
    "532": [
      {
        "length": 32,
        "start": 2084
      }
    ],
    "538": [
      {
        "length": 32,
        "start": 7001
      },
      {
        "length": 32,
        "start": 7180
      },
      {
        "length": 32,
        "start": 8653
      }
    ],
    "541": [
      {
        "length": 32,
        "start": 2033
      },
      {
        "length": 32,
        "start": 8770
      }
    ]
  },
  "source": "// SPDX-License-Identifier: MIT\r\npragma solidity 0.6.12;\r\n\r\nimport \"./libs/SafeMath.sol\";\r\nimport \"./libs/IBEP20.sol\";\r\nimport \"./libs/SafeBEP20.sol\";\r\nimport \"./libs/Ownable.sol\";\r\nimport \"./libs/ReentrancyGuard.sol\";\r\nimport \"./ShibaBonusAggregator.sol\";\r\nimport \"./libs/ShibaBEP20.sol\";\r\n\r\n// MasterShiba is the master of Nova and sNova.\r\n// The Ownership of this contract is going to be transferred to a timelock\r\ncontract MasterShiba is Ownable, IMasterBonus, ReentrancyGuard {\r\n    using SafeMath for uint256;\r\n    using SafeBEP20 for ShibaBEP20;\r\n    using SafeBEP20 for IBEP20;\r\n\r\n    // Info of each user.\r\n    struct UserInfo {\r\n        uint256 amount;     // How many LP tokens the user has provided.\r\n        uint256 amountWithBonus;\r\n        uint256 rewardDebt; // Reward debt. See explanation below.\r\n        //\r\n        // We do some fancy math here. Basically, any point in time, the amount of Novas\r\n        // entitled to a user but is pending to be distributed is:\r\n        //\r\n        //   pending reward = (user.amount * pool.accNovaPerShare) - user.rewardDebt\r\n        //\r\n        // Whenever a user deposits or withdraws LP tokens to a pool. Here's what happens:\r\n        //   1. The pool's `accNovaPerShare` (and `lastRewardBlock`) gets updated.\r\n        //   2. User receives the pending reward sent to his/her address.\r\n        //   3. User's `amount` gets updated.\r\n        //   4. User's `rewardDebt` gets updated.\r\n    }\r\n\r\n    // Info of each pool.\r\n    struct PoolInfo {\r\n        IBEP20 lpToken;           // Address of LP token contract.\r\n        uint256 lpSupply;\r\n        uint256 allocPoint;       // How many allocation points assigned to this pool. Novas to distribute per block.\r\n        uint256 lastRewardBlock;  // Last block number that Novas distribution occurs.\r\n        uint256 accNovaPerShare; // Accumulated Novas per share, times 1e12. See below.\r\n        uint256 depositFeeBP;     // deposit Fee\r\n        bool isSNovaRewards;\r\n    }\r\n\r\n    ShibaBonusAggregator public bonusAggregator;\r\n    // The Nova TOKEN!\r\n    ShibaBEP20 public Nova;\r\n    // The SNova TOKEN!\r\n    ShibaBEP20 public sNova;\r\n    // Dev address.\r\n    address public devaddr;\r\n    // Nova tokens created per block.\r\n    uint256 public NovaPerBlock;\r\n    // Deposit Fee address\r\n    address public feeAddress;\r\n\r\n    // Info of each pool.\r\n    PoolInfo[] public poolInfo;\r\n    // Info of each user that stakes LP tokens.\r\n    mapping (uint256 => mapping (address => UserInfo)) public userInfo;\r\n    // Total allocation points. Must be the sum of all allocation points in all pools.\r\n    uint256 public totalAllocPoint = 0;\r\n    // The block number when Nova mining starts.\r\n    uint256 public immutable startBlock;\r\n\r\n    // Initial emission rate: 1 Nova per block.\r\n    uint256 public immutable initialEmissionRate;\r\n    // Minimum emission rate: 0.5 Nova per block.\r\n    uint256 public minimumEmissionRate = 500 finney;\r\n    // Reduce emission every 14400 blocks ~ 12 hours.\r\n    uint256 public immutable emissionReductionPeriodBlocks = 14400;\r\n    // Emission reduction rate per period in basis points: 2%.\r\n    uint256 public immutable emissionReductionRatePerPeriod = 200;\r\n    // Last reduction period index\r\n    uint256 public lastReductionPeriodIndex = 0;\r\n\r\n    event Deposit(address indexed user, uint256 indexed pid, uint256 amount);\r\n    event Withdraw(address indexed user, uint256 indexed pid, uint256 amount);\r\n    event EmergencyWithdraw(address indexed user, uint256 indexed pid, uint256 amount);\r\n    event EmissionRateUpdated(address indexed caller, uint256 previousAmount, uint256 newAmount);\r\n\r\n    constructor(\r\n        ShibaBEP20 _Nova,\r\n        ShibaBEP20 _sNova,\r\n        ShibaBonusAggregator _bonusAggregator,\r\n        address _devaddr,\r\n        address _feeAddress,\r\n        uint256 _NovaPerBlock,\r\n        uint256 _startBlock\r\n    ) public {\r\n        Nova = _Nova;\r\n        sNova = _sNova;\r\n        bonusAggregator = _bonusAggregator;\r\n        devaddr = _devaddr;\r\n        feeAddress = _feeAddress;\r\n        NovaPerBlock = _NovaPerBlock;\r\n        startBlock = _startBlock;\r\n        initialEmissionRate = _NovaPerBlock;\r\n\r\n        // staking pool\r\n        poolInfo.push(PoolInfo({\r\n            lpToken: _Nova,\r\n            lpSupply: 0,\r\n            allocPoint: 800,\r\n            lastRewardBlock: _startBlock,\r\n            accNovaPerShare: 0,\r\n            depositFeeBP: 0,\r\n            isSNovaRewards: false\r\n        }));\r\n        totalAllocPoint = 800;\r\n    }\r\n\r\n    modifier validatePool(uint256 _pid) {\r\n        require(_pid < poolInfo.length, \"validatePool: pool exists?\");\r\n        _;\r\n    }\r\n\r\n    modifier onlyAggregator() {\r\n        require(msg.sender == address(bonusAggregator), \"Ownable: caller is not the owner\");\r\n        _;\r\n    }\r\n\r\n    function poolLength() external view returns (uint256) {\r\n        return poolInfo.length;\r\n    }\r\n\r\n    function userBonus(uint256 _pid, address _user) public view returns (uint256){\r\n        return bonusAggregator.getBonusOnFarmsForUser(_user, _pid);\r\n    }\r\n\r\n    // Return reward multiplier over the given _from to _to block.\r\n    function getMultiplier(uint256 _from, uint256 _to) public pure returns (uint256) {\r\n        return _to.sub(_from);\r\n    }\r\n\r\n    // Add a new lp to the pool. Can only be called by the owner.\r\n    function add(uint256 _allocPoint, IBEP20 _lpToken, uint256 _depositFeeBP, bool _isSNovaRewards) external onlyOwner {\r\n        require(_depositFeeBP <= 400, \"add: invalid deposit fee basis points\");\r\n        massUpdatePools();\r\n        \r\n        uint256 lastRewardBlock = block.number > startBlock ? block.number : startBlock;\r\n        totalAllocPoint = totalAllocPoint.add(_allocPoint);\r\n        poolInfo.push(PoolInfo({\r\n            lpToken: _lpToken,\r\n            lpSupply: 0,\r\n            allocPoint: _allocPoint,\r\n            lastRewardBlock: lastRewardBlock,\r\n            accNovaPerShare: 0,\r\n            depositFeeBP : _depositFeeBP,\r\n            isSNovaRewards: _isSNovaRewards\r\n        }));\r\n    }\r\n\r\n    // Update the given pool's Nova allocation point. Can only be called by the owner.\r\n    function set(uint256 _pid, uint256 _allocPoint, uint256 _depositFeeBP, bool _isSNovaRewards) external onlyOwner {\r\n        require(_depositFeeBP <= 400, \"set: invalid deposit fee basis points\");\r\n        massUpdatePools();\r\n        \r\n        uint256 prevAllocPoint = poolInfo[_pid].allocPoint;\r\n        poolInfo[_pid].allocPoint = _allocPoint;\r\n        poolInfo[_pid].depositFeeBP = _depositFeeBP;\r\n        poolInfo[_pid].isSNovaRewards = _isSNovaRewards;\r\n        if (prevAllocPoint != _allocPoint) {\r\n            totalAllocPoint = totalAllocPoint.sub(prevAllocPoint).add(_allocPoint);\r\n        }\r\n    }\r\n\r\n    // View function to see pending Novas on frontend.\r\n    function pendingNova(uint256 _pid, address _user) external view returns (uint256) {\r\n        PoolInfo storage pool = poolInfo[_pid];\r\n        UserInfo storage user = userInfo[_pid][_user];\r\n        uint256 accNovaPerShare = pool.accNovaPerShare;\r\n        uint256 lpSupply = pool.lpSupply;\r\n        if (block.number > pool.lastRewardBlock && lpSupply != 0) {\r\n            uint256 multiplier = getMultiplier(pool.lastRewardBlock, block.number);\r\n            uint256 NovaReward = multiplier.mul(NovaPerBlock).mul(pool.allocPoint).div(totalAllocPoint);\r\n            accNovaPerShare = accNovaPerShare.add(NovaReward.mul(1e12).div(lpSupply));\r\n        }\r\n        uint256 userRewards = user.amountWithBonus.mul(accNovaPerShare).div(1e12).sub(user.rewardDebt);\r\n        if(!pool.isSNovaRewards){\r\n            // taking account of the 2% auto-burn\r\n            userRewards = userRewards.mul(98).div(100);\r\n        }\r\n        return userRewards; // taking account of the 2% auto burn on Nova\r\n    }\r\n\r\n    // Reduce emission rate based on configurations\r\n    function updateEmissionRate() internal {\r\n        if(startBlock > 0 && block.number <= startBlock){\r\n            return;\r\n        }\r\n        if(NovaPerBlock <= minimumEmissionRate){\r\n            return;\r\n        }\r\n\r\n        uint256 currentIndex = block.number.sub(startBlock).div(emissionReductionPeriodBlocks);\r\n        if (currentIndex <= lastReductionPeriodIndex) {\r\n            return;\r\n        }\r\n\r\n        uint256 newEmissionRate = NovaPerBlock;\r\n        for (uint256 index = lastReductionPeriodIndex; index < currentIndex; ++index) {\r\n            newEmissionRate = newEmissionRate.mul(1e4 - emissionReductionRatePerPeriod).div(1e4);\r\n        }\r\n\r\n        newEmissionRate = newEmissionRate < minimumEmissionRate ? minimumEmissionRate : newEmissionRate;\r\n        if (newEmissionRate >= NovaPerBlock) {\r\n            return;\r\n        }\r\n        massUpdatePools();\r\n        lastReductionPeriodIndex = currentIndex;\r\n        uint256 previousEmissionRate = NovaPerBlock;\r\n        NovaPerBlock = newEmissionRate;\r\n        emit EmissionRateUpdated(msg.sender, previousEmissionRate, newEmissionRate);\r\n    }\r\n\r\n    // Update reward variables for all pools. Be careful of gas spending!\r\n    function massUpdatePools() public {\r\n        uint256 length = poolInfo.length;\r\n        for (uint256 pid = 0; pid < length; ++pid) {\r\n            updatePool(pid);\r\n        }\r\n    }\r\n\r\n    // Update reward variables of the given pool to be up-to-date.\r\n    function updatePool(uint256 _pid) public validatePool(_pid) {\r\n        updateEmissionRate();\r\n        PoolInfo storage pool = poolInfo[_pid];\r\n        if (block.number <= pool.lastRewardBlock) {\r\n            return;\r\n        }\r\n        uint256 lpSupply = pool.lpSupply;\r\n        if (lpSupply == 0) {\r\n            pool.lastRewardBlock = block.number;\r\n            return;\r\n        }\r\n        uint256 multiplier = getMultiplier(pool.lastRewardBlock, block.number);\r\n        uint256 NovaReward = multiplier.mul(NovaPerBlock).mul(pool.allocPoint).div(totalAllocPoint);\r\n        uint256 devMintAmount = NovaReward.div(10);\r\n        Nova.mint(devaddr, devMintAmount);\r\n        if (pool.isSNovaRewards){\r\n            sNova.mint(address(this), NovaReward);\r\n        }\r\n        else{\r\n            Nova.mint(address(this), NovaReward);\r\n        }\r\n        pool.accNovaPerShare = pool.accNovaPerShare.add(NovaReward.mul(1e12).div(lpSupply));\r\n        pool.lastRewardBlock = block.number;\r\n    }\r\n\r\n    // Allow ShibaBonusAggregator to add bonus on a single pool by id to a specific user\r\n    function updateUserBonus(address _user, uint256 _pid, uint256 bonus) external virtual override validatePool(_pid) onlyAggregator{\r\n        PoolInfo storage pool = poolInfo[_pid];\r\n        UserInfo storage user = userInfo[_pid][_user];\r\n        updatePool(_pid);\r\n        if (user.amount > 0) {\r\n            uint256 pending = user.amountWithBonus.mul(pool.accNovaPerShare).div(1e12).sub(user.rewardDebt);\r\n            if(pending > 0) {\r\n                if(pool.isSNovaRewards){\r\n                    safeSNovaTransfer(_user, pending);\r\n                }\r\n                else{\r\n                    safeNovaTransfer(_user, pending);\r\n                }\r\n            }\r\n        }\r\n        pool.lpSupply = pool.lpSupply.sub(user.amountWithBonus);\r\n        user.amountWithBonus =  user.amount.mul(bonus.add(10000)).div(10000);\r\n        pool.lpSupply = pool.lpSupply.add(user.amountWithBonus);\r\n        user.rewardDebt = user.amountWithBonus.mul(pool.accNovaPerShare).div(1e12);\r\n    }\r\n\r\n    // Deposit LP tokens to MasterShiba for Nova allocation.\r\n    function deposit(uint256 _pid, uint256 _amount) external validatePool(_pid) nonReentrant {\r\n        address _user = msg.sender;\r\n        PoolInfo storage pool = poolInfo[_pid];\r\n        UserInfo storage user = userInfo[_pid][_user];\r\n        updatePool(_pid);\r\n        if (user.amount > 0) {\r\n            uint256 pending = user.amountWithBonus.mul(pool.accNovaPerShare).div(1e12).sub(user.rewardDebt);\r\n            if(pending > 0) {\r\n                if(pool.isSNovaRewards){\r\n                    safeSNovaTransfer(_user, pending);\r\n                }\r\n                else{\r\n                    safeNovaTransfer(_user, pending);\r\n                }\r\n            }\r\n        }\r\n        if (_amount > 0) {\r\n            pool.lpToken.safeTransferFrom(address(_user), address(this), _amount);\r\n            if (address(pool.lpToken) == address(Nova)) {\r\n                uint256 transferTax = _amount.mul(2).div(100);\r\n                _amount = _amount.sub(transferTax);\r\n            }\r\n            if (pool.depositFeeBP > 0) {\r\n                uint256 depositFee = _amount.mul(pool.depositFeeBP).div(10000);\r\n                pool.lpToken.safeTransfer(feeAddress, depositFee);\r\n                user.amount = user.amount.add(_amount).sub(depositFee);\r\n                uint256 _bonusAmount = _amount.sub(depositFee).mul(userBonus(_pid, _user).add(10000)).div(10000);\r\n                user.amountWithBonus = user.amountWithBonus.add(_bonusAmount);\r\n                pool.lpSupply = pool.lpSupply.add(_bonusAmount);\r\n            } else {\r\n                user.amount = user.amount.add(_amount);\r\n                uint256 _bonusAmount = _amount.mul(userBonus(_pid, _user).add(10000)).div(10000);\r\n                user.amountWithBonus = user.amountWithBonus.add(_bonusAmount);\r\n                pool.lpSupply = pool.lpSupply.add(_bonusAmount);\r\n            }\r\n        }\r\n        user.rewardDebt = user.amountWithBonus.mul(pool.accNovaPerShare).div(1e12);\r\n        emit Deposit(_user, _pid, _amount);\r\n    }\r\n\r\n    // Withdraw LP tokens from MasterShiba.\r\n    function withdraw(uint256 _pid, uint256 _amount) external validatePool(_pid) nonReentrant {\r\n        PoolInfo storage pool = poolInfo[_pid];\r\n        UserInfo storage user = userInfo[_pid][msg.sender];\r\n        require(user.amount >= _amount, \"withdraw: not good\");\r\n\r\n        updatePool(_pid);\r\n        uint256 pending = user.amountWithBonus.mul(pool.accNovaPerShare).div(1e12).sub(user.rewardDebt);\r\n        if(pending > 0) {\r\n            if(pool.isSNovaRewards){\r\n                safeSNovaTransfer(msg.sender, pending);\r\n            }\r\n            else{\r\n                safeNovaTransfer(msg.sender, pending);\r\n            }\r\n        }\r\n        if(_amount > 0) {\r\n            user.amount = user.amount.sub(_amount);\r\n            uint256 _bonusAmount = _amount.mul(userBonus(_pid, msg.sender).add(10000)).div(10000);\r\n            user.amountWithBonus = user.amountWithBonus.sub(_bonusAmount);\r\n            pool.lpToken.safeTransfer(address(msg.sender), _amount);\r\n            pool.lpSupply = pool.lpSupply.sub(_bonusAmount);\r\n        }\r\n        user.rewardDebt = user.amountWithBonus.mul(pool.accNovaPerShare).div(1e12);\r\n        emit Withdraw(msg.sender, _pid, _amount);\r\n    }\r\n\r\n    // Withdraw without caring about rewards. EMERGENCY ONLY.\r\n    function emergencyWithdraw(uint256 _pid) external {\r\n        PoolInfo storage pool = poolInfo[_pid];\r\n        UserInfo storage user = userInfo[_pid][msg.sender];\r\n        uint256 amount = user.amount;\r\n        pool.lpSupply = pool.lpSupply.sub(user.amountWithBonus);\r\n        user.amount = 0;\r\n        user.rewardDebt = 0;\r\n        user.amountWithBonus = 0;\r\n        pool.lpToken.safeTransfer(address(msg.sender), amount);\r\n        emit EmergencyWithdraw(msg.sender, _pid, amount);\r\n    }\r\n\r\n    function getPoolInfo(uint256 _pid) external view\r\n    returns(address lpToken, uint256 allocPoint, uint256 lastRewardBlock,\r\n            uint256 accNovaPerShare, uint256 depositFeeBP, bool isSNovaRewards) {\r\n        return (\r\n            address(poolInfo[_pid].lpToken),\r\n            poolInfo[_pid].allocPoint,\r\n            poolInfo[_pid].lastRewardBlock,\r\n            poolInfo[_pid].accNovaPerShare,\r\n            poolInfo[_pid].depositFeeBP,\r\n            poolInfo[_pid].isSNovaRewards\r\n        );\r\n    }\r\n\r\n    // Safe Nova transfer function, just in case if rounding error causes pool to not have enough Novas.\r\n    function safeNovaTransfer(address _to, uint256 _amount) internal {\r\n        uint256 NovaBal = Nova.balanceOf(address(this));\r\n        bool transferSuccess = false;\r\n        if (_amount > NovaBal) {\r\n            transferSuccess = Nova.transfer(_to, NovaBal);\r\n        } else {\r\n            transferSuccess = Nova.transfer(_to, _amount);\r\n        }\r\n        require(transferSuccess, \"safeNovaTransfer: Transfer failed\");\r\n    }\r\n\r\n    // Safe sNova transfer function, just in case if rounding error causes pool to not have enough SNovas.\r\n    function safeSNovaTransfer(address _to, uint256 _amount) internal {\r\n        uint256 sNovaBal = sNova.balanceOf(address(this));\r\n        bool transferSuccess = false;\r\n        if (_amount > sNovaBal) {\r\n            transferSuccess = sNova.transfer(_to, sNovaBal);\r\n        } else {\r\n            transferSuccess = sNova.transfer(_to, _amount);\r\n        }\r\n        require(transferSuccess, \"safeSNovaTransfer: Transfer failed\");\r\n    }\r\n\r\n    // Update dev address by the previous dev.\r\n    function dev(address _devaddr) external {\r\n        require(msg.sender == devaddr, \"dev: wut?\");\r\n        devaddr = _devaddr;\r\n    }\r\n\r\n    function setFeeAddress(address _feeAddress) external onlyOwner {\r\n        feeAddress = _feeAddress;\r\n    }\r\n\r\n    function updateMinimumEmissionRate(uint256 _minimumEmissionRate) external onlyOwner{\r\n        require(minimumEmissionRate > _minimumEmissionRate, \"must be lower\");\r\n        minimumEmissionRate = _minimumEmissionRate;\r\n        if(NovaPerBlock == minimumEmissionRate){\r\n            lastReductionPeriodIndex = block.number.sub(startBlock).div(emissionReductionPeriodBlocks);\r\n        }\r\n    }\r\n\r\n}\r\n",
  "sourcePath": "D:/Smart Contract Test/ShroomToken/Contracts/shibanova/contracts/MasterShiba.sol",
  "compiler": {
    "name": "solc",
    "version": "0.6.12+commit.27d51765.Emscripten.clang"
  },
  "schemaVersion": "3.2.3",
  "updatedAt": "2021-07-13T17:19:42.814Z",
  "networkType": "ethereum",
  "devdoc": {
    "kind": "dev",
    "methods": {
      "owner()": {
        "details": "Returns the address of the current owner."
      },
      "renounceOwnership()": {
        "details": "Leaves the contract without owner. It will not be possible to call `onlyOwner` functions anymore. Can only be called by the current owner. NOTE: Renouncing ownership will leave the contract without an owner, thereby removing any functionality that is only available to the owner."
      },
      "transferOwnership(address)": {
        "details": "Transfers ownership of the contract to a new account (`newOwner`). Can only be called by the current owner."
      }
    },
    "version": 1
  },
  "userdoc": {
    "kind": "user",
    "methods": {},
    "version": 1
  }
}