{
  "contractName": "ShibaBonusAggregator",
  "abi": [
    {
      "anonymous": false,
      "inputs": [
        {
          "indexed": true,
          "internalType": "address",
          "name": "previousOwner",
          "type": "address"
        },
        {
          "indexed": true,
          "internalType": "address",
          "name": "newOwner",
          "type": "address"
        }
      ],
      "name": "OwnershipTransferred",
      "type": "event"
    },
    {
      "inputs": [
        {
          "internalType": "address",
          "name": "",
          "type": "address"
        }
      ],
      "name": "contractBonusSource",
      "outputs": [
        {
          "internalType": "bool",
          "name": "",
          "type": "bool"
        }
      ],
      "stateMutability": "view",
      "type": "function"
    },
    {
      "inputs": [],
      "name": "owner",
      "outputs": [
        {
          "internalType": "address",
          "name": "",
          "type": "address"
        }
      ],
      "stateMutability": "view",
      "type": "function"
    },
    {
      "inputs": [],
      "name": "renounceOwnership",
      "outputs": [],
      "stateMutability": "nonpayable",
      "type": "function"
    },
    {
      "inputs": [
        {
          "internalType": "address",
          "name": "newOwner",
          "type": "address"
        }
      ],
      "name": "transferOwnership",
      "outputs": [],
      "stateMutability": "nonpayable",
      "type": "function"
    },
    {
      "inputs": [
        {
          "internalType": "uint256",
          "name": "",
          "type": "uint256"
        },
        {
          "internalType": "address",
          "name": "",
          "type": "address"
        }
      ],
      "name": "userBonusOnFarms",
      "outputs": [
        {
          "internalType": "uint256",
          "name": "",
          "type": "uint256"
        }
      ],
      "stateMutability": "view",
      "type": "function"
    },
    {
      "inputs": [
        {
          "internalType": "contract IMasterBonus",
          "name": "_master",
          "type": "address"
        }
      ],
      "name": "setupMaster",
      "outputs": [],
      "stateMutability": "nonpayable",
      "type": "function"
    },
    {
      "inputs": [
        {
          "internalType": "address",
          "name": "_contract",
          "type": "address"
        },
        {
          "internalType": "bool",
          "name": "_add",
          "type": "bool"
        }
      ],
      "name": "addOrRemoveContractBonusSource",
      "outputs": [],
      "stateMutability": "nonpayable",
      "type": "function"
    },
    {
      "inputs": [
        {
          "internalType": "address",
          "name": "_user",
          "type": "address"
        },
        {
          "internalType": "uint256",
          "name": "_percent",
          "type": "uint256"
        },
        {
          "internalType": "uint256",
          "name": "_pid",
          "type": "uint256"
        }
      ],
      "name": "addUserBonusOnFarm",
      "outputs": [],
      "stateMutability": "nonpayable",
      "type": "function"
    },
    {
      "inputs": [
        {
          "internalType": "address",
          "name": "_user",
          "type": "address"
        },
        {
          "internalType": "uint256",
          "name": "_percent",
          "type": "uint256"
        },
        {
          "internalType": "uint256",
          "name": "_pid",
          "type": "uint256"
        }
      ],
      "name": "removeUserBonusOnFarm",
      "outputs": [],
      "stateMutability": "nonpayable",
      "type": "function"
    },
    {
      "inputs": [
        {
          "internalType": "address",
          "name": "_user",
          "type": "address"
        },
        {
          "internalType": "uint256",
          "name": "_pid",
          "type": "uint256"
        }
      ],
      "name": "getBonusOnFarmsForUser",
      "outputs": [
        {
          "internalType": "uint256",
          "name": "",
          "type": "uint256"
        }
      ],
      "stateMutability": "view",
      "type": "function"
    }
  ],
  "bytecode": "0x608060405234801561001057600080fd5b50600061001b61006a565b600080546001600160a01b0319166001600160a01b0383169081178255604051929350917f8be0079c531659141344cd1fd0a4f28419497f9722a3daafe3b4186f6b6457e0908290a35061006e565b3390565b6109b18061007d6000396000f3fe608060405234801561001057600080fd5b506004361061009e5760003560e01c8063a26fea3711610066578063a26fea3714610163578063c68f9a7714610191578063d76d724e146101cf578063de255993146101fb578063f2fde38b1461022d5761009e565b80632110dfbe146100a357806340454a18146100d75780635a15e2b9146100fd578063715018a6146101375780638da5cb5b1461013f575b600080fd5b6100d5600480360360608110156100b957600080fd5b506001600160a01b038135169060208101359060400135610253565b005b6100d5600480360360208110156100ed57600080fd5b50356001600160a01b031661037b565b6101236004803603602081101561011357600080fd5b50356001600160a01b03166103f5565b604080519115158252519081900360200190f35b6100d561040a565b6101476104ac565b604080516001600160a01b039092168252519081900360200190f35b6100d56004803603604081101561017957600080fd5b506001600160a01b03813516906020013515156104bb565b6101bd600480360360408110156101a757600080fd5b50803590602001356001600160a01b031661053e565b60408051918252519081900360200190f35b6101bd600480360360408110156101e557600080fd5b506001600160a01b03813516906020013561055b565b6100d56004803603606081101561021157600080fd5b506001600160a01b038135169060208101359060400135610582565b6100d56004803603602081101561024357600080fd5b50356001600160a01b03166106f3565b3360009081526003602052604090205460ff166102b7576040805162461bcd60e51b815260206004820152601e60248201527f63616c6c6572206973206e6f7420696e20636f6e7472616374206c6973740000604482015290519081900360640190fd5b60008181526002602090815260408083206001600160a01b03871684529091529020546102e49083610757565b60008281526002602090815260408083206001600160a01b038881168086529190935281842085905560015482516395575eef60e01b81526004810192909252602482018790526044820195909552905193909116926395575eef9260648084019391929182900301818387803b15801561035e57600080fd5b505af1158015610372573d6000803e3d6000fd5b50505050505050565b6103836107a0565b6000546001600160a01b039081169116146103d3576040805162461bcd60e51b8152602060048201819052602482015260008051602061095c833981519152604482015290519081900360640190fd5b600180546001600160a01b0319166001600160a01b0392909216919091179055565b60036020526000908152604090205460ff1681565b6104126107a0565b6000546001600160a01b03908116911614610462576040805162461bcd60e51b8152602060048201819052602482015260008051602061095c833981519152604482015290519081900360640190fd5b600080546040516001600160a01b03909116907f8be0079c531659141344cd1fd0a4f28419497f9722a3daafe3b4186f6b6457e0908390a3600080546001600160a01b0319169055565b6000546001600160a01b031690565b6104c36107a0565b6000546001600160a01b03908116911614610513576040805162461bcd60e51b8152602060048201819052602482015260008051602061095c833981519152604482015290519081900360640190fd5b6001600160a01b03919091166000908152600360205260409020805460ff1916911515919091179055565b600260209081526000928352604080842090915290825290205481565b60009081526002602090815260408083206001600160a01b03949094168352929052205490565b3360009081526003602052604090205460ff166105e6576040805162461bcd60e51b815260206004820152601e60248201527f63616c6c6572206973206e6f7420696e20636f6e7472616374206c6973740000604482015290519081900360640190fd5b60008181526002602090815260408083206001600160a01b038716845290915290205461061390836107a4565b60008281526002602090815260408083206001600160a01b038816845290915290208190556127101161067f576040805162461bcd60e51b815260206004820152600f60248201526e125b9d985b1a59081c195c98d95b9d608a1b604482015290519081900360640190fd5b60015460008281526002602090815260408083206001600160a01b03888116808652919093528184205482516395575eef60e01b81526004810192909252602482018790526044820152905191909316926395575eef92606480830193919282900301818387803b15801561035e57600080fd5b6106fb6107a0565b6000546001600160a01b0390811691161461074b576040805162461bcd60e51b8152602060048201819052602482015260008051602061095c833981519152604482015290519081900360640190fd5b610754816107fe565b50565b600061079983836040518060400160405280601e81526020017f536166654d6174683a207375627472616374696f6e206f766572666c6f77000081525061089e565b9392505050565b3390565b600082820183811015610799576040805162461bcd60e51b815260206004820152601b60248201527f536166654d6174683a206164646974696f6e206f766572666c6f770000000000604482015290519081900360640190fd5b6001600160a01b0381166108435760405162461bcd60e51b81526004018080602001828103825260268152602001806109366026913960400191505060405180910390fd5b600080546040516001600160a01b03808516939216917f8be0079c531659141344cd1fd0a4f28419497f9722a3daafe3b4186f6b6457e091a3600080546001600160a01b0319166001600160a01b0392909216919091179055565b6000818484111561092d5760405162461bcd60e51b81526004018080602001828103825283818151815260200191508051906020019080838360005b838110156108f25781810151838201526020016108da565b50505050905090810190601f16801561091f5780820380516001836020036101000a031916815260200191505b509250505060405180910390fd5b50505090039056fe4f776e61626c653a206e6577206f776e657220697320746865207a65726f20616464726573734f776e61626c653a2063616c6c6572206973206e6f7420746865206f776e6572a2646970667358221220fcd6f3e9ad0e039bad8fb1c31d4961e01744e9f5aea3a0d1d668ac63d88a87b864736f6c634300060c0033",
  "immutableReferences": {},
  "source": "// SPDX-License-Identifier: MIT\r\npragma solidity 0.6.12;\r\n\r\nimport \"./libs/SafeMath.sol\";\r\nimport \"./libs/Ownable.sol\";\r\n\r\nimport \"./interfaces/IMasterBonus.sol\";\r\nimport \"./interfaces/IBonusAggregator.sol\";\r\n\r\n/*\r\nThe purpose of this contract is to allow us adding bonus to user's reward by adding NFT contracts for example\r\nwithout updating the masterChef\r\nThe owner of this contract will be transferred to a timelock\r\n*/\r\ncontract ShibaBonusAggregator is Ownable, IBonusAggregator{\r\n    using SafeMath for uint256;\r\n\r\n    IMasterBonus master;\r\n\r\n    // pid => address => bonus percent\r\n    mapping(uint256 => mapping(address => uint256)) public userBonusOnFarms;\r\n\r\n    mapping (address => bool) public contractBonusSource;\r\n\r\n    /**\r\n     * @dev Throws if called by any account other than the verified contracts.\r\n     * Can be an NFT contract for example\r\n     */\r\n    modifier onlyVerifiedContract() {\r\n        require(contractBonusSource[msg.sender], \"caller is not in contract list\");\r\n        _;\r\n    }\r\n    \r\n    function setupMaster(IMasterBonus _master) external onlyOwner{\r\n        master = _master;\r\n    }\r\n\r\n    function addOrRemoveContractBonusSource(address _contract, bool _add) external onlyOwner{\r\n        contractBonusSource[_contract] = _add;\r\n    }\r\n\r\n    function addUserBonusOnFarm(address _user, uint256 _percent, uint256 _pid) external onlyVerifiedContract{\r\n        userBonusOnFarms[_pid][_user] = userBonusOnFarms[_pid][_user].add(_percent);\r\n        require(userBonusOnFarms[_pid][_user] < 10000, \"Invalid percent\");\r\n        master.updateUserBonus(_user, _pid, userBonusOnFarms[_pid][_user]);\r\n    }\r\n\r\n    function removeUserBonusOnFarm(address _user, uint256 _percent, uint256 _pid) external onlyVerifiedContract{\r\n        userBonusOnFarms[_pid][_user] = userBonusOnFarms[_pid][_user].sub(_percent);\r\n        master.updateUserBonus(_user, _pid, userBonusOnFarms[_pid][_user]);\r\n    }\r\n\r\n    function getBonusOnFarmsForUser(address _user, uint256 _pid) external virtual override view returns (uint256){\r\n        return userBonusOnFarms[_pid][_user];\r\n    }\r\n\r\n}\r\n",
  "sourcePath": "D:/DeployShiba/shibanova/contracts/ShibaBonusAggregator.sol",
  "compiler": {
    "name": "solc",
    "version": "0.6.12+commit.27d51765.Emscripten.clang"
  },
  "schemaVersion": "3.4.0",
  "updatedAt": "2021-05-25T18:34:29.723Z",
  "devdoc": {
    "kind": "dev",
    "methods": {
      "owner()": {
        "details": "Returns the address of the current owner."
      },
      "renounceOwnership()": {
        "details": "Leaves the contract without owner. It will not be possible to call `onlyOwner` functions anymore. Can only be called by the current owner. NOTE: Renouncing ownership will leave the contract without an owner, thereby removing any functionality that is only available to the owner."
      },
      "transferOwnership(address)": {
        "details": "Transfers ownership of the contract to a new account (`newOwner`). Can only be called by the current owner."
      }
    },
    "version": 1
  },
  "userdoc": {
    "kind": "user",
    "methods": {},
    "version": 1
  }
}