{
  "contractName": "ShibaMoneyPot",
  "abi": [
    {
      "inputs": [
        {
          "internalType": "contract IBEP20",
          "name": "_sNova",
          "type": "address"
        },
        {
          "internalType": "address",
          "name": "_feeManager",
          "type": "address"
        },
        {
          "internalType": "address",
          "name": "_masterShiba",
          "type": "address"
        },
        {
          "internalType": "uint256",
          "name": "_startBlock",
          "type": "uint256"
        },
        {
          "internalType": "uint256",
          "name": "_initialUpdateMoneyPotPeriodNbBlocks",
          "type": "uint256"
        }
      ],
      "stateMutability": "nonpayable",
      "type": "constructor"
    },
    {
      "anonymous": false,
      "inputs": [
        {
          "indexed": true,
          "internalType": "address",
          "name": "previousOwner",
          "type": "address"
        },
        {
          "indexed": true,
          "internalType": "address",
          "name": "newOwner",
          "type": "address"
        }
      ],
      "name": "OwnershipTransferred",
      "type": "event"
    },
    {
      "inputs": [],
      "name": "feeManager",
      "outputs": [
        {
          "internalType": "address",
          "name": "",
          "type": "address"
        }
      ],
      "stateMutability": "view",
      "type": "function",
      "constant": true
    },
    {
      "inputs": [],
      "name": "lastSNovaSupply",
      "outputs": [
        {
          "internalType": "uint256",
          "name": "",
          "type": "uint256"
        }
      ],
      "stateMutability": "view",
      "type": "function",
      "constant": true
    },
    {
      "inputs": [],
      "name": "lastUpdateMoneyPotBlocks",
      "outputs": [
        {
          "internalType": "uint256",
          "name": "",
          "type": "uint256"
        }
      ],
      "stateMutability": "view",
      "type": "function",
      "constant": true
    },
    {
      "inputs": [],
      "name": "owner",
      "outputs": [
        {
          "internalType": "address",
          "name": "",
          "type": "address"
        }
      ],
      "stateMutability": "view",
      "type": "function",
      "constant": true
    },
    {
      "inputs": [
        {
          "internalType": "address",
          "name": "",
          "type": "address"
        }
      ],
      "name": "pendingTokenAmount",
      "outputs": [
        {
          "internalType": "uint256",
          "name": "",
          "type": "uint256"
        }
      ],
      "stateMutability": "view",
      "type": "function",
      "constant": true
    },
    {
      "inputs": [
        {
          "internalType": "uint256",
          "name": "",
          "type": "uint256"
        }
      ],
      "name": "registeredToken",
      "outputs": [
        {
          "internalType": "address",
          "name": "",
          "type": "address"
        }
      ],
      "stateMutability": "view",
      "type": "function",
      "constant": true
    },
    {
      "inputs": [],
      "name": "renounceOwnership",
      "outputs": [],
      "stateMutability": "nonpayable",
      "type": "function"
    },
    {
      "inputs": [
        {
          "internalType": "address",
          "name": "",
          "type": "address"
        }
      ],
      "name": "reserveTokenAmount",
      "outputs": [
        {
          "internalType": "uint256",
          "name": "",
          "type": "uint256"
        }
      ],
      "stateMutability": "view",
      "type": "function",
      "constant": true
    },
    {
      "inputs": [],
      "name": "sNova",
      "outputs": [
        {
          "internalType": "contract IBEP20",
          "name": "",
          "type": "address"
        }
      ],
      "stateMutability": "view",
      "type": "function",
      "constant": true
    },
    {
      "inputs": [
        {
          "internalType": "address",
          "name": "",
          "type": "address"
        }
      ],
      "name": "sNovaHoldersInfo",
      "outputs": [
        {
          "internalType": "uint256",
          "name": "",
          "type": "uint256"
        }
      ],
      "stateMutability": "view",
      "type": "function",
      "constant": true
    },
    {
      "inputs": [
        {
          "internalType": "address",
          "name": "",
          "type": "address"
        },
        {
          "internalType": "address",
          "name": "",
          "type": "address"
        }
      ],
      "name": "sNovaHoldersRewardsInfo",
      "outputs": [
        {
          "internalType": "uint256",
          "name": "rewardDept",
          "type": "uint256"
        },
        {
          "internalType": "uint256",
          "name": "pending",
          "type": "uint256"
        }
      ],
      "stateMutability": "view",
      "type": "function",
      "constant": true
    },
    {
      "inputs": [],
      "name": "startBlock",
      "outputs": [
        {
          "internalType": "uint256",
          "name": "",
          "type": "uint256"
        }
      ],
      "stateMutability": "view",
      "type": "function",
      "constant": true
    },
    {
      "inputs": [
        {
          "internalType": "address",
          "name": "",
          "type": "address"
        }
      ],
      "name": "tokenInitialized",
      "outputs": [
        {
          "internalType": "bool",
          "name": "",
          "type": "bool"
        }
      ],
      "stateMutability": "view",
      "type": "function",
      "constant": true
    },
    {
      "inputs": [
        {
          "internalType": "address",
          "name": "newOwner",
          "type": "address"
        }
      ],
      "name": "transferOwnership",
      "outputs": [],
      "stateMutability": "nonpayable",
      "type": "function"
    },
    {
      "inputs": [],
      "name": "updateMoneyPotPeriodNbBlocks",
      "outputs": [
        {
          "internalType": "uint256",
          "name": "",
          "type": "uint256"
        }
      ],
      "stateMutability": "view",
      "type": "function",
      "constant": true
    },
    {
      "inputs": [
        {
          "internalType": "uint256",
          "name": "index",
          "type": "uint256"
        }
      ],
      "name": "getRegisteredToken",
      "outputs": [
        {
          "internalType": "address",
          "name": "",
          "type": "address"
        }
      ],
      "stateMutability": "view",
      "type": "function",
      "constant": true
    },
    {
      "inputs": [
        {
          "internalType": "address",
          "name": "_token",
          "type": "address"
        }
      ],
      "name": "distributedMoneyPot",
      "outputs": [
        {
          "internalType": "uint256",
          "name": "tokenAmount",
          "type": "uint256"
        },
        {
          "internalType": "uint256",
          "name": "accTokenPerShare",
          "type": "uint256"
        },
        {
          "internalType": "uint256",
          "name": "lastRewardBlock",
          "type": "uint256"
        }
      ],
      "stateMutability": "view",
      "type": "function",
      "constant": true
    },
    {
      "inputs": [
        {
          "internalType": "address",
          "name": "_tokenAddr",
          "type": "address"
        }
      ],
      "name": "isDividendsToken",
      "outputs": [
        {
          "internalType": "bool",
          "name": "",
          "type": "bool"
        }
      ],
      "stateMutability": "view",
      "type": "function",
      "constant": true
    },
    {
      "inputs": [
        {
          "internalType": "address",
          "name": "_contract",
          "type": "address"
        },
        {
          "internalType": "bool",
          "name": "_unattributeDividends",
          "type": "bool"
        }
      ],
      "name": "updateAddressWithoutReward",
      "outputs": [],
      "stateMutability": "nonpayable",
      "type": "function"
    },
    {
      "inputs": [
        {
          "internalType": "address",
          "name": "_feeManager",
          "type": "address"
        }
      ],
      "name": "updateFeeManager",
      "outputs": [],
      "stateMutability": "nonpayable",
      "type": "function"
    },
    {
      "inputs": [],
      "name": "getRegisteredTokenLength",
      "outputs": [
        {
          "internalType": "uint256",
          "name": "",
          "type": "uint256"
        }
      ],
      "stateMutability": "view",
      "type": "function",
      "constant": true
    },
    {
      "inputs": [
        {
          "internalType": "address",
          "name": "_token",
          "type": "address"
        }
      ],
      "name": "getTokenAmountPotFromMoneyPot",
      "outputs": [
        {
          "internalType": "uint256",
          "name": "tokenAmount",
          "type": "uint256"
        }
      ],
      "stateMutability": "view",
      "type": "function",
      "constant": true
    },
    {
      "inputs": [
        {
          "internalType": "address",
          "name": "_token",
          "type": "address"
        }
      ],
      "name": "tokenPerBlock",
      "outputs": [
        {
          "internalType": "uint256",
          "name": "",
          "type": "uint256"
        }
      ],
      "stateMutability": "view",
      "type": "function",
      "constant": true
    },
    {
      "inputs": [],
      "name": "massUpdateMoneyPot",
      "outputs": [],
      "stateMutability": "nonpayable",
      "type": "function"
    },
    {
      "inputs": [
        {
          "internalType": "address",
          "name": "_token",
          "type": "address"
        }
      ],
      "name": "updateCurrentMoneyPot",
      "outputs": [],
      "stateMutability": "nonpayable",
      "type": "function"
    },
    {
      "inputs": [
        {
          "internalType": "address",
          "name": "_token",
          "type": "address"
        },
        {
          "internalType": "address",
          "name": "_user",
          "type": "address"
        }
      ],
      "name": "pendingTokenRewardsAmount",
      "outputs": [
        {
          "internalType": "uint256",
          "name": "",
          "type": "uint256"
        }
      ],
      "stateMutability": "view",
      "type": "function",
      "constant": true
    },
    {
      "inputs": [
        {
          "internalType": "address",
          "name": "_sNovaHolder",
          "type": "address"
        }
      ],
      "name": "updateSNovaHolder",
      "outputs": [],
      "stateMutability": "nonpayable",
      "type": "function"
    },
    {
      "inputs": [
        {
          "internalType": "address",
          "name": "_sNovaHolder",
          "type": "address"
        }
      ],
      "name": "harvestRewards",
      "outputs": [],
      "stateMutability": "nonpayable",
      "type": "function"
    },
    {
      "inputs": [
        {
          "internalType": "address",
          "name": "_sNovaHolder",
          "type": "address"
        },
        {
          "internalType": "address",
          "name": "_token",
          "type": "address"
        }
      ],
      "name": "harvestReward",
      "outputs": [],
      "stateMutability": "nonpayable",
      "type": "function"
    },
    {
      "inputs": [
        {
          "internalType": "address",
          "name": "_token",
          "type": "address"
        },
        {
          "internalType": "uint256",
          "name": "_amount",
          "type": "uint256"
        }
      ],
      "name": "depositRewards",
      "outputs": [],
      "stateMutability": "nonpayable",
      "type": "function"
    },
    {
      "inputs": [
        {
          "internalType": "address",
          "name": "_token",
          "type": "address"
        },
        {
          "internalType": "uint256",
          "name": "_amount",
          "type": "uint256"
        }
      ],
      "name": "depositBonusRewards",
      "outputs": [],
      "stateMutability": "nonpayable",
      "type": "function"
    },
    {
      "inputs": [
        {
          "internalType": "address",
          "name": "_token",
          "type": "address"
        }
      ],
      "name": "addTokenToRewards",
      "outputs": [],
      "stateMutability": "nonpayable",
      "type": "function"
    },
    {
      "inputs": [
        {
          "internalType": "address",
          "name": "_token",
          "type": "address"
        }
      ],
      "name": "removeTokenToRewards",
      "outputs": [],
      "stateMutability": "nonpayable",
      "type": "function"
    },
    {
      "inputs": [],
      "name": "nextMoneyPotUpdateBlock",
      "outputs": [
        {
          "internalType": "uint256",
          "name": "",
          "type": "uint256"
        }
      ],
      "stateMutability": "view",
      "type": "function",
      "constant": true
    },
    {
      "inputs": [
        {
          "internalType": "address",
          "name": "_token",
          "type": "address"
        },
        {
          "internalType": "uint256",
          "name": "_amount",
          "type": "uint256"
        }
      ],
      "name": "addToPendingFromReserveTokenAmount",
      "outputs": [],
      "stateMutability": "nonpayable",
      "type": "function"
    }
  ],
  "bytecode": "0x608060405234801561001057600080fd5b50604051612543380380612543833981810160405260a081101561003357600080fd5b50805160208201516040830151606084015160809094015192939192909190600061005c6100fd565b600080546001600160a01b0319166001600160a01b0383169081178255604051929350917f8be0079c531659141344cd1fd0a4f28419497f9722a3daafe3b4186f6b6457e0908290a3506002556004819055600355600180546001600160a01b039485166001600160a01b03199182161782559184166000908152600960205260409020805460ff19169091179055600a8054929093169116179055610101565b3390565b612433806101106000396000f3fe608060405234801561001057600080fd5b50600436106102115760003560e01c8063715018a611610125578063bcac296f116100ad578063dbba0c2d1161007c578063dbba0c2d146105ed578063deb5235014610613578063e367ae201461063f578063f2fde38b1461066b578063fecb18591461069157610211565b8063bcac296f14610591578063c6acd274146105b7578063d0fb0203146105dd578063d96ed939146105e557610211565b80639c7e2655116100f45780639c7e2655146104f25780639e1df1711461050f578063a17a710314610517578063b310000d14610545578063b4254a881461056b57610211565b8063715018a6146104885780638da5cb5b1461049057806397ad1cce14610498578063983ee748146104c457610211565b8063474118a4116101a8578063555d077a11610177578063555d077a146103e8578063598e88ee1461040e57806362bfad8e146104345780636663d7041461045a578063713cfdb41461048057610211565b8063474118a41461039357806348cd4cb1146103b057806349980c5b146103b8578063515ce517146103c057610211565b80632ce39db1116101e45780632ce39db1146102e15780633188d757146103055780633b4d4c371461033f578063470eacf61461036d57610211565b806303dcc3b5146102165780631aff21441461025a5780632a240ff7146102925780632cbbd864146102d9575b600080fd5b61023c6004803603602081101561022c57600080fd5b50356001600160a01b0316610699565b60408051938452602084019290925282820152519081900360600190f35b6102806004803603602081101561027057600080fd5b50356001600160a01b03166106c1565b60408051918252519081900360200190f35b6102c0600480360360408110156102a857600080fd5b506001600160a01b03813581169160200135166106d3565b6040805192835260208301919091528051918290030190f35b6102806106f7565b6102e96106fd565b604080516001600160a01b039092168252519081900360200190f35b61032b6004803603602081101561031b57600080fd5b50356001600160a01b031661070c565b604080519115158252519081900360200190f35b6102806004803603604081101561035557600080fd5b506001600160a01b0381358116916020013516610721565b6102806004803603602081101561038357600080fd5b50356001600160a01b031661094b565b6102e9600480360360208110156103a957600080fd5b5035610973565b61028061099d565b6102806109a3565b6103e6600480360360208110156103d657600080fd5b50356001600160a01b03166109c1565b005b61032b600480360360208110156103fe57600080fd5b50356001600160a01b0316610a07565b6102806004803603602081101561042457600080fd5b50356001600160a01b0316610a25565b6102806004803603602081101561044a57600080fd5b50356001600160a01b0316610a37565b6103e66004803603602081101561047057600080fd5b50356001600160a01b0316610a49565b610280610eb6565b6103e6610ebc565b6102e9610f5e565b6103e6600480360360408110156104ae57600080fd5b506001600160a01b038135169060200135610f6d565b6103e6600480360360408110156104da57600080fd5b506001600160a01b038135169060200135151561102d565b6102e96004803603602081101561050857600080fd5b50356110b0565b6102806110d7565b6103e66004803603604081101561052d57600080fd5b506001600160a01b03813581169160200135166110dd565b6103e66004803603602081101561055b57600080fd5b50356001600160a01b03166113b2565b6102806004803603602081101561058157600080fd5b50356001600160a01b03166113be565b6103e6600480360360208110156105a757600080fd5b50356001600160a01b03166113d9565b6103e6600480360360208110156105cd57600080fd5b50356001600160a01b03166115bc565b6102e9611636565b6103e6611645565b6103e66004803603602081101561060357600080fd5b50356001600160a01b031661166b565b6103e66004803603604081101561062957600080fd5b506001600160a01b03813516906020013561179a565b6103e66004803603604081101561065557600080fd5b506001600160a01b0381351690602001356118a7565b6103e66004803603602081101561068157600080fd5b50356001600160a01b0316611957565b6102806119b8565b6001600160a01b03166000908152600b60205260409020805460018201546002909201549092565b60066020526000908152604090205481565b60056020908152600092835260408084209091529082529020805460019091015482565b60035481565b6001546001600160a01b031681565b60086020526000908152604090205460ff1681565b6000600e546000141561073657506000610945565b6001600160a01b0383166000908152600b602052604081206001810154600254915490929161076591906119be565b6001600160a01b0386166000908152600b602052604090206002808201546003909201549054929350909161079b908290611a07565b4310610831576107ee6107e7600e546107e164e8d4a510006107db6107d4886107cf6002548a611a0790919063ffffffff16565b611a61565b8990611a7c565b90611a7c565b906119be565b8590611a07565b935061080560025482611a0790919063ffffffff16565b6002546001600160a01b0389166000908152600c602052604090205491935061082e91906119be565b92505b81431180156108415750600e5415155b801561084d5750600083115b15610874576108716107e7600e546107e164e8d4a510006107db6107d48843611a61565b93505b6001600160a01b0387811660009081526005602090815260408083208a8516808552908352928190206001808201549154905483516370a0823160e01b81526004810196909652925161093e9692956109389592946109329464e8d4a51000946107e1948f9493909216926370a082319260248083019392829003018186803b15801561090057600080fd5b505afa158015610914573d6000803e3d6000fd5b505050506040513d602081101561092a57600080fd5b505190611a7c565b90611ad5565b90611a07565b9450505050505b92915050565b6002546001600160a01b0382166000908152600b6020526040812054909161094591906119be565b60006007828154811061098257fe5b6000918252602090912001546001600160a01b031692915050565b60045481565b60006109bc600254600354611a0790919063ffffffff16565b905090565b60075460005b81811015610a02576109fa83600783815481106109e057fe5b6000918252602090912001546001600160a01b03166110dd565b6001016109c7565b505050565b6001600160a01b031660009081526008602052604090205460ff1690565b600d6020526000908152604090205481565b600c6020526000908152604090205481565b6001600160a01b0380821660008181526006602090815260408083205460015482516370a0823160e01b8152600481019690965291519095939491909316926370a0823192602480840193919291829003018186803b158015610aab57600080fd5b505afa158015610abf573d6000803e3d6000fd5b505050506040513d6020811015610ad557600080fd5b505160075490915060005b81811015610e6d57610b1260078281548110610af857fe5b6000918252602090912001546001600160a01b0316611b17565b6000600b600060078481548110610b2557fe5b60009182526020808320909101546001600160a01b03168352820192909252604001902090508415801590610b5e575060008160010154115b15610dfe576000610bc96005600060078681548110610b7957fe5b60009182526020808320909101546001600160a01b0390811684528382019490945260409283018220938c1682529290925290205460018401546109329064e8d4a51000906107e1908b90611a7c565b90508015610dfc576001600160a01b03871660009081526009602052604090205460ff1615610d5f5760006005600060078681548110610c0557fe5b60009182526020808320909101546001600160a01b0390811684528382019490945260409283018220938c168252929092529020600101541115610ce457610c966005600060078681548110610c5757fe5b60009182526020808320909101546001600160a01b0390811684528382019490945260409283018220938c168252929092529020600101548290611a07565b905060006005600060078681548110610cab57fe5b60009182526020808320909101546001600160a01b0390811684528382019490945260409283018220938c168252929092529020600101555b610d2481600d600060078781548110610cf957fe5b60009182526020808320909101546001600160a01b0316835282019290925260400190205490611a07565b600d600060078681548110610d3557fe5b60009182526020808320909101546001600160a01b03168352820192909252604001902055610dfc565b610db2816005600060078781548110610d7457fe5b60009182526020808320909101546001600160a01b0390811684528382019490945260409283018220938d1682529290925290206001015490611a07565b6005600060078681548110610dc357fe5b60009182526020808320909101546001600160a01b0390811684528382019490945260409283018220938c168252929092529020600101555b505b610e1e64e8d4a510006107e1836001015487611a7c90919063ffffffff16565b6005600060078581548110610e2f57fe5b60009182526020808320909101546001600160a01b0390811684528382019490945260409283018220938b1682529290925290205550600101610ae0565b508215610e8557600e54610e819084611ad5565b600e555b600e54610e929083611a07565b600e55506001600160a01b0390921660009081526006602052604090209190915550565b60025481565b610ec4611cdd565b6000546001600160a01b03908116911614610f14576040805162461bcd60e51b81526020600482018190526024820152600080516020612394833981519152604482015290519081900360640190fd5b600080546040516001600160a01b03909116907f8be0079c531659141344cd1fd0a4f28419497f9722a3daafe3b4186f6b6457e0908390a3600080546001600160a01b0319169055565b6000546001600160a01b031690565b600a546001600160a01b03163314610f8457600080fd5b610f8c611645565b610fa16001600160a01b038316333084611ce1565b600454431015610fec576001600160a01b0382166000908152600d6020526040902054610fce9082611a07565b6001600160a01b0383166000908152600d6020526040902055611029565b6001600160a01b0382166000908152600c602052604090205461100f9082611a07565b6001600160a01b0383166000908152600c60205260409020555b5050565b611035611cdd565b6000546001600160a01b03908116911614611085576040805162461bcd60e51b81526020600482018190526024820152600080516020612394833981519152604482015290519081900360640190fd5b6001600160a01b03919091166000908152600960205260409020805460ff1916911515919091179055565b600781815481106110bd57fe5b6000918252602090912001546001600160a01b0316905081565b60075490565b6001600160a01b0382166000908152600660205260409020546110ff82611b17565b6001600160a01b0382166000908152600b60205260409020811580159061112a575060008160010154115b156112d0576001600160a01b038084166000908152600560209081526040808320938816835292905290812054600183015461117791906109329064e8d4a51000906107e1908890611a7c565b905080156112ce576001600160a01b03851660009081526009602052604090205460ff1615611271576001600160a01b0380851660009081526005602090815260408083209389168352929052206001015415611230576001600160a01b03808516600090815260056020908152604080832093891683529290522060010154611202908290611a07565b6001600160a01b038086166000908152600560209081526040808320938a1683529290529081206001015590505b6001600160a01b0384166000908152600d60205260409020546112539082611a07565b6001600160a01b0385166000908152600d60205260409020556112ce565b6001600160a01b038085166000908152600560209081526040808320938916835292905220600101546112a49082611a07565b6001600160a01b038086166000908152600560209081526040808320938a16835292905220600101555b505b6001600160a01b0380841660009081526005602090815260408083209388168352929052206001015415611360576001600160a01b038084166000908152600560209081526040808320938816835292905220600101546113349084908690611d41565b6001600160a01b0380841660009081526005602090815260408083209388168352929052908120600101555b61138064e8d4a510006107e1836001015485611a7c90919063ffffffff16565b6001600160a01b0393841660009081526005602090815260408083209790961682529590955292909320919091555050565b6113bb81611b17565b50565b6001600160a01b03166000908152600b602052604090205490565b6113e1611cdd565b6000546001600160a01b03908116911614611431576040805162461bcd60e51b81526020600482018190526024820152600080516020612394833981519152604482015290519081900360640190fd5b6001600160a01b0381166000908152600b6020526040902054156114865760405162461bcd60e51b81526004018080602001828103825260288152602001806123d66028913960400191505060405180910390fd5b6001600160a01b03811660009081526008602052604090205460ff16156113bb576007548060005b828110156114f857836001600160a01b0316600782815481106114cd57fe5b6000918252602090912001546001600160a01b031614156114f0578091506114f8565b6001016114ae565b50818110156115955760078054600019810190811061151357fe5b600091825260209091200154600780546001600160a01b03909216918390811061153957fe5b9060005260206000200160006101000a8154816001600160a01b0302191690836001600160a01b03160217905550600780548061157257fe5b600082815260209020810160001990810180546001600160a01b03191690550190555b50506001600160a01b0381166000908152600860205260409020805460ff191690556113bb565b6115c4611cdd565b6000546001600160a01b03908116911614611614576040805162461bcd60e51b81526020600482018190526024820152600080516020612394833981519152604482015290519081900360640190fd5b600a80546001600160a01b0319166001600160a01b0392909216919091179055565b600a546001600160a01b031681565b60075460005b818110156110295761166360078281548110610af857fe5b60010161164b565b611673611cdd565b6000546001600160a01b039081169116146116c3576040805162461bcd60e51b81526020600482018190526024820152600080516020612394833981519152604482015290519081900360640190fd5b6001600160a01b03811660009081526008602052604090205460ff166113bb57600780546001810182556000919091527fa66cc928b5edb82af9bd49922954155ab7b0942694bea4ce44661d9a8736c6880180546001600160a01b0319166001600160a01b038316179055600354431061174b5760025460035461174691611a07565b61174f565b6003545b6001600160a01b0382166000908152600b6020908152604080832060028101859055600180820185905584825560039091019490945560089091529020805460ff1916909117905550565b6117a2611cdd565b6000546001600160a01b039081169116146117f2576040805162461bcd60e51b81526020600482018190526024820152600080516020612394833981519152604482015290519081900360640190fd5b6001600160a01b0382166000908152600d6020526040902054811115611855576040805162461bcd60e51b8152602060048201526013602482015272125b9cdd59999a58da595b9d08185b5bdd5b9d606a1b604482015290519081900360640190fd5b6001600160a01b0382166000908152600d60205260409020546118789082611ad5565b6001600160a01b0383166000908152600d6020908152604080832093909355600c9052205461100f9082611a07565b6118af611cdd565b6000546001600160a01b039081169116146118ff576040805162461bcd60e51b81526020600482018190526024820152600080516020612394833981519152604482015290519081900360640190fd5b6119146001600160a01b038316333084611ce1565b6001600160a01b0382166000908152600d60205260409020546119379082611a07565b6001600160a01b039092166000908152600d602052604090209190915550565b61195f611cdd565b6000546001600160a01b039081169116146119af576040805162461bcd60e51b81526020600482018190526024820152600080516020612394833981519152604482015290519081900360640190fd5b6113bb81611f18565b600e5481565b6000611a0083836040518060400160405280601a81526020017f536166654d6174683a206469766973696f6e206279207a65726f000000000000815250611fb8565b9392505050565b600082820183811015611a00576040805162461bcd60e51b815260206004820152601b60248201527f536166654d6174683a206164646974696f6e206f766572666c6f770000000000604482015290519081900360640190fd5b6000818310611a7257506000610945565b611a008284611ad5565b600082611a8b57506000610945565b82820282848281611a9857fe5b0414611a005760405162461bcd60e51b81526004018080602001828103825260218152602001806123736021913960400191505060405180910390fd5b6000611a0083836040518060400160405280601e81526020017f536166654d6174683a207375627472616374696f6e206f766572666c6f77000081525061205a565b6001600160a01b0381166000908152600b6020526040902060028101544311611b4057506113bb565b600e54611b5357436002909101556113bb565b6002546003820154611b6491611a07565b4310611c4c57805415611be2576000611b9482600201546107cf6002548560030154611a0790919063ffffffff16565b6002548354919250600091611ba8916119be565b9050611bda611bcf600e546107e164e8d4a510006107db8787611a7c90919063ffffffff16565b600185015490611a07565b600184015550505b6001600160a01b0382166000908152600c6020526040812080548355556002546003820154611c1091611a07565b600280830191909155546003820154611c2891611a07565b6003808301829055819055600254611c409190611a07565b4310611c4c57506113bb565b805415611ca6576000611c63826002015443611a61565b6002548354919250600091611c77916119be565b9050611c9e611bcf600e546107e164e8d4a510006107db8787611a7c90919063ffffffff16565b600184015550505b43600280830191909155546003820154611cbf91611a07565b4310611029576002546003820154611cd691611a07565b6003555050565b3390565b604080516001600160a01b0380861660248301528416604482015260648082018490528251808303909101815260849091019091526020810180516001600160e01b03166323b872dd60e01b179052611d3b9085906120b4565b50505050565b604080516370a0823160e01b8152306004820152905184916000916001600160a01b038416916370a08231916024808301926020929190829003018186803b158015611d8c57600080fd5b505afa158015611da0573d6000803e3d6000fd5b505050506040513d6020811015611db657600080fd5b50519050600081841115611e4e57826001600160a01b031663a9059cbb86846040518363ffffffff1660e01b815260040180836001600160a01b0316815260200182815260200192505050602060405180830381600087803b158015611e1b57600080fd5b505af1158015611e2f573d6000803e3d6000fd5b505050506040513d6020811015611e4557600080fd5b50519050611ed4565b826001600160a01b031663a9059cbb86866040518363ffffffff1660e01b815260040180836001600160a01b0316815260200182815260200192505050602060405180830381600087803b158015611ea557600080fd5b505af1158015611eb9573d6000803e3d6000fd5b505050506040513d6020811015611ecf57600080fd5b505190505b80611f105760405162461bcd60e51b81526004018080602001828103825260228152602001806123b46022913960400191505060405180910390fd5b505050505050565b6001600160a01b038116611f5d5760405162461bcd60e51b815260040180806020018281038252602681526020018061234d6026913960400191505060405180910390fd5b600080546040516001600160a01b03808516939216917f8be0079c531659141344cd1fd0a4f28419497f9722a3daafe3b4186f6b6457e091a3600080546001600160a01b0319166001600160a01b0392909216919091179055565b600081836120445760405162461bcd60e51b81526004018080602001828103825283818151815260200191508051906020019080838360005b83811015612009578181015183820152602001611ff1565b50505050905090810190601f1680156120365780820380516001836020036101000a031916815260200191505b509250505060405180910390fd5b50600083858161205057fe5b0495945050505050565b600081848411156120ac5760405162461bcd60e51b8152602060048201818152835160248401528351909283926044909101919085019080838360008315612009578181015183820152602001611ff1565b505050900390565b6060612109826040518060400160405280602081526020017f5361666542455032303a206c6f772d6c6576656c2063616c6c206661696c6564815250856001600160a01b03166121659092919063ffffffff16565b805190915015610a025780806020019051602081101561212857600080fd5b5051610a025760405162461bcd60e51b815260040180806020018281038252602a815260200180612323602a913960400191505060405180910390fd5b6060612174848460008561217c565b949350505050565b6060612187856122e9565b6121d8576040805162461bcd60e51b815260206004820152601d60248201527f416464726573733a2063616c6c20746f206e6f6e2d636f6e7472616374000000604482015290519081900360640190fd5b60006060866001600160a01b031685876040518082805190602001908083835b602083106122175780518252601f1990920191602091820191016121f8565b6001836020036101000a03801982511681845116808217855250505050505090500191505060006040518083038185875af1925050503d8060008114612279576040519150601f19603f3d011682016040523d82523d6000602084013e61227e565b606091505b509150915081156122925791506121749050565b8051156122a25780518082602001fd5b60405162461bcd60e51b8152602060048201818152865160248401528651879391928392604401919085019080838360008315612009578181015183820152602001611ff1565b6000813f7fc5d2460186f7233c927e7db2dcc703c0e500b653ca82273b7bfad8045d85a47081811480159061217457505015159291505056fe5361666542455032303a204245503230206f7065726174696f6e20646964206e6f7420737563636565644f776e61626c653a206e6577206f776e657220697320746865207a65726f2061646472657373536166654d6174683a206d756c7469706c69636174696f6e206f766572666c6f774f776e61626c653a2063616c6c6572206973206e6f7420746865206f776e657273616665534e6f76615472616e736665723a205472616e73666572206661696c656463616e6e6f742072656d6f7665206265666f726520656e64206f6620646973747269627574696f6ea2646970667358221220964b9692698f7a3588225d12344be275dc03c6dd60051339331bd02ac7a0bbd864736f6c634300060c0033",
  "immutableReferences": {},
  "source": "// SPDX-License-Identifier: MIT\r\npragma solidity 0.6.12;\r\n\r\nimport \"./libs/SafeMath.sol\";\r\nimport \"./libs/IBEP20.sol\";\r\nimport \"./libs/SafeBEP20.sol\";\r\nimport \"./libs/Ownable.sol\";\r\nimport \"./interfaces/IMoneyPot.sol\";\r\n\r\n/*\r\n* This contract is used to collect sNova stacking dividends from fee (like swap, deposit on pools or farms)\r\n*/\r\ncontract ShibaMoneyPot is Ownable, IMoneyPot {\r\n    using SafeBEP20 for IBEP20;\r\n    using SafeMath for uint256;\r\n\r\n\r\n    struct TokenPot {\r\n        uint256 tokenAmount; // Total amount distributing over 1 cycle (updateMoneyPotPeriodNbBlocks)\r\n        uint256 accTokenPerShare; // Amount of dividends per Share\r\n        uint256 lastRewardBlock; // last data update\r\n        uint256 lastUpdateTokenPotBlocks; // last cycle update for this token\r\n    }\r\n\r\n    struct UserInfo {\r\n        uint256 rewardDept;\r\n        uint256 pending;\r\n    }\r\n\r\n    IBEP20 public sNova;\r\n\r\n    uint256 public updateMoneyPotPeriodNbBlocks;\r\n    uint256 public lastUpdateMoneyPotBlocks;\r\n    uint256 public startBlock; // Start block for dividends distribution (first cycle the current money pot will be empty)\r\n\r\n    // _token => user => rewardsDebt / pending\r\n    mapping(address => mapping (address => UserInfo)) public sNovaHoldersRewardsInfo;\r\n    // user => LastSNovaBalanceSaved\r\n    mapping (address => uint256) public sNovaHoldersInfo;\r\n\r\n    address[] public registeredToken; // List of all token that will be distributed as dividends. Should never be too weight !\r\n    mapping (address => bool )  public tokenInitialized; // List of token already added to registeredToken\r\n\r\n    // addressWithoutReward is a map containing each address which are not going to get rewards\r\n    // At least, it will include the masterChef address as masterChef minting continuously sNova for rewards on Nova pair pool.\r\n    // We can add later LP contract if someone initialized sNova LP\r\n    // Those contracts are included as holders on sNova\r\n    // All dividends attributed to those addresses are going to be added to the \"reserveTokenAmount\"\r\n    mapping (address => bool) addressWithoutReward;\r\n    // address of the feeManager which is allow to add dividends to the pendingTokenPot\r\n    address public feeManager;\r\n\r\n    mapping (address => TokenPot) private _distributedMoneyPot; // Current MoneyPot\r\n    mapping (address => uint256 ) public pendingTokenAmount; // Pending amount of each dividends token that will be distributed in next cycle\r\n    mapping (address => uint256) public reserveTokenAmount; // Bonus which is used to add more dividends in the pendingTokenAmount\r\n\r\n    uint256 public lastSNovaSupply; // Cache the last totalSupply of sNova\r\n\r\n    constructor (IBEP20 _sNova, address _feeManager, address _masterShiba, uint256 _startBlock, uint256 _initialUpdateMoneyPotPeriodNbBlocks) public{\r\n        updateMoneyPotPeriodNbBlocks = _initialUpdateMoneyPotPeriodNbBlocks;\r\n        startBlock = _startBlock;\r\n        lastUpdateMoneyPotBlocks = _startBlock;\r\n        sNova = _sNova;\r\n        addressWithoutReward[_masterShiba] = true;\r\n        feeManager = _feeManager;\r\n    }\r\n\r\n    function getRegisteredToken(uint256 index) external virtual override view returns (address){\r\n        return registeredToken[index];\r\n    }\r\n\r\n    function distributedMoneyPot(address _token) external view returns (uint256 tokenAmount, uint256 accTokenPerShare, uint256 lastRewardBlock ){\r\n        return (\r\n            _distributedMoneyPot[_token].tokenAmount,\r\n            _distributedMoneyPot[_token].accTokenPerShare,\r\n            _distributedMoneyPot[_token].lastRewardBlock\r\n        );\r\n    }\r\n\r\n    function isDividendsToken(address _tokenAddr) external virtual override view returns (bool){\r\n        return tokenInitialized[_tokenAddr];\r\n    }\r\n\r\n\r\n    function updateAddressWithoutReward(address _contract, bool _unattributeDividends) external onlyOwner {\r\n        addressWithoutReward[_contract] = _unattributeDividends;\r\n    }\r\n\r\n    function updateFeeManager(address _feeManager) external onlyOwner{\r\n        // Allow us to update the feeManager contract => Can be upgraded if needed\r\n        feeManager = _feeManager;\r\n    }\r\n\r\n    function getRegisteredTokenLength() external virtual override view returns (uint256){\r\n        return registeredToken.length;\r\n    }\r\n\r\n    function getTokenAmountPotFromMoneyPot(address _token) external view returns (uint256 tokenAmount){\r\n        return _distributedMoneyPot[_token].tokenAmount;\r\n    }\r\n\r\n    // Amount of dividends in a specific token distributed at each block during the current cycle (=updateMoneyPotPeriodNbBlocks)\r\n    function tokenPerBlock(address _token) external view returns (uint256){\r\n        return _distributedMoneyPot[_token].tokenAmount.div(updateMoneyPotPeriodNbBlocks);\r\n    }\r\n\r\n    function massUpdateMoneyPot() public {\r\n        uint256 length = registeredToken.length;\r\n        for (uint256 index = 0; index < length; ++index) {\r\n            _updateTokenPot(registeredToken[index]);\r\n        }\r\n    }\r\n\r\n    function updateCurrentMoneyPot(address _token) external{\r\n        _updateTokenPot(_token);\r\n    }\r\n\r\n    function getMultiplier(uint256 _from, uint256 _to) internal pure returns (uint256){\r\n        if(_from >= _to){\r\n            return 0;\r\n        }\r\n        return _to.sub(_from);\r\n    }\r\n\r\n    /*\r\n    Update current dividends for specific token\r\n    */\r\n    function _updateTokenPot(address _token) internal {\r\n        TokenPot storage tokenPot = _distributedMoneyPot[_token];\r\n        if (block.number <= tokenPot.lastRewardBlock) {\r\n            return;\r\n        }\r\n\r\n        if (lastSNovaSupply == 0) {\r\n            tokenPot.lastRewardBlock = block.number;\r\n            return;\r\n        }\r\n\r\n        if (block.number >= tokenPot.lastUpdateTokenPotBlocks.add(updateMoneyPotPeriodNbBlocks)){\r\n            if(tokenPot.tokenAmount > 0){\r\n                uint256 multiplier = getMultiplier(tokenPot.lastRewardBlock, tokenPot.lastUpdateTokenPotBlocks.add(updateMoneyPotPeriodNbBlocks));\r\n                uint256 tokenRewardsPerBlock = tokenPot.tokenAmount.div(updateMoneyPotPeriodNbBlocks);\r\n                tokenPot.accTokenPerShare = tokenPot.accTokenPerShare.add(tokenRewardsPerBlock.mul(multiplier).mul(1e12).div(lastSNovaSupply));\r\n            }\r\n            tokenPot.tokenAmount = pendingTokenAmount[_token];\r\n            pendingTokenAmount[_token] = 0;\r\n            tokenPot.lastRewardBlock = tokenPot.lastUpdateTokenPotBlocks.add(updateMoneyPotPeriodNbBlocks);\r\n            tokenPot.lastUpdateTokenPotBlocks = tokenPot.lastUpdateTokenPotBlocks.add(updateMoneyPotPeriodNbBlocks);\r\n            lastUpdateMoneyPotBlocks = tokenPot.lastUpdateTokenPotBlocks;\r\n\r\n            if (block.number >= tokenPot.lastUpdateTokenPotBlocks.add(updateMoneyPotPeriodNbBlocks)){\r\n                // If something bad happen in blockchain and moneyPot aren't able to be updated since\r\n                // return here, will allow us to re-call updatePool manually, instead of directly doing it recursively here\r\n                // which can cause too much gas error and so break all the MP contract\r\n                return;\r\n            }\r\n        }\r\n        if(tokenPot.tokenAmount > 0){\r\n            uint256 multiplier = getMultiplier(tokenPot.lastRewardBlock, block.number);\r\n            uint256 tokenRewardsPerBlock = tokenPot.tokenAmount.div(updateMoneyPotPeriodNbBlocks);\r\n            tokenPot.accTokenPerShare = tokenPot.accTokenPerShare.add(tokenRewardsPerBlock.mul(multiplier).mul(1e12).div(lastSNovaSupply));\r\n        }\r\n\r\n        tokenPot.lastRewardBlock = block.number;\r\n\r\n        if (block.number >= tokenPot.lastUpdateTokenPotBlocks.add(updateMoneyPotPeriodNbBlocks)){\r\n            lastUpdateMoneyPotBlocks = tokenPot.lastUpdateTokenPotBlocks.add(updateMoneyPotPeriodNbBlocks);\r\n        }\r\n    }\r\n\r\n    /*\r\n    Used by front-end to display user's pending rewards that he can harvest\r\n    */\r\n    function pendingTokenRewardsAmount(address _token, address _user) external view returns (uint256){\r\n\r\n        if(lastSNovaSupply == 0){\r\n            return 0;\r\n        }\r\n\r\n        uint256 accTokenPerShare = _distributedMoneyPot[_token].accTokenPerShare;\r\n        uint256 tokenReward = _distributedMoneyPot[_token].tokenAmount.div(updateMoneyPotPeriodNbBlocks);\r\n        uint256 lastRewardBlock = _distributedMoneyPot[_token].lastRewardBlock;\r\n        uint256 lastUpdateTokenPotBlocks = _distributedMoneyPot[_token].lastUpdateTokenPotBlocks;\r\n        if (block.number >= lastUpdateTokenPotBlocks.add(updateMoneyPotPeriodNbBlocks)){\r\n            accTokenPerShare = (accTokenPerShare.add(\r\n                    tokenReward.mul(getMultiplier(lastRewardBlock, lastUpdateTokenPotBlocks.add(updateMoneyPotPeriodNbBlocks))\r\n                ).mul(1e12).div(lastSNovaSupply)));\r\n            lastRewardBlock = lastUpdateTokenPotBlocks.add(updateMoneyPotPeriodNbBlocks);\r\n            tokenReward = pendingTokenAmount[_token].div(updateMoneyPotPeriodNbBlocks);\r\n        }\r\n\r\n        if (block.number > lastRewardBlock && lastSNovaSupply != 0 && tokenReward > 0) {\r\n            accTokenPerShare = accTokenPerShare.add(\r\n                    tokenReward.mul(getMultiplier(lastRewardBlock, block.number)\r\n                ).mul(1e12).div(lastSNovaSupply));\r\n        }\r\n        return (sNova.balanceOf(_user).mul(accTokenPerShare).div(1e12).sub(sNovaHoldersRewardsInfo[_token][_user].rewardDept))\r\n                    .add(sNovaHoldersRewardsInfo[_token][_user].pending);\r\n    }\r\n\r\n\r\n    /*\r\n    Update tokenPot, user's sNova balance (cache) and pending dividends\r\n    */\r\n    function updateSNovaHolder(address _sNovaHolder) external virtual override {\r\n        uint256 holderPreviousSNovaAmount = sNovaHoldersInfo[_sNovaHolder];\r\n        uint256 holderBalance = sNova.balanceOf(_sNovaHolder);\r\n        uint256 length = registeredToken.length;\r\n        for (uint256 index = 0; index < length; ++index) {\r\n            _updateTokenPot(registeredToken[index]);\r\n            TokenPot storage tokenPot = _distributedMoneyPot[registeredToken[index]];\r\n            if(holderPreviousSNovaAmount > 0 && tokenPot.accTokenPerShare > 0){\r\n                uint256 pending = holderPreviousSNovaAmount.mul(tokenPot.accTokenPerShare).div(1e12).sub(sNovaHoldersRewardsInfo[registeredToken[index]][_sNovaHolder].rewardDept);\r\n                if(pending > 0) {\r\n                    if (addressWithoutReward[_sNovaHolder]) {\r\n                        if(sNovaHoldersRewardsInfo[registeredToken[index]][_sNovaHolder].pending > 0){\r\n                            pending = pending.add(sNovaHoldersRewardsInfo[registeredToken[index]][_sNovaHolder].pending);\r\n                            sNovaHoldersRewardsInfo[registeredToken[index]][_sNovaHolder].pending = 0;\r\n                        }\r\n                        reserveTokenAmount[registeredToken[index]] = reserveTokenAmount[registeredToken[index]].add(pending);\r\n                    }\r\n                    else {\r\n                        sNovaHoldersRewardsInfo[registeredToken[index]][_sNovaHolder].pending = sNovaHoldersRewardsInfo[registeredToken[index]][_sNovaHolder].pending.add(pending);\r\n                    }\r\n                }\r\n            }\r\n            sNovaHoldersRewardsInfo[registeredToken[index]][_sNovaHolder].rewardDept = holderBalance.mul(tokenPot.accTokenPerShare).div(1e12);\r\n        }\r\n        if (holderPreviousSNovaAmount > 0){\r\n            lastSNovaSupply = lastSNovaSupply.sub(holderPreviousSNovaAmount);\r\n        }\r\n        lastSNovaSupply = lastSNovaSupply.add(holderBalance);\r\n        sNovaHoldersInfo[_sNovaHolder] = holderBalance;\r\n    }\r\n\r\n    function harvestRewards(address _sNovaHolder) external {\r\n        uint256 length = registeredToken.length;\r\n\r\n        for (uint256 index = 0; index < length; ++index) {\r\n            harvestReward(_sNovaHolder, registeredToken[index]);\r\n        }\r\n    }\r\n\r\n    /*\r\n    * Allow user to harvest their pending dividends\r\n    */\r\n    function harvestReward(address _sNovaHolder, address _token) public {\r\n        uint256 holderBalance = sNovaHoldersInfo[_sNovaHolder];\r\n        _updateTokenPot(_token);\r\n        TokenPot storage tokenPot = _distributedMoneyPot[_token];\r\n        if(holderBalance > 0 && tokenPot.accTokenPerShare > 0){\r\n            uint256 pending = holderBalance.mul(tokenPot.accTokenPerShare).div(1e12).sub(sNovaHoldersRewardsInfo[_token][_sNovaHolder].rewardDept);\r\n            if(pending > 0) {\r\n                if (addressWithoutReward[_sNovaHolder]) {\r\n                        if(sNovaHoldersRewardsInfo[_token][_sNovaHolder].pending > 0){\r\n                            pending = pending.add(sNovaHoldersRewardsInfo[_token][_sNovaHolder].pending);\r\n                            sNovaHoldersRewardsInfo[_token][_sNovaHolder].pending = 0;\r\n                        }\r\n                        reserveTokenAmount[_token] = reserveTokenAmount[_token].add(pending);\r\n                }\r\n                else {\r\n                    sNovaHoldersRewardsInfo[_token][_sNovaHolder].pending = sNovaHoldersRewardsInfo[_token][_sNovaHolder].pending.add(pending);\r\n                }\r\n            }\r\n        }\r\n        if ( sNovaHoldersRewardsInfo[_token][_sNovaHolder].pending > 0 ){\r\n            safeTokenTransfer(_token, _sNovaHolder, sNovaHoldersRewardsInfo[_token][_sNovaHolder].pending);\r\n            sNovaHoldersRewardsInfo[_token][_sNovaHolder].pending = 0;\r\n        }\r\n        sNovaHoldersRewardsInfo[_token][_sNovaHolder].rewardDept = holderBalance.mul(tokenPot.accTokenPerShare).div(1e12);\r\n    }\r\n\r\n    /*\r\n    * Used by feeManager contract to deposit rewards (collected from many sources)\r\n    */\r\n    function depositRewards(address _token, uint256 _amount) external virtual override{\r\n        require(msg.sender == feeManager);\r\n        massUpdateMoneyPot();\r\n\r\n        IBEP20(_token).safeTransferFrom(msg.sender, address(this), _amount);\r\n\r\n        if(block.number < startBlock){\r\n            reserveTokenAmount[_token] = reserveTokenAmount[_token].add(_amount);\r\n        }\r\n        else {\r\n            pendingTokenAmount[_token] = pendingTokenAmount[_token].add(_amount);\r\n        }\r\n    }\r\n\r\n    /*\r\n    * Used by dev to deposit bonus rewards that can be added to pending pot at any time\r\n    */\r\n    function depositBonusRewards(address _token, uint256 _amount) external onlyOwner{\r\n        IBEP20(_token).safeTransferFrom(msg.sender, address(this), _amount);\r\n        reserveTokenAmount[_token] = reserveTokenAmount[_token].add(_amount);\r\n    }\r\n\r\n    /*\r\n    * Allow token address to be distributed as dividends to sNova holder\r\n    */\r\n    function addTokenToRewards(address _token) external onlyOwner{\r\n        if (!tokenInitialized[_token]){\r\n            registeredToken.push(_token);\r\n            _distributedMoneyPot[_token].lastRewardBlock = lastUpdateMoneyPotBlocks > block.number ? lastUpdateMoneyPotBlocks : lastUpdateMoneyPotBlocks.add(updateMoneyPotPeriodNbBlocks);\r\n            _distributedMoneyPot[_token].accTokenPerShare = 0;\r\n            _distributedMoneyPot[_token].tokenAmount = 0;\r\n            _distributedMoneyPot[_token].lastUpdateTokenPotBlocks = _distributedMoneyPot[_token].lastRewardBlock;\r\n            tokenInitialized[_token] = true;\r\n        }\r\n    }\r\n\r\n    /*\r\n    Remove token address to be distributed as dividends to sNova holder\r\n    */\r\n    function removeTokenToRewards(address _token) external onlyOwner{\r\n        require(_distributedMoneyPot[_token].tokenAmount == 0, \"cannot remove before end of distribution\");\r\n        if (tokenInitialized[_token]){\r\n            uint256 length = registeredToken.length;\r\n            uint256 indexToRemove = length; // If token not found web do not try to remove bad index\r\n            for (uint256 index = 0; index < length; ++index) {\r\n                if(registeredToken[index] == _token){\r\n                    indexToRemove = index;\r\n                    break;\r\n                }\r\n            }\r\n            if(indexToRemove < length){ // Should never be false.. Or something wrong happened\r\n                registeredToken[indexToRemove] = registeredToken[registeredToken.length-1];\r\n                registeredToken.pop();\r\n            }\r\n            tokenInitialized[_token] = false;\r\n            return;\r\n        }\r\n    }\r\n\r\n    /*\r\n     Used by front-end to get the next moneyPot cycle update\r\n     */\r\n    function nextMoneyPotUpdateBlock() external view returns (uint256){\r\n        return lastUpdateMoneyPotBlocks.add(updateMoneyPotPeriodNbBlocks);\r\n    }\r\n\r\n    function addToPendingFromReserveTokenAmount(address _token, uint256 _amount) external onlyOwner{\r\n        require(_amount <= reserveTokenAmount[_token], \"Insufficient amount\");\r\n        reserveTokenAmount[_token] = reserveTokenAmount[_token].sub(_amount);\r\n        pendingTokenAmount[_token] = pendingTokenAmount[_token].add(_amount);\r\n    }\r\n\r\n\r\n    // Safe Token transfer function, just in case if rounding error causes pool to not have enough Tokens.\r\n    function safeTokenTransfer(address _token, address _to, uint256 _amount) internal {\r\n        IBEP20 token = IBEP20(_token);\r\n        uint256 tokenBal = token.balanceOf(address(this));\r\n        bool transferSuccess = false;\r\n        if (_amount > tokenBal) {\r\n            transferSuccess = token.transfer(_to, tokenBal);\r\n        } else {\r\n            transferSuccess = token.transfer(_to, _amount);\r\n        }\r\n        require(transferSuccess, \"safeSNovaTransfer: Transfer failed\");\r\n    }\r\n}\r\n",
  "sourcePath": "D:/Smart Contract Test/ShroomToken/Contracts/shibanova/contracts/ShibaMoneyPot.sol",
  "compiler": {
    "name": "solc",
    "version": "0.6.12+commit.27d51765.Emscripten.clang"
  },
  "schemaVersion": "3.2.3",
  "updatedAt": "2021-07-13T17:19:42.773Z",
  "networkType": "ethereum",
  "devdoc": {
    "kind": "dev",
    "methods": {
      "owner()": {
        "details": "Returns the address of the current owner."
      },
      "renounceOwnership()": {
        "details": "Leaves the contract without owner. It will not be possible to call `onlyOwner` functions anymore. Can only be called by the current owner. NOTE: Renouncing ownership will leave the contract without an owner, thereby removing any functionality that is only available to the owner."
      },
      "transferOwnership(address)": {
        "details": "Transfers ownership of the contract to a new account (`newOwner`). Can only be called by the current owner."
      }
    },
    "version": 1
  },
  "userdoc": {
    "kind": "user",
    "methods": {},
    "version": 1
  }
}