{
  "contractName": "SNovaToken",
  "abi": [
    {
      "inputs": [
        {
          "internalType": "uint256",
          "name": "swapPenaltyMaxPeriod",
          "type": "uint256"
        },
        {
          "internalType": "uint256",
          "name": "swapPenaltyMaxPerSNova",
          "type": "uint256"
        }
      ],
      "stateMutability": "nonpayable",
      "type": "constructor"
    },
    {
      "anonymous": false,
      "inputs": [
        {
          "indexed": true,
          "internalType": "address",
          "name": "owner",
          "type": "address"
        },
        {
          "indexed": true,
          "internalType": "address",
          "name": "spender",
          "type": "address"
        },
        {
          "indexed": false,
          "internalType": "uint256",
          "name": "value",
          "type": "uint256"
        }
      ],
      "name": "Approval",
      "type": "event"
    },
    {
      "anonymous": false,
      "inputs": [
        {
          "indexed": true,
          "internalType": "address",
          "name": "delegator",
          "type": "address"
        },
        {
          "indexed": true,
          "internalType": "address",
          "name": "fromDelegate",
          "type": "address"
        },
        {
          "indexed": true,
          "internalType": "address",
          "name": "toDelegate",
          "type": "address"
        }
      ],
      "name": "DelegateChanged",
      "type": "event"
    },
    {
      "anonymous": false,
      "inputs": [
        {
          "indexed": true,
          "internalType": "address",
          "name": "delegate",
          "type": "address"
        },
        {
          "indexed": false,
          "internalType": "uint256",
          "name": "previousBalance",
          "type": "uint256"
        },
        {
          "indexed": false,
          "internalType": "uint256",
          "name": "newBalance",
          "type": "uint256"
        }
      ],
      "name": "DelegateVotesChanged",
      "type": "event"
    },
    {
      "anonymous": false,
      "inputs": [
        {
          "indexed": true,
          "internalType": "address",
          "name": "previousOwner",
          "type": "address"
        },
        {
          "indexed": true,
          "internalType": "address",
          "name": "newOwner",
          "type": "address"
        }
      ],
      "name": "OwnershipTransferred",
      "type": "event"
    },
    {
      "anonymous": false,
      "inputs": [
        {
          "indexed": true,
          "internalType": "address",
          "name": "from",
          "type": "address"
        },
        {
          "indexed": true,
          "internalType": "address",
          "name": "to",
          "type": "address"
        },
        {
          "indexed": false,
          "internalType": "uint256",
          "name": "value",
          "type": "uint256"
        }
      ],
      "name": "Transfer",
      "type": "event"
    },
    {
      "inputs": [],
      "name": "BURN_ADDRESS",
      "outputs": [
        {
          "internalType": "address",
          "name": "",
          "type": "address"
        }
      ],
      "stateMutability": "view",
      "type": "function"
    },
    {
      "inputs": [],
      "name": "DELEGATION_TYPEHASH",
      "outputs": [
        {
          "internalType": "bytes32",
          "name": "",
          "type": "bytes32"
        }
      ],
      "stateMutability": "view",
      "type": "function"
    },
    {
      "inputs": [],
      "name": "DOMAIN_TYPEHASH",
      "outputs": [
        {
          "internalType": "bytes32",
          "name": "",
          "type": "bytes32"
        }
      ],
      "stateMutability": "view",
      "type": "function"
    },
    {
      "inputs": [],
      "name": "Nova",
      "outputs": [
        {
          "internalType": "contract ShibaBEP20",
          "name": "",
          "type": "address"
        }
      ],
      "stateMutability": "view",
      "type": "function"
    },
    {
      "inputs": [],
      "name": "SWAP_PENALTY_MAX_PERIOD",
      "outputs": [
        {
          "internalType": "uint256",
          "name": "",
          "type": "uint256"
        }
      ],
      "stateMutability": "view",
      "type": "function"
    },
    {
      "inputs": [],
      "name": "SWAP_PENALTY_MAX_PER_SNova",
      "outputs": [
        {
          "internalType": "uint256",
          "name": "",
          "type": "uint256"
        }
      ],
      "stateMutability": "view",
      "type": "function"
    },
    {
      "inputs": [
        {
          "internalType": "address",
          "name": "owner",
          "type": "address"
        },
        {
          "internalType": "address",
          "name": "spender",
          "type": "address"
        }
      ],
      "name": "allowance",
      "outputs": [
        {
          "internalType": "uint256",
          "name": "",
          "type": "uint256"
        }
      ],
      "stateMutability": "view",
      "type": "function"
    },
    {
      "inputs": [
        {
          "internalType": "address",
          "name": "spender",
          "type": "address"
        },
        {
          "internalType": "uint256",
          "name": "amount",
          "type": "uint256"
        }
      ],
      "name": "approve",
      "outputs": [
        {
          "internalType": "bool",
          "name": "",
          "type": "bool"
        }
      ],
      "stateMutability": "nonpayable",
      "type": "function"
    },
    {
      "inputs": [
        {
          "internalType": "address",
          "name": "account",
          "type": "address"
        }
      ],
      "name": "balanceOf",
      "outputs": [
        {
          "internalType": "uint256",
          "name": "",
          "type": "uint256"
        }
      ],
      "stateMutability": "view",
      "type": "function"
    },
    {
      "inputs": [],
      "name": "burnSupply",
      "outputs": [
        {
          "internalType": "uint256",
          "name": "",
          "type": "uint256"
        }
      ],
      "stateMutability": "view",
      "type": "function"
    },
    {
      "inputs": [
        {
          "internalType": "address",
          "name": "",
          "type": "address"
        },
        {
          "internalType": "uint32",
          "name": "",
          "type": "uint32"
        }
      ],
      "name": "checkpoints",
      "outputs": [
        {
          "internalType": "uint32",
          "name": "fromBlock",
          "type": "uint32"
        },
        {
          "internalType": "uint256",
          "name": "votes",
          "type": "uint256"
        }
      ],
      "stateMutability": "view",
      "type": "function"
    },
    {
      "inputs": [],
      "name": "decimals",
      "outputs": [
        {
          "internalType": "uint8",
          "name": "",
          "type": "uint8"
        }
      ],
      "stateMutability": "view",
      "type": "function"
    },
    {
      "inputs": [
        {
          "internalType": "address",
          "name": "spender",
          "type": "address"
        },
        {
          "internalType": "uint256",
          "name": "subtractedValue",
          "type": "uint256"
        }
      ],
      "name": "decreaseAllowance",
      "outputs": [
        {
          "internalType": "bool",
          "name": "",
          "type": "bool"
        }
      ],
      "stateMutability": "nonpayable",
      "type": "function"
    },
    {
      "inputs": [],
      "name": "getOwner",
      "outputs": [
        {
          "internalType": "address",
          "name": "",
          "type": "address"
        }
      ],
      "stateMutability": "view",
      "type": "function"
    },
    {
      "inputs": [
        {
          "internalType": "address",
          "name": "",
          "type": "address"
        }
      ],
      "name": "holdersInfo",
      "outputs": [
        {
          "internalType": "uint256",
          "name": "avgTransactionBlock",
          "type": "uint256"
        }
      ],
      "stateMutability": "view",
      "type": "function"
    },
    {
      "inputs": [
        {
          "internalType": "address",
          "name": "spender",
          "type": "address"
        },
        {
          "internalType": "uint256",
          "name": "addedValue",
          "type": "uint256"
        }
      ],
      "name": "increaseAllowance",
      "outputs": [
        {
          "internalType": "bool",
          "name": "",
          "type": "bool"
        }
      ],
      "stateMutability": "nonpayable",
      "type": "function"
    },
    {
      "inputs": [],
      "name": "moneyPot",
      "outputs": [
        {
          "internalType": "contract IMoneyPot",
          "name": "",
          "type": "address"
        }
      ],
      "stateMutability": "view",
      "type": "function"
    },
    {
      "inputs": [],
      "name": "name",
      "outputs": [
        {
          "internalType": "string",
          "name": "",
          "type": "string"
        }
      ],
      "stateMutability": "view",
      "type": "function"
    },
    {
      "inputs": [
        {
          "internalType": "address",
          "name": "",
          "type": "address"
        }
      ],
      "name": "nonces",
      "outputs": [
        {
          "internalType": "uint256",
          "name": "",
          "type": "uint256"
        }
      ],
      "stateMutability": "view",
      "type": "function"
    },
    {
      "inputs": [
        {
          "internalType": "address",
          "name": "",
          "type": "address"
        }
      ],
      "name": "numCheckpoints",
      "outputs": [
        {
          "internalType": "uint32",
          "name": "",
          "type": "uint32"
        }
      ],
      "stateMutability": "view",
      "type": "function"
    },
    {
      "inputs": [],
      "name": "owner",
      "outputs": [
        {
          "internalType": "address",
          "name": "",
          "type": "address"
        }
      ],
      "stateMutability": "view",
      "type": "function"
    },
    {
      "inputs": [],
      "name": "renounceOwnership",
      "outputs": [],
      "stateMutability": "nonpayable",
      "type": "function"
    },
    {
      "inputs": [],
      "name": "symbol",
      "outputs": [
        {
          "internalType": "string",
          "name": "",
          "type": "string"
        }
      ],
      "stateMutability": "view",
      "type": "function"
    },
    {
      "inputs": [],
      "name": "totalSupply",
      "outputs": [
        {
          "internalType": "uint256",
          "name": "",
          "type": "uint256"
        }
      ],
      "stateMutability": "view",
      "type": "function"
    },
    {
      "inputs": [
        {
          "internalType": "address",
          "name": "recipient",
          "type": "address"
        },
        {
          "internalType": "uint256",
          "name": "amount",
          "type": "uint256"
        }
      ],
      "name": "transfer",
      "outputs": [
        {
          "internalType": "bool",
          "name": "",
          "type": "bool"
        }
      ],
      "stateMutability": "nonpayable",
      "type": "function"
    },
    {
      "inputs": [
        {
          "internalType": "address",
          "name": "sender",
          "type": "address"
        },
        {
          "internalType": "address",
          "name": "recipient",
          "type": "address"
        },
        {
          "internalType": "uint256",
          "name": "amount",
          "type": "uint256"
        }
      ],
      "name": "transferFrom",
      "outputs": [
        {
          "internalType": "bool",
          "name": "",
          "type": "bool"
        }
      ],
      "stateMutability": "nonpayable",
      "type": "function"
    },
    {
      "inputs": [
        {
          "internalType": "address",
          "name": "newOwner",
          "type": "address"
        }
      ],
      "name": "transferOwnership",
      "outputs": [],
      "stateMutability": "nonpayable",
      "type": "function"
    },
    {
      "inputs": [
        {
          "internalType": "contract ShibaBEP20",
          "name": "_Nova",
          "type": "address"
        }
      ],
      "name": "setupNova",
      "outputs": [],
      "stateMutability": "nonpayable",
      "type": "function"
    },
    {
      "inputs": [
        {
          "internalType": "contract IMoneyPot",
          "name": "_moneyPot",
          "type": "address"
        }
      ],
      "name": "setupMoneyPot",
      "outputs": [],
      "stateMutability": "nonpayable",
      "type": "function"
    },
    {
      "inputs": [
        {
          "internalType": "address",
          "name": "_holderAddress",
          "type": "address"
        }
      ],
      "name": "getPenaltyPercent",
      "outputs": [
        {
          "internalType": "uint256",
          "name": "",
          "type": "uint256"
        }
      ],
      "stateMutability": "view",
      "type": "function"
    },
    {
      "inputs": [
        {
          "internalType": "uint256",
          "name": "_amount",
          "type": "uint256"
        }
      ],
      "name": "swapToNova",
      "outputs": [],
      "stateMutability": "nonpayable",
      "type": "function"
    },
    {
      "inputs": [
        {
          "internalType": "address",
          "name": "_holderAddress",
          "type": "address"
        },
        {
          "internalType": "uint256",
          "name": "_sNovaAmount",
          "type": "uint256"
        }
      ],
      "name": "previewSwapNovaExpectedAmount",
      "outputs": [
        {
          "internalType": "uint256",
          "name": "expectedNova",
          "type": "uint256"
        }
      ],
      "stateMutability": "view",
      "type": "function"
    },
    {
      "inputs": [
        {
          "internalType": "address",
          "name": "_to",
          "type": "address"
        },
        {
          "internalType": "uint256",
          "name": "_amount",
          "type": "uint256"
        }
      ],
      "name": "mint",
      "outputs": [],
      "stateMutability": "nonpayable",
      "type": "function"
    },
    {
      "inputs": [
        {
          "internalType": "address",
          "name": "delegator",
          "type": "address"
        }
      ],
      "name": "delegates",
      "outputs": [
        {
          "internalType": "address",
          "name": "",
          "type": "address"
        }
      ],
      "stateMutability": "view",
      "type": "function"
    },
    {
      "inputs": [
        {
          "internalType": "address",
          "name": "delegatee",
          "type": "address"
        }
      ],
      "name": "delegate",
      "outputs": [],
      "stateMutability": "nonpayable",
      "type": "function"
    },
    {
      "inputs": [
        {
          "internalType": "address",
          "name": "delegatee",
          "type": "address"
        },
        {
          "internalType": "uint256",
          "name": "nonce",
          "type": "uint256"
        },
        {
          "internalType": "uint256",
          "name": "expiry",
          "type": "uint256"
        },
        {
          "internalType": "uint8",
          "name": "v",
          "type": "uint8"
        },
        {
          "internalType": "bytes32",
          "name": "r",
          "type": "bytes32"
        },
        {
          "internalType": "bytes32",
          "name": "s",
          "type": "bytes32"
        }
      ],
      "name": "delegateBySig",
      "outputs": [],
      "stateMutability": "nonpayable",
      "type": "function"
    },
    {
      "inputs": [
        {
          "internalType": "address",
          "name": "account",
          "type": "address"
        }
      ],
      "name": "getCurrentVotes",
      "outputs": [
        {
          "internalType": "uint256",
          "name": "",
          "type": "uint256"
        }
      ],
      "stateMutability": "view",
      "type": "function"
    },
    {
      "inputs": [
        {
          "internalType": "address",
          "name": "account",
          "type": "address"
        },
        {
          "internalType": "uint256",
          "name": "blockNumber",
          "type": "uint256"
        }
      ],
      "name": "getPriorVotes",
      "outputs": [
        {
          "internalType": "uint256",
          "name": "",
          "type": "uint256"
        }
      ],
      "stateMutability": "view",
      "type": "function"
    }
  ],
  "bytecode": "0x60c06040526008805461ffff60a01b191690553480156200001f57600080fd5b5060405162002a5638038062002a56833981810160405260408110156200004557600080fd5b508051602091820151604080518082018252601b81527f53686962614e6f766120736861726520746f6b656e20734e6f766100000000008186015281518083019092526005825264734e6f766160d81b94820194909452919290916000620000ac62000161565b600080546001600160a01b0319166001600160a01b0383169081178255604051929350917f8be0079c531659141344cd1fd0a4f28419497f9722a3daafe3b4186f6b6457e0908290a35081516200010b906005906020850190620001cc565b50805162000121906006906020840190620001cc565b505060078054601260ff1990911617905550608082905262000155816402540be40062000165602090811b620016d617901c565b60a05250620002689050565b3390565b6000826200017657506000620001c6565b828202828482816200018457fe5b0414620001c35760405162461bcd60e51b815260040180806020018281038252602181526020018062002a356021913960400191505060405180910390fd5b90505b92915050565b828054600181600116156101000203166002900490600052602060002090601f016020900481019282601f106200020f57805160ff19168380011785556200023f565b828001600101855582156200023f579182015b828111156200023f57825182559160200191906001019062000222565b506200024d92915062000251565b5090565b5b808211156200024d576000815560010162000252565b60805160a051612790620002a5600039806107895280611510528061157552806115a25250806114d1528061155152806115d152506127906000f3fe608060405234801561001057600080fd5b50600436106102325760003560e01c806371c2223111610130578063b4b5ea57116100b8578063dd62ed3e1161007c578063dd62ed3e146106d1578063e7a324dc146106ff578063f1127ed814610707578063f2fde38b14610759578063fccc28131461077f57610232565b8063b4b5ea571461060a578063c1051ce114610630578063c3cda5201461065c578063d918a2d9146106a3578063db8dddae146106c957610232565b80638da5cb5b116100ff5780638da5cb5b1461059a57806395d89b41146105a2578063a457c2d7146105aa578063a9059cbb146105d6578063b03e64781461060257610232565b806371c222311461051a578063782d6fe1146105405780637ecebe001461056c578063893d20e81461059257610232565b806336ae3d1c116101be578063587cde1e11610182578063587cde1e146104615780635c19a95c146104875780636fcfff45146104ad57806370a08231146104ec578063715018a61461051257610232565b806336ae3d1c146103bc57806339509351146103c457806340c10f19146103f05780634f0425ae1461041e5780634fae6a5b1461043b57610232565b80631bb63d0c116102055780631bb63d0c1461031657806320606b701461033a578063208056f01461034257806323b872dd14610368578063313ce5671461039e57610232565b806305f77dcf1461023757806306fdde0314610251578063095ea7b3146102ce57806318160ddd1461030e575b600080fd5b61023f610787565b60408051918252519081900360200190f35b6102596107ab565b6040805160208082528351818301528351919283929083019185019080838360005b8381101561029357818101518382015260200161027b565b50505050905090810190601f1680156102c05780820380516001836020036101000a031916815260200191505b509250505060405180910390f35b6102fa600480360360408110156102e457600080fd5b506001600160a01b038135169060200135610841565b604080519115158252519081900360200190f35b61023f61085f565b61031e610865565b604080516001600160a01b039092168252519081900360200190f35b61023f610874565b61023f6004803603602081101561035857600080fd5b50356001600160a01b0316610898565b6102fa6004803603606081101561037e57600080fd5b506001600160a01b038135811691602081013590911690604001356108aa565b6103a6610931565b6040805160ff9092168252519081900360200190f35b61031e61093a565b6102fa600480360360408110156103da57600080fd5b506001600160a01b03813516906020013561094e565b61041c6004803603604081101561040657600080fd5b506001600160a01b03813516906020013561099c565b005b61041c6004803603602081101561043457600080fd5b5035610ae5565b61041c6004803603602081101561045157600080fd5b50356001600160a01b0316610c67565b61031e6004803603602081101561047757600080fd5b50356001600160a01b0316610d11565b61041c6004803603602081101561049d57600080fd5b50356001600160a01b0316610d32565b6104d3600480360360208110156104c357600080fd5b50356001600160a01b0316610d3f565b6040805163ffffffff9092168252519081900360200190f35b61023f6004803603602081101561050257600080fd5b50356001600160a01b0316610d57565b61041c610d72565b61041c6004803603602081101561053057600080fd5b50356001600160a01b0316610e14565b61023f6004803603604081101561055657600080fd5b506001600160a01b038135169060200135610eb3565b61023f6004803603602081101561058257600080fd5b50356001600160a01b03166110bb565b61031e6110cd565b61031e6110dc565b6102596110eb565b6102fa600480360360408110156105c057600080fd5b506001600160a01b03813516906020013561114c565b6102fa600480360360408110156105ec57600080fd5b506001600160a01b0381351690602001356111b4565b61023f6111c8565b61023f6004803603602081101561062057600080fd5b50356001600160a01b03166111ce565b61023f6004803603604081101561064657600080fd5b506001600160a01b038135169060200135611232565b61041c600480360360c081101561067257600080fd5b506001600160a01b038135169060208101359060408101359060ff6060820135169060808101359060a0013561123e565b61023f600480360360208110156106b957600080fd5b50356001600160a01b03166114b1565b61023f6115cf565b61023f600480360360408110156106e757600080fd5b506001600160a01b03813581169160200135166115f3565b61023f61161e565b6107396004803603604081101561071d57600080fd5b5080356001600160a01b0316906020013563ffffffff16611642565b6040805163ffffffff909316835260208301919091528051918290030190f35b61041c6004803603602081101561076f57600080fd5b50356001600160a01b031661166f565b61031e6116d0565b7f000000000000000000000000000000000000000000000000000000000000000081565b60058054604080516020601f60026000196101006001881615020190951694909404938401819004810282018101909252828152606093909290918301828280156108375780601f1061080c57610100808354040283529160200191610837565b820191906000526020600020905b81548152906001019060200180831161081a57829003601f168201915b5050505050905090565b600061085561084e61172f565b8484611733565b5060015b92915050565b60035490565b6008546001600160a01b031681565b7f8cad95687ba82c2ce50e74f7b754645e5117c3a5bec8151c0726d5857980a86681565b60096020526000908152604090205481565b60006108b784848461181f565b610927846108c361172f565b61092285604051806060016040528060288152602001612578602891396001600160a01b038a1660009081526002602052604081209061090161172f565b6001600160a01b031681526020810191909152604001600020549190611a68565b611733565b5060019392505050565b60075460ff1690565b60075461010090046001600160a01b031681565b600061085561095b61172f565b84610922856002600061096c61172f565b6001600160a01b03908116825260208083019390935260409182016000908120918c168152925290205490611aff565b6109a461172f565b6000546001600160a01b039081169116146109f4576040805162461bcd60e51b815260206004820181905260248201526000805160206125f5833981519152604482015290519081900360640190fd5b6001600160a01b038216600090815260096020526040812090610a1c90849083908590611b59565b8155610a288383611be5565b6001600160a01b038084166000908152600a6020526040812054610a4d921684611ccb565b60075461010090046001600160a01b031615610ae057600760019054906101000a90046001600160a01b03166001600160a01b0316636663d704846040518263ffffffff1660e01b815260040180826001600160a01b03168152602001915050600060405180830381600087803b158015610ac757600080fd5b505af1158015610adb573d6000803e3d6000fd5b505050505b505050565b60008111610b25576040805162461bcd60e51b81526020600482015260086024820152670616d6f756e7420360c41b604482015290519081900360640190fd5b336000610b328284611e08565b6001600160a01b0383166000908152600960205260409020909150610b5b908390856001611b59565b6001600160a01b038316600090815260096020526040902055610b7e8284611e92565b600854604080516340c10f1960e01b81526001600160a01b03858116600483015260248201859052915191909216916340c10f1991604480830192600092919082900301818387803b158015610bd357600080fd5b505af1158015610be7573d6000803e3d6000fd5b505060075461010090046001600160a01b0316159150610ae0905057600760019054906101000a90046001600160a01b03166001600160a01b0316636663d704836040518263ffffffff1660e01b815260040180826001600160a01b03168152602001915050600060405180830381600087803b158015610ac757600080fd5b610c6f61172f565b6000546001600160a01b03908116911614610cbf576040805162461bcd60e51b815260206004820181905260248201526000805160206125f5833981519152604482015290519081900360640190fd5b600854600160a81b900460ff1615610cd657600080fd5b600780546001600160a01b0390921661010002610100600160a81b03199092169190911790556008805460ff60a81b1916600160a81b179055565b6001600160a01b038082166000908152600a6020526040902054165b919050565b610d3c3382611f98565b50565b600c6020526000908152604090205463ffffffff1681565b6001600160a01b031660009081526001602052604090205490565b610d7a61172f565b6000546001600160a01b03908116911614610dca576040805162461bcd60e51b815260206004820181905260248201526000805160206125f5833981519152604482015290519081900360640190fd5b600080546040516001600160a01b03909116907f8be0079c531659141344cd1fd0a4f28419497f9722a3daafe3b4186f6b6457e0908390a3600080546001600160a01b0319169055565b610e1c61172f565b6000546001600160a01b03908116911614610e6c576040805162461bcd60e51b815260206004820181905260248201526000805160206125f5833981519152604482015290519081900360640190fd5b600854600160a01b900460ff1615610e8357600080fd5b6008805460ff60a01b196001600160a01b039093166001600160a01b03199091161791909116600160a01b179055565b6000438210610ef35760405162461bcd60e51b815260040180806020018281038252602781526020018061263b6027913960400191505060405180910390fd5b6001600160a01b0383166000908152600c602052604090205463ffffffff1680610f21576000915050610859565b6001600160a01b0384166000908152600b6020908152604080832063ffffffff600019860181168552925290912054168310610f90576001600160a01b0384166000908152600b602090815260408083206000199490940163ffffffff16835292905220600101549050610859565b6001600160a01b0384166000908152600b6020908152604080832083805290915290205463ffffffff16831015610fcb576000915050610859565b600060001982015b8163ffffffff168163ffffffff16111561108457600282820363ffffffff16048103610ffd6124cf565b506001600160a01b0387166000908152600b6020908152604080832063ffffffff80861685529083529281902081518083019092528054909316808252600190930154918101919091529087141561105f576020015194506108599350505050565b805163ffffffff168711156110765781935061107d565b6001820392505b5050610fd3565b506001600160a01b0385166000908152600b6020908152604080832063ffffffff9094168352929052206001015491505092915050565b600d6020526000908152604090205481565b60006110d76110dc565b905090565b6000546001600160a01b031690565b60068054604080516020601f60026000196101006001881615020190951694909404938401819004810282018101909252828152606093909290918301828280156108375780601f1061080c57610100808354040283529160200191610837565b600061085561115961172f565b84610922856040518060600160405280602581526020016126ab602591396002600061118361172f565b6001600160a01b03908116825260208083019390935260409182016000908120918d16815292529020549190611a68565b60006108556111c161172f565b848461181f565b60045490565b6001600160a01b0381166000908152600c602052604081205463ffffffff16806111f957600061122b565b6001600160a01b0383166000908152600b6020908152604080832063ffffffff60001986011684529091529020600101545b9392505050565b600061122b8383611e08565b60007f8cad95687ba82c2ce50e74f7b754645e5117c3a5bec8151c0726d5857980a8666112696107ab565b8051906020012061127861202d565b60408051602080820195909552808201939093526060830191909152306080808401919091528151808403909101815260a0830182528051908401207fe48329057bfd03d55e49b547132e39cffd9c1820ad7b9d4c5307691425d15adf60c08401526001600160a01b038b1660e084015261010083018a90526101208084018a9052825180850390910181526101408401835280519085012061190160f01b6101608501526101628401829052610182808501829052835180860390910181526101a285018085528151918701919091206000918290526101c2860180865281905260ff8b166101e287015261020286018a90526102228601899052935192965090949293909260019261024280840193601f198301929081900390910190855afa1580156113ab573d6000803e3d6000fd5b5050604051601f1901519150506001600160a01b0381166113fd5760405162461bcd60e51b81526004018080602001828103825260268152602001806126156026913960400191505060405180910390fd5b6001600160a01b0381166000908152600d60205260409020805460018101909155891461145b5760405162461bcd60e51b81526004018080602001828103825260228152602001806125566022913960400191505060405180910390fd5b8742111561149a5760405162461bcd60e51b81526004018080602001828103825260268152602001806126f16026913960400191505060405180910390fd5b6114a4818b611f98565b505050505b505050505050565b6001600160a01b038116600090815260096020526040812080546114f5907f0000000000000000000000000000000000000000000000000000000000000000611aff565b4310611505576000915050610d2d565b8054431415611537577f0000000000000000000000000000000000000000000000000000000000000000915050610d2d565b8054600090611547904390612031565b90506115c76115a07f000000000000000000000000000000000000000000000000000000000000000061159a7f0000000000000000000000000000000000000000000000000000000000000000856116d6565b90612073565b7f000000000000000000000000000000000000000000000000000000000000000090612031565b949350505050565b7f000000000000000000000000000000000000000000000000000000000000000081565b6001600160a01b03918216600090815260026020908152604080832093909416825291909152205490565b7fe48329057bfd03d55e49b547132e39cffd9c1820ad7b9d4c5307691425d15adf81565b600b6020908152600092835260408084209091529082529020805460019091015463ffffffff9091169082565b61167761172f565b6000546001600160a01b039081169116146116c7576040805162461bcd60e51b815260206004820181905260248201526000805160206125f5833981519152604482015290519081900360640190fd5b610d3c816120b5565b61dead81565b6000826116e557506000610859565b828202828482816116f257fe5b041461122b5760405162461bcd60e51b81526004018080602001828103825260218152602001806125d46021913960400191505060405180910390fd5b3390565b6001600160a01b0383166117785760405162461bcd60e51b815260040180806020018281038252602481526020018061250c6024913960400191505060405180910390fd5b6001600160a01b0382166117bd5760405162461bcd60e51b81526004018080602001828103825260228152602001806127396022913960400191505060405180910390fd5b6001600160a01b03808416600081815260026020908152604080832094871680845294825291829020859055815185815291517f8c5be1e5ebec7d5bd14f71427d1e84f3dd0314c0f7b2291e5b200ac8c7c3b9259281900390910190a3505050565b6001600160a01b0383166000908152600960205260409020611845908490836001611b59565b6001600160a01b03808516600090815260096020526040902091909155821661dead141561190f576118778382611e92565b60075461010090046001600160a01b03161561190a57600760019054906101000a90046001600160a01b03166001600160a01b0316636663d704846040518263ffffffff1660e01b815260040180826001600160a01b03168152602001915050600060405180830381600087803b1580156118f157600080fd5b505af1158015611905573d6000803e3d6000fd5b505050505b610ae0565b6001600160a01b0382166000908152600960205260408120611935918491908490611b59565b6001600160a01b038316600090815260096020526040902055611959838383612155565b60075461010090046001600160a01b031615610ae057600760019054906101000a90046001600160a01b03166001600160a01b0316636663d704846040518263ffffffff1660e01b815260040180826001600160a01b03168152602001915050600060405180830381600087803b1580156119d357600080fd5b505af11580156119e7573d6000803e3d6000fd5b50505050816001600160a01b0316836001600160a01b031614610ae057600760019054906101000a90046001600160a01b03166001600160a01b0316636663d704836040518263ffffffff1660e01b815260040180826001600160a01b03168152602001915050600060405180830381600087803b158015610ac757600080fd5b60008184841115611af75760405162461bcd60e51b81526004018080602001828103825283818151815260200191508051906020019080838360005b83811015611abc578181015183820152602001611aa4565b50505050905090810190601f168015611ae95780820380516001836020036101000a031916815260200191505b509250505060405180910390fd5b505050900390565b60008282018381101561122b576040805162461bcd60e51b815260206004820152601b60248201527f536166654d6174683a206164646974696f6e206f766572666c6f770000000000604482015290519081900360640190fd5b6000611b6485610d57565b611b6f5750436115c7565b60008215611b9a5783611b8187610d57565b1415611b915760009150506115c7565b505082546115c7565b611bc2611ba743866116d6565b8654611bbc90611bb68a610d57565b906116d6565b90611aff565b9050611bdb611bd485611bbc89610d57565b8290612073565b9695505050505050565b6001600160a01b038216611c40576040805162461bcd60e51b815260206004820152601f60248201527f42455032303a206d696e7420746f20746865207a65726f206164647265737300604482015290519081900360640190fd5b600354611c4d9082611aff565b6003556001600160a01b038216600090815260016020526040902054611c739082611aff565b6001600160a01b03831660008181526001602090815260408083209490945583518581529351929391927fddf252ad1be2c89b69c2b068fc378daa952ba7f163c4a11628f55a4df523b3ef9281900390910190a35050565b816001600160a01b0316836001600160a01b031614158015611ced5750600081115b15610ae0576001600160a01b03831615611d7f576001600160a01b0383166000908152600c602052604081205463ffffffff169081611d2d576000611d5f565b6001600160a01b0385166000908152600b6020908152604080832063ffffffff60001987011684529091529020600101545b90506000611d6d8285612031565b9050611d7b868484846122a7565b5050505b6001600160a01b03821615610ae0576001600160a01b0382166000908152600c602052604081205463ffffffff169081611dba576000611dec565b6001600160a01b0384166000908152600b6020908152604080832063ffffffff60001987011684529091529020600101545b90506000611dfa8285611aff565b90506114a9858484846122a7565b600081611e1484610d57565b1015611e5a576040805162461bcd60e51b815260206004820152601060248201526f4e6f7420656e6f75676820734e6f766160801b604482015290519081900360640190fd5b6000611e65846114b1565b905080611e755782915050610859565b6115c7611e8b64e8d4a5100061159a86856116d6565b8490612031565b6001600160a01b03821661dead1415611edc5760405162461bcd60e51b81526004018080602001828103825260218152602001806126d06021913960400191505060405180910390fd5b611f1981604051806060016040528060228152602001612717602291396001600160a01b0385166000908152600160205260409020549190611a68565b6001600160a01b038316600090815260016020526040902055600354611f3f9082612031565b600355600454611f4f9082611aff565b60045560408051828152905161dead916001600160a01b038516917fddf252ad1be2c89b69c2b068fc378daa952ba7f163c4a11628f55a4df523b3ef9181900360200190a35050565b6001600160a01b038083166000908152600a602052604081205490911690611fbf84610d57565b6001600160a01b038581166000818152600a602052604080822080546001600160a01b031916898616908117909155905194955093928616927f3134e8a2e6d97e929a7e54011ea5485d7d196dd5f0ba4d4ef95803e8e3fc257f9190a4612027828483611ccb565b50505050565b4690565b600061122b83836040518060400160405280601e81526020017f536166654d6174683a207375627472616374696f6e206f766572666c6f770000815250611a68565b600061122b83836040518060400160405280601a81526020017f536166654d6174683a206469766973696f6e206279207a65726f00000000000081525061240c565b6001600160a01b0381166120fa5760405162461bcd60e51b81526004018080602001828103825260268152602001806125306026913960400191505060405180910390fd5b600080546040516001600160a01b03808516939216917f8be0079c531659141344cd1fd0a4f28419497f9722a3daafe3b4186f6b6457e091a3600080546001600160a01b0319166001600160a01b0392909216919091179055565b6001600160a01b03831661219a5760405162461bcd60e51b81526004018080602001828103825260258152602001806124e76025913960400191505060405180910390fd5b6001600160a01b0382166121df5760405162461bcd60e51b81526004018080602001828103825260238152602001806126886023913960400191505060405180910390fd5b61221c81604051806060016040528060268152602001612662602691396001600160a01b0386166000908152600160205260409020549190611a68565b6001600160a01b03808516600090815260016020526040808220939093559084168152205461224b9082611aff565b6001600160a01b0380841660008181526001602090815260409182902094909455805185815290519193928716927fddf252ad1be2c89b69c2b068fc378daa952ba7f163c4a11628f55a4df523b3ef92918290030190a3505050565b60006122cb436040518060600160405280603481526020016125a060349139612471565b905060008463ffffffff1611801561231457506001600160a01b0385166000908152600b6020908152604080832063ffffffff6000198901811685529252909120548282169116145b15612351576001600160a01b0385166000908152600b6020908152604080832063ffffffff600019890116845290915290206001018290556123c2565b60408051808201825263ffffffff808416825260208083018681526001600160a01b038a166000818152600b84528681208b8616825284528681209551865490861663ffffffff199182161787559251600196870155908152600c9092529390208054928801909116919092161790555b604080518481526020810184905281516001600160a01b038816927fdec2bacdd2f05b59de34da9b523dff8be42e5e38e818c82fdb0bae774387a724928290030190a25050505050565b6000818361245b5760405162461bcd60e51b8152602060048201818152835160248401528351909283926044909101919085019080838360008315611abc578181015183820152602001611aa4565b50600083858161246757fe5b0495945050505050565b60008164010000000084106124c75760405162461bcd60e51b8152602060048201818152835160248401528351909283926044909101919085019080838360008315611abc578181015183820152602001611aa4565b509192915050565b60408051808201909152600080825260208201529056fe42455032303a207472616e736665722066726f6d20746865207a65726f206164647265737342455032303a20617070726f76652066726f6d20746865207a65726f20616464726573734f776e61626c653a206e6577206f776e657220697320746865207a65726f20616464726573734e6f76613a3a64656c656761746542795369673a20696e76616c6964206e6f6e636542455032303a207472616e7366657220616d6f756e74206578636565647320616c6c6f77616e63654e6f76613a3a5f7772697465436865636b706f696e743a20626c6f636b206e756d62657220657863656564732033322062697473536166654d6174683a206d756c7469706c69636174696f6e206f766572666c6f774f776e61626c653a2063616c6c6572206973206e6f7420746865206f776e65724e6f76613a3a64656c656761746542795369673a20696e76616c6964207369676e61747572654e6f76613a3a6765745072696f72566f7465733a206e6f74207965742064657465726d696e656442455032303a207472616e7366657220616d6f756e7420657863656564732062616c616e636542455032303a207472616e7366657220746f20746865207a65726f206164647265737342455032303a2064656372656173656420616c6c6f77616e63652062656c6f77207a65726f42455032303a206275726e2066726f6d20746865207a65726f20616464726573734e6f76613a3a64656c656761746542795369673a207369676e6174757265206578706972656442455032303a206275726e20616d6f756e7420657863656564732062616c616e636542455032303a20617070726f766520746f20746865207a65726f2061646472657373a26469706673582212203f74f754bd46c4afd931efda9c4babc423a7f194da4e9d3ea9cf82b00ce86f0964736f6c634300060c0033536166654d6174683a206d756c7469706c69636174696f6e206f766572666c6f77",
  "immutableReferences": {
    "2434": [
      {
        "length": 32,
        "start": 5329
      },
      {
        "length": 32,
        "start": 5457
      },
      {
        "length": 32,
        "start": 5585
      }
    ],
    "2436": [
      {
        "length": 32,
        "start": 1929
      },
      {
        "length": 32,
        "start": 5392
      },
      {
        "length": 32,
        "start": 5493
      },
      {
        "length": 32,
        "start": 5538
      }
    ]
  },
  "source": "// SPDX-License-Identifier: MIT\r\n\r\npragma solidity 0.6.12;\r\n\r\nimport \"./libs/SafeMath.sol\";\r\nimport \"./libs/ShibaBEP20.sol\";\r\nimport \"./interfaces/IMoneyPot.sol\";\r\n\r\n// SNovaToken with Governance.\r\ncontract SNovaToken is ShibaBEP20(\"ShibaNova share token sNova\", \"sNova\") {\r\n    using SafeMath for uint256;\r\n\r\n    struct HolderInfo {\r\n        uint256 avgTransactionBlock;\r\n    }\r\n\r\n\r\n    IMoneyPot public moneyPot;\r\n    ShibaBEP20 public Nova;\r\n    bool private _isNovaSetup = false;\r\n    bool private _isMoneyPotSetup = false;\r\n\r\n    uint256 public immutable SWAP_PENALTY_MAX_PERIOD ; // after 72h penalty of holding sNova. Swap penalty is at the minimum\r\n    uint256 public immutable SWAP_PENALTY_MAX_PER_SNova ; // 30% => 1 sNova = 0.3 Nova\r\n\r\n    mapping(address => HolderInfo) public holdersInfo;\r\n\r\n    constructor (uint256 swapPenaltyMaxPeriod, uint256 swapPenaltyMaxPerSNova) public{\r\n        SWAP_PENALTY_MAX_PERIOD = swapPenaltyMaxPeriod; // default 28800: after 24h penalty of holding sNova. Swap penalty is at the minimum\r\n        SWAP_PENALTY_MAX_PER_SNova = swapPenaltyMaxPerSNova.mul(1e10); // default: 30, 30% => 1 sNova = 0.3 Nova\r\n    }\r\n\r\n    function setupNova(ShibaBEP20 _Nova) external onlyOwner {\r\n        require(!_isNovaSetup);\r\n        Nova = _Nova;\r\n        _isNovaSetup = true;\r\n    }\r\n\r\n    function setupMoneyPot(IMoneyPot _moneyPot) external onlyOwner {\r\n        require(!_isMoneyPotSetup);\r\n        moneyPot = _moneyPot;\r\n        _isMoneyPotSetup = true;\r\n    }\r\n\r\n    /* Calculate the penality for swapping sNova to Nova for a user.\r\n       The penality decrease over time (by holding duration).\r\n       From SWAP_PENALTY_MAX_PER_SNova % to 0% on SWAP_PENALTY_MAX_PERIOD\r\n    */\r\n    function getPenaltyPercent(address _holderAddress) public view returns (uint256){\r\n        HolderInfo storage holderInfo = holdersInfo[_holderAddress];\r\n        if(block.number >= holderInfo.avgTransactionBlock.add(SWAP_PENALTY_MAX_PERIOD)){\r\n            return 0;\r\n        }\r\n        if(block.number == holderInfo.avgTransactionBlock){\r\n            return SWAP_PENALTY_MAX_PER_SNova;\r\n        }\r\n        uint256 avgHoldingDuration = block.number.sub(holderInfo.avgTransactionBlock);\r\n        return SWAP_PENALTY_MAX_PER_SNova.sub(\r\n            SWAP_PENALTY_MAX_PER_SNova.mul(avgHoldingDuration).div(SWAP_PENALTY_MAX_PERIOD)\r\n        );\r\n    }\r\n\r\n    /* Allow use to exchange (swap) their sNova to Nova */\r\n    function swapToNova(uint256 _amount) external {\r\n        require(_amount > 0, \"amount 0\");\r\n        address _from = msg.sender;\r\n        uint256 NovaAmount = _swapNovaAmount( _from, _amount);\r\n        holdersInfo[_from].avgTransactionBlock = _getAvgTransactionBlock(_from, holdersInfo[_from], _amount, true);\r\n        super._burn(_from, _amount);\r\n        Nova.mint(_from, NovaAmount);\r\n\r\n        if (address(moneyPot) != address(0)) {\r\n            moneyPot.updateSNovaHolder(_from);\r\n        }\r\n    }\r\n\r\n    /* @notice Preview swap return in Nova with _sNovaAmount by _holderAddress\r\n    *  this function is used by front-end to show how much Nova will be retrieve if _holderAddress swap _sNovaAmount\r\n    */\r\n    function previewSwapNovaExpectedAmount(address _holderAddress, uint256 _sNovaAmount) external view returns (uint256 expectedNova){\r\n        return _swapNovaAmount( _holderAddress, _sNovaAmount);\r\n    }\r\n\r\n    /* @notice Calculate the adjustment for a user if he want to swap _sNovaAmount to Nova */\r\n    function _swapNovaAmount(address _holderAddress, uint256 _sNovaAmount) internal view returns (uint256 expectedNova){\r\n        require(balanceOf(_holderAddress) >= _sNovaAmount, \"Not enough sNova\");\r\n        uint256 penalty = getPenaltyPercent(_holderAddress);\r\n        if(penalty == 0){\r\n            return _sNovaAmount;\r\n        }\r\n\r\n        return _sNovaAmount.sub(_sNovaAmount.mul(penalty).div(1e12));\r\n    }\r\n\r\n    /* @notice Calculate average deposit/withdraw block for _holderAddress */\r\n    function _getAvgTransactionBlock(address _holderAddress, HolderInfo storage holderInfo, uint256 _sNovaAmount, bool _onWithdraw) internal view returns (uint256){\r\n        if (balanceOf(_holderAddress) == 0) {\r\n            return block.number;\r\n        }\r\n        uint256 transactionBlockWeight;\r\n        if (_onWithdraw) {\r\n            if (balanceOf(_holderAddress) == _sNovaAmount) {\r\n                return 0;\r\n            }\r\n            else {\r\n                return holderInfo.avgTransactionBlock;\r\n            }\r\n        }\r\n        else {\r\n            transactionBlockWeight = (balanceOf(_holderAddress).mul(holderInfo.avgTransactionBlock).add(block.number.mul(_sNovaAmount)));\r\n        }\r\n        return transactionBlockWeight.div(balanceOf(_holderAddress).add(_sNovaAmount));\r\n    }\r\n\r\n\r\n    /// @notice Creates `_amount` token to `_to`.\r\n    function mint(address _to, uint256 _amount) external virtual override onlyOwner {\r\n        HolderInfo storage holder = holdersInfo[_to];\r\n        holder.avgTransactionBlock = _getAvgTransactionBlock(_to, holder, _amount, false);\r\n        _mint(_to, _amount);\r\n        _moveDelegates(address(0), _delegates[_to], _amount);\r\n\r\n        if (address(moneyPot) != address(0)) {\r\n            moneyPot.updateSNovaHolder(_to);\r\n        }\r\n    }\r\n\r\n    /// @dev overrides transfer function to meet tokenomics of SNova\r\n    function _transfer(address _sender, address _recipient, uint256 _amount) internal virtual override {\r\n        holdersInfo[_sender].avgTransactionBlock = _getAvgTransactionBlock(_sender, holdersInfo[_sender], _amount, true);\r\n        if (_recipient == BURN_ADDRESS) {\r\n            super._burn(_sender, _amount);\r\n            if (address(moneyPot) != address(0)) {\r\n                moneyPot.updateSNovaHolder(_sender);\r\n            }\r\n        } else {\r\n            holdersInfo[_recipient].avgTransactionBlock = _getAvgTransactionBlock(_recipient, holdersInfo[_recipient], _amount, false);\r\n            super._transfer(_sender, _recipient, _amount);\r\n\r\n            if (address(moneyPot) != address(0)) {\r\n                moneyPot.updateSNovaHolder(_sender);\r\n                if (_sender != _recipient){\r\n                    moneyPot.updateSNovaHolder(_recipient);\r\n                }\r\n            }\r\n        }\r\n    }\r\n\r\n    // Copied and modified from YAM code:\r\n    // https://github.com/yam-finance/yam-protocol/blob/master/contracts/token/YAMGovernanceStorage.sol\r\n    // https://github.com/yam-finance/yam-protocol/blob/master/contracts/token/YAMGovernance.sol\r\n    // Which is copied and modified from COMPOUND:\r\n    // https://github.com/compound-finance/compound-protocol/blob/master/contracts/Governance/Comp.sol\r\n\r\n    /// @dev A record of each accounts delegate\r\n    mapping(address => address) internal _delegates;\r\n\r\n    /// @notice A checkpoint for marking number of votes from a given block\r\n    struct Checkpoint {\r\n        uint32 fromBlock;\r\n        uint256 votes;\r\n    }\r\n\r\n    /// @notice A record of votes checkpoints for each account, by index\r\n    mapping(address => mapping(uint32 => Checkpoint)) public checkpoints;\r\n\r\n    /// @notice The number of checkpoints for each account\r\n    mapping(address => uint32) public numCheckpoints;\r\n\r\n    /// @notice The EIP-712 typehash for the contract's domain\r\n    bytes32 public constant DOMAIN_TYPEHASH =\r\n    keccak256(\"EIP712Domain(string name,uint256 chainId,address verifyingContract)\");\r\n\r\n    /// @notice The EIP-712 typehash for the delegation struct used by the contract\r\n    bytes32 public constant DELEGATION_TYPEHASH =\r\n    keccak256(\"Delegation(address delegatee,uint256 nonce,uint256 expiry)\");\r\n\r\n    /// @notice A record of states for signing / validating signatures\r\n    mapping(address => uint) public nonces;\r\n\r\n    /// @notice An event thats emitted when an account changes its delegate\r\n    event DelegateChanged(address indexed delegator, address indexed fromDelegate, address indexed toDelegate);\r\n\r\n    /// @notice An event thats emitted when a delegate account's vote balance changes\r\n    event DelegateVotesChanged(address indexed delegate, uint previousBalance, uint newBalance);\r\n\r\n    /**\r\n     * @notice Delegate votes from `msg.sender` to `delegatee`\r\n     * @param delegator The address to get delegatee for\r\n     */\r\n    function delegates(address delegator)\r\n    external\r\n    view\r\n    returns (address)\r\n    {\r\n        return _delegates[delegator];\r\n    }\r\n\r\n    /**\r\n     * @notice Delegate votes from `msg.sender` to `delegatee`\r\n     * @param delegatee The address to delegate votes to\r\n     */\r\n    function delegate(address delegatee) external {\r\n        return _delegate(msg.sender, delegatee);\r\n    }\r\n\r\n    /**\r\n     * @notice Delegates votes from signatory to `delegatee`\r\n     * @param delegatee The address to delegate votes to\r\n     * @param nonce The contract state required to match the signature\r\n     * @param expiry The time at which to expire the signature\r\n     * @param v The recovery byte of the signature\r\n     * @param r Half of the ECDSA signature pair\r\n     * @param s Half of the ECDSA signature pair\r\n     */\r\n    function delegateBySig(\r\n        address delegatee,\r\n        uint nonce,\r\n        uint expiry,\r\n        uint8 v,\r\n        bytes32 r,\r\n        bytes32 s\r\n    )\r\n    external\r\n    {\r\n        bytes32 domainSeparator = keccak256(\r\n            abi.encode(\r\n                DOMAIN_TYPEHASH,\r\n                keccak256(bytes(name())),\r\n                getChainId(),\r\n                address(this)\r\n            )\r\n        );\r\n\r\n        bytes32 structHash = keccak256(\r\n            abi.encode(\r\n                DELEGATION_TYPEHASH,\r\n                delegatee,\r\n                nonce,\r\n                expiry\r\n            )\r\n        );\r\n\r\n        bytes32 digest = keccak256(\r\n            abi.encodePacked(\r\n                \"\\x19\\x01\",\r\n                domainSeparator,\r\n                structHash\r\n            )\r\n        );\r\n\r\n        address signatory = ecrecover(digest, v, r, s);\r\n        require(signatory != address(0), \"Nova::delegateBySig: invalid signature\");\r\n        require(nonce == nonces[signatory]++, \"Nova::delegateBySig: invalid nonce\");\r\n        require(now <= expiry, \"Nova::delegateBySig: signature expired\");\r\n        return _delegate(signatory, delegatee);\r\n    }\r\n\r\n    /**\r\n     * @notice Gets the current votes balance for `account`\r\n     * @param account The address to get votes balance\r\n     * @return The number of current votes for `account`\r\n     */\r\n    function getCurrentVotes(address account)\r\n    external\r\n    view\r\n    returns (uint256)\r\n    {\r\n        uint32 nCheckpoints = numCheckpoints[account];\r\n        return nCheckpoints > 0 ? checkpoints[account][nCheckpoints - 1].votes : 0;\r\n    }\r\n\r\n    /**\r\n     * @notice Determine the prior number of votes for an account as of a block number\r\n     * @dev Block number must be a finalized block or else this function will revert to prevent misinformation.\r\n     * @param account The address of the account to check\r\n     * @param blockNumber The block number to get the vote balance at\r\n     * @return The number of votes the account had as of the given block\r\n     */\r\n    function getPriorVotes(address account, uint blockNumber)\r\n    external\r\n    view\r\n    returns (uint256)\r\n    {\r\n        require(blockNumber < block.number, \"Nova::getPriorVotes: not yet determined\");\r\n\r\n        uint32 nCheckpoints = numCheckpoints[account];\r\n        if (nCheckpoints == 0) {\r\n            return 0;\r\n        }\r\n\r\n        // First check most recent balance\r\n        if (checkpoints[account][nCheckpoints - 1].fromBlock <= blockNumber) {\r\n            return checkpoints[account][nCheckpoints - 1].votes;\r\n        }\r\n\r\n        // Next check implicit zero balance\r\n        if (checkpoints[account][0].fromBlock > blockNumber) {\r\n            return 0;\r\n        }\r\n\r\n        uint32 lower = 0;\r\n        uint32 upper = nCheckpoints - 1;\r\n        while (upper > lower) {\r\n            uint32 center = upper - (upper - lower) / 2;\r\n            // ceil, avoiding overflow\r\n            Checkpoint memory cp = checkpoints[account][center];\r\n            if (cp.fromBlock == blockNumber) {\r\n                return cp.votes;\r\n            } else if (cp.fromBlock < blockNumber) {\r\n                lower = center;\r\n            } else {\r\n                upper = center - 1;\r\n            }\r\n        }\r\n        return checkpoints[account][lower].votes;\r\n    }\r\n\r\n    function _delegate(address delegator, address delegatee)\r\n    internal\r\n    {\r\n        address currentDelegate = _delegates[delegator];\r\n        uint256 delegatorBalance = balanceOf(delegator);\r\n        // balance of underlying Novas (not scaled);\r\n        _delegates[delegator] = delegatee;\r\n\r\n        emit DelegateChanged(delegator, currentDelegate, delegatee);\r\n\r\n        _moveDelegates(currentDelegate, delegatee, delegatorBalance);\r\n    }\r\n\r\n    function _moveDelegates(address srcRep, address dstRep, uint256 amount) internal {\r\n        if (srcRep != dstRep && amount > 0) {\r\n            if (srcRep != address(0)) {\r\n                // decrease old representative\r\n                uint32 srcRepNum = numCheckpoints[srcRep];\r\n                uint256 srcRepOld = srcRepNum > 0 ? checkpoints[srcRep][srcRepNum - 1].votes : 0;\r\n                uint256 srcRepNew = srcRepOld.sub(amount);\r\n                _writeCheckpoint(srcRep, srcRepNum, srcRepOld, srcRepNew);\r\n            }\r\n\r\n            if (dstRep != address(0)) {\r\n                // increase new representative\r\n                uint32 dstRepNum = numCheckpoints[dstRep];\r\n                uint256 dstRepOld = dstRepNum > 0 ? checkpoints[dstRep][dstRepNum - 1].votes : 0;\r\n                uint256 dstRepNew = dstRepOld.add(amount);\r\n                _writeCheckpoint(dstRep, dstRepNum, dstRepOld, dstRepNew);\r\n            }\r\n        }\r\n    }\r\n\r\n    function _writeCheckpoint(\r\n        address delegatee,\r\n        uint32 nCheckpoints,\r\n        uint256 oldVotes,\r\n        uint256 newVotes\r\n    )\r\n    internal\r\n    {\r\n        uint32 blockNumber = safe32(block.number, \"Nova::_writeCheckpoint: block number exceeds 32 bits\");\r\n\r\n        if (nCheckpoints > 0 && checkpoints[delegatee][nCheckpoints - 1].fromBlock == blockNumber) {\r\n            checkpoints[delegatee][nCheckpoints - 1].votes = newVotes;\r\n        } else {\r\n            checkpoints[delegatee][nCheckpoints] = Checkpoint(blockNumber, newVotes);\r\n            numCheckpoints[delegatee] = nCheckpoints + 1;\r\n        }\r\n\r\n        emit DelegateVotesChanged(delegatee, oldVotes, newVotes);\r\n    }\r\n\r\n    function safe32(uint n, string memory errorMessage) internal pure returns (uint32) {\r\n        require(n < 2 ** 32, errorMessage);\r\n        return uint32(n);\r\n    }\r\n\r\n    function getChainId() internal pure returns (uint) {\r\n        uint256 chainId;\r\n        assembly {chainId := chainid()}\r\n        return chainId;\r\n    }\r\n}",
  "sourcePath": "D:/DeployShiba/shibanova/contracts/SNovaToken.sol",
  "compiler": {
    "name": "solc",
    "version": "0.6.12+commit.27d51765.Emscripten.clang"
  },
  "schemaVersion": "3.4.0",
  "updatedAt": "2021-05-25T18:22:43.718Z",
  "devdoc": {
    "kind": "dev",
    "methods": {
      "allowance(address,address)": {
        "details": "See {BEP20-allowance}."
      },
      "approve(address,uint256)": {
        "details": "See {BEP20-approve}. Requirements: - `spender` cannot be the zero address."
      },
      "balanceOf(address)": {
        "details": "See {BEP20-balanceOf}."
      },
      "burnSupply()": {
        "details": "See {BEP20-totalSupply}."
      },
      "decimals()": {
        "details": "Returns the token decimals."
      },
      "decreaseAllowance(address,uint256)": {
        "details": "Atomically decreases the allowance granted to `spender` by the caller. This is an alternative to {approve} that can be used as a mitigation for problems described in {BEP20-approve}. Emits an {Approval} event indicating the updated allowance. Requirements: - `spender` cannot be the zero address. - `spender` must have allowance for the caller of at least `subtractedValue`."
      },
      "delegate(address)": {
        "params": {
          "delegatee": "The address to delegate votes to"
        }
      },
      "delegateBySig(address,uint256,uint256,uint8,bytes32,bytes32)": {
        "params": {
          "delegatee": "The address to delegate votes to",
          "expiry": "The time at which to expire the signature",
          "nonce": "The contract state required to match the signature",
          "r": "Half of the ECDSA signature pair",
          "s": "Half of the ECDSA signature pair",
          "v": "The recovery byte of the signature"
        }
      },
      "delegates(address)": {
        "params": {
          "delegator": "The address to get delegatee for"
        }
      },
      "getCurrentVotes(address)": {
        "params": {
          "account": "The address to get votes balance"
        },
        "returns": {
          "_0": "The number of current votes for `account`"
        }
      },
      "getOwner()": {
        "details": "Returns the bep token owner."
      },
      "getPriorVotes(address,uint256)": {
        "details": "Block number must be a finalized block or else this function will revert to prevent misinformation.",
        "params": {
          "account": "The address of the account to check",
          "blockNumber": "The block number to get the vote balance at"
        },
        "returns": {
          "_0": "The number of votes the account had as of the given block"
        }
      },
      "increaseAllowance(address,uint256)": {
        "details": "Atomically increases the allowance granted to `spender` by the caller. This is an alternative to {approve} that can be used as a mitigation for problems described in {BEP20-approve}. Emits an {Approval} event indicating the updated allowance. Requirements: - `spender` cannot be the zero address."
      },
      "name()": {
        "details": "Returns the token name."
      },
      "owner()": {
        "details": "Returns the address of the current owner."
      },
      "renounceOwnership()": {
        "details": "Leaves the contract without owner. It will not be possible to call `onlyOwner` functions anymore. Can only be called by the current owner. NOTE: Renouncing ownership will leave the contract without an owner, thereby removing any functionality that is only available to the owner."
      },
      "symbol()": {
        "details": "Returns the token symbol."
      },
      "totalSupply()": {
        "details": "See {BEP20-totalSupply}."
      },
      "transfer(address,uint256)": {
        "details": "See {BEP20-transfer}. Requirements: - `recipient` cannot be the zero address. - the caller must have a balance of at least `amount`."
      },
      "transferFrom(address,address,uint256)": {
        "details": "See {BEP20-transferFrom}. Emits an {Approval} event indicating the updated allowance. This is not required by the EIP. See the note at the beginning of {BEP20}; Requirements: - `sender` and `recipient` cannot be the zero address. - `sender` must have a balance of at least `amount`. - the caller must have allowance for `sender`'s tokens of at least `amount`."
      },
      "transferOwnership(address)": {
        "details": "Transfers ownership of the contract to a new account (`newOwner`). Can only be called by the current owner."
      }
    },
    "stateVariables": {
      "_delegates": {
        "details": "A record of each accounts delegate"
      }
    },
    "version": 1
  },
  "userdoc": {
    "events": {
      "DelegateChanged(address,address,address)": {
        "notice": "An event thats emitted when an account changes its delegate"
      },
      "DelegateVotesChanged(address,uint256,uint256)": {
        "notice": "An event thats emitted when a delegate account's vote balance changes"
      }
    },
    "kind": "user",
    "methods": {
      "DELEGATION_TYPEHASH()": {
        "notice": "The EIP-712 typehash for the delegation struct used by the contract"
      },
      "DOMAIN_TYPEHASH()": {
        "notice": "The EIP-712 typehash for the contract's domain"
      },
      "checkpoints(address,uint32)": {
        "notice": "A record of votes checkpoints for each account, by index"
      },
      "delegate(address)": {
        "notice": "Delegate votes from `msg.sender` to `delegatee`"
      },
      "delegateBySig(address,uint256,uint256,uint8,bytes32,bytes32)": {
        "notice": "Delegates votes from signatory to `delegatee`"
      },
      "delegates(address)": {
        "notice": "Delegate votes from `msg.sender` to `delegatee`"
      },
      "getCurrentVotes(address)": {
        "notice": "Gets the current votes balance for `account`"
      },
      "getPriorVotes(address,uint256)": {
        "notice": "Determine the prior number of votes for an account as of a block number"
      },
      "mint(address,uint256)": {
        "notice": "Creates `_amount` token to `_to`."
      },
      "nonces(address)": {
        "notice": "A record of states for signing / validating signatures"
      },
      "numCheckpoints(address)": {
        "notice": "The number of checkpoints for each account"
      }
    },
    "version": 1
  }
}