{
  "contractName": "MasterShiba",
  "abi": [
    {
      "inputs": [
        {
          "internalType": "contract ShibaBEP20",
          "name": "_Nova",
          "type": "address"
        },
        {
          "internalType": "contract ShibaBEP20",
          "name": "_sNova",
          "type": "address"
        },
        {
          "internalType": "contract ShibaBonusAggregator",
          "name": "_bonusAggregator",
          "type": "address"
        },
        {
          "internalType": "address",
          "name": "_devaddr",
          "type": "address"
        },
        {
          "internalType": "address",
          "name": "_feeAddress",
          "type": "address"
        },
        {
          "internalType": "uint256",
          "name": "_NovaPerBlock",
          "type": "uint256"
        },
        {
          "internalType": "uint256",
          "name": "_startBlock",
          "type": "uint256"
        }
      ],
      "stateMutability": "nonpayable",
      "type": "constructor"
    },
    {
      "anonymous": false,
      "inputs": [
        {
          "indexed": true,
          "internalType": "address",
          "name": "user",
          "type": "address"
        },
        {
          "indexed": true,
          "internalType": "uint256",
          "name": "pid",
          "type": "uint256"
        },
        {
          "indexed": false,
          "internalType": "uint256",
          "name": "amount",
          "type": "uint256"
        }
      ],
      "name": "Deposit",
      "type": "event"
    },
    {
      "anonymous": false,
      "inputs": [
        {
          "indexed": true,
          "internalType": "address",
          "name": "user",
          "type": "address"
        },
        {
          "indexed": true,
          "internalType": "uint256",
          "name": "pid",
          "type": "uint256"
        },
        {
          "indexed": false,
          "internalType": "uint256",
          "name": "amount",
          "type": "uint256"
        }
      ],
      "name": "EmergencyWithdraw",
      "type": "event"
    },
    {
      "anonymous": false,
      "inputs": [
        {
          "indexed": true,
          "internalType": "address",
          "name": "caller",
          "type": "address"
        },
        {
          "indexed": false,
          "internalType": "uint256",
          "name": "previousAmount",
          "type": "uint256"
        },
        {
          "indexed": false,
          "internalType": "uint256",
          "name": "newAmount",
          "type": "uint256"
        }
      ],
      "name": "EmissionRateUpdated",
      "type": "event"
    },
    {
      "anonymous": false,
      "inputs": [
        {
          "indexed": true,
          "internalType": "address",
          "name": "previousOwner",
          "type": "address"
        },
        {
          "indexed": true,
          "internalType": "address",
          "name": "newOwner",
          "type": "address"
        }
      ],
      "name": "OwnershipTransferred",
      "type": "event"
    },
    {
      "anonymous": false,
      "inputs": [
        {
          "indexed": true,
          "internalType": "address",
          "name": "user",
          "type": "address"
        },
        {
          "indexed": true,
          "internalType": "uint256",
          "name": "pid",
          "type": "uint256"
        },
        {
          "indexed": false,
          "internalType": "uint256",
          "name": "amount",
          "type": "uint256"
        }
      ],
      "name": "Withdraw",
      "type": "event"
    },
    {
      "inputs": [],
      "name": "Nova",
      "outputs": [
        {
          "internalType": "contract ShibaBEP20",
          "name": "",
          "type": "address"
        }
      ],
      "stateMutability": "view",
      "type": "function"
    },
    {
      "inputs": [],
      "name": "NovaPerBlock",
      "outputs": [
        {
          "internalType": "uint256",
          "name": "",
          "type": "uint256"
        }
      ],
      "stateMutability": "view",
      "type": "function"
    },
    {
      "inputs": [],
      "name": "bonusAggregator",
      "outputs": [
        {
          "internalType": "contract ShibaBonusAggregator",
          "name": "",
          "type": "address"
        }
      ],
      "stateMutability": "view",
      "type": "function"
    },
    {
      "inputs": [],
      "name": "devaddr",
      "outputs": [
        {
          "internalType": "address",
          "name": "",
          "type": "address"
        }
      ],
      "stateMutability": "view",
      "type": "function"
    },
    {
      "inputs": [],
      "name": "emissionReductionPeriodBlocks",
      "outputs": [
        {
          "internalType": "uint256",
          "name": "",
          "type": "uint256"
        }
      ],
      "stateMutability": "view",
      "type": "function"
    },
    {
      "inputs": [],
      "name": "emissionReductionRatePerPeriod",
      "outputs": [
        {
          "internalType": "uint256",
          "name": "",
          "type": "uint256"
        }
      ],
      "stateMutability": "view",
      "type": "function"
    },
    {
      "inputs": [],
      "name": "feeAddress",
      "outputs": [
        {
          "internalType": "address",
          "name": "",
          "type": "address"
        }
      ],
      "stateMutability": "view",
      "type": "function"
    },
    {
      "inputs": [],
      "name": "initialEmissionRate",
      "outputs": [
        {
          "internalType": "uint256",
          "name": "",
          "type": "uint256"
        }
      ],
      "stateMutability": "view",
      "type": "function"
    },
    {
      "inputs": [],
      "name": "lastReductionPeriodIndex",
      "outputs": [
        {
          "internalType": "uint256",
          "name": "",
          "type": "uint256"
        }
      ],
      "stateMutability": "view",
      "type": "function"
    },
    {
      "inputs": [],
      "name": "minimumEmissionRate",
      "outputs": [
        {
          "internalType": "uint256",
          "name": "",
          "type": "uint256"
        }
      ],
      "stateMutability": "view",
      "type": "function"
    },
    {
      "inputs": [],
      "name": "owner",
      "outputs": [
        {
          "internalType": "address",
          "name": "",
          "type": "address"
        }
      ],
      "stateMutability": "view",
      "type": "function"
    },
    {
      "inputs": [
        {
          "internalType": "uint256",
          "name": "",
          "type": "uint256"
        }
      ],
      "name": "poolInfo",
      "outputs": [
        {
          "internalType": "contract IBEP20",
          "name": "lpToken",
          "type": "address"
        },
        {
          "internalType": "uint256",
          "name": "lpSupply",
          "type": "uint256"
        },
        {
          "internalType": "uint256",
          "name": "allocPoint",
          "type": "uint256"
        },
        {
          "internalType": "uint256",
          "name": "lastRewardBlock",
          "type": "uint256"
        },
        {
          "internalType": "uint256",
          "name": "accNovaPerShare",
          "type": "uint256"
        },
        {
          "internalType": "uint256",
          "name": "depositFeeBP",
          "type": "uint256"
        },
        {
          "internalType": "bool",
          "name": "isSNovaRewards",
          "type": "bool"
        }
      ],
      "stateMutability": "view",
      "type": "function"
    },
    {
      "inputs": [],
      "name": "renounceOwnership",
      "outputs": [],
      "stateMutability": "nonpayable",
      "type": "function"
    },
    {
      "inputs": [],
      "name": "sNova",
      "outputs": [
        {
          "internalType": "contract ShibaBEP20",
          "name": "",
          "type": "address"
        }
      ],
      "stateMutability": "view",
      "type": "function"
    },
    {
      "inputs": [],
      "name": "startBlock",
      "outputs": [
        {
          "internalType": "uint256",
          "name": "",
          "type": "uint256"
        }
      ],
      "stateMutability": "view",
      "type": "function"
    },
    {
      "inputs": [],
      "name": "totalAllocPoint",
      "outputs": [
        {
          "internalType": "uint256",
          "name": "",
          "type": "uint256"
        }
      ],
      "stateMutability": "view",
      "type": "function"
    },
    {
      "inputs": [
        {
          "internalType": "address",
          "name": "newOwner",
          "type": "address"
        }
      ],
      "name": "transferOwnership",
      "outputs": [],
      "stateMutability": "nonpayable",
      "type": "function"
    },
    {
      "inputs": [
        {
          "internalType": "uint256",
          "name": "",
          "type": "uint256"
        },
        {
          "internalType": "address",
          "name": "",
          "type": "address"
        }
      ],
      "name": "userInfo",
      "outputs": [
        {
          "internalType": "uint256",
          "name": "amount",
          "type": "uint256"
        },
        {
          "internalType": "uint256",
          "name": "amountWithBonus",
          "type": "uint256"
        },
        {
          "internalType": "uint256",
          "name": "rewardDebt",
          "type": "uint256"
        }
      ],
      "stateMutability": "view",
      "type": "function"
    },
    {
      "inputs": [],
      "name": "poolLength",
      "outputs": [
        {
          "internalType": "uint256",
          "name": "",
          "type": "uint256"
        }
      ],
      "stateMutability": "view",
      "type": "function"
    },
    {
      "inputs": [
        {
          "internalType": "uint256",
          "name": "_pid",
          "type": "uint256"
        },
        {
          "internalType": "address",
          "name": "_user",
          "type": "address"
        }
      ],
      "name": "userBonus",
      "outputs": [
        {
          "internalType": "uint256",
          "name": "",
          "type": "uint256"
        }
      ],
      "stateMutability": "view",
      "type": "function"
    },
    {
      "inputs": [
        {
          "internalType": "uint256",
          "name": "_from",
          "type": "uint256"
        },
        {
          "internalType": "uint256",
          "name": "_to",
          "type": "uint256"
        }
      ],
      "name": "getMultiplier",
      "outputs": [
        {
          "internalType": "uint256",
          "name": "",
          "type": "uint256"
        }
      ],
      "stateMutability": "pure",
      "type": "function"
    },
    {
      "inputs": [
        {
          "internalType": "uint256",
          "name": "_allocPoint",
          "type": "uint256"
        },
        {
          "internalType": "contract IBEP20",
          "name": "_lpToken",
          "type": "address"
        },
        {
          "internalType": "uint256",
          "name": "_depositFeeBP",
          "type": "uint256"
        },
        {
          "internalType": "bool",
          "name": "_isSNovaRewards",
          "type": "bool"
        },
        {
          "internalType": "bool",
          "name": "_withUpdate",
          "type": "bool"
        }
      ],
      "name": "add",
      "outputs": [],
      "stateMutability": "nonpayable",
      "type": "function"
    },
    {
      "inputs": [
        {
          "internalType": "uint256",
          "name": "_pid",
          "type": "uint256"
        },
        {
          "internalType": "uint256",
          "name": "_allocPoint",
          "type": "uint256"
        },
        {
          "internalType": "uint256",
          "name": "_depositFeeBP",
          "type": "uint256"
        },
        {
          "internalType": "bool",
          "name": "_isSNovaRewards",
          "type": "bool"
        },
        {
          "internalType": "bool",
          "name": "_withUpdate",
          "type": "bool"
        }
      ],
      "name": "set",
      "outputs": [],
      "stateMutability": "nonpayable",
      "type": "function"
    },
    {
      "inputs": [
        {
          "internalType": "uint256",
          "name": "_pid",
          "type": "uint256"
        },
        {
          "internalType": "address",
          "name": "_user",
          "type": "address"
        }
      ],
      "name": "pendingNova",
      "outputs": [
        {
          "internalType": "uint256",
          "name": "",
          "type": "uint256"
        }
      ],
      "stateMutability": "view",
      "type": "function"
    },
    {
      "inputs": [],
      "name": "massUpdatePools",
      "outputs": [],
      "stateMutability": "nonpayable",
      "type": "function"
    },
    {
      "inputs": [
        {
          "internalType": "uint256",
          "name": "_pid",
          "type": "uint256"
        }
      ],
      "name": "updatePool",
      "outputs": [],
      "stateMutability": "nonpayable",
      "type": "function"
    },
    {
      "inputs": [
        {
          "internalType": "address",
          "name": "_user",
          "type": "address"
        },
        {
          "internalType": "uint256",
          "name": "_pid",
          "type": "uint256"
        },
        {
          "internalType": "uint256",
          "name": "bonus",
          "type": "uint256"
        }
      ],
      "name": "updateUserBonus",
      "outputs": [],
      "stateMutability": "nonpayable",
      "type": "function"
    },
    {
      "inputs": [
        {
          "internalType": "uint256",
          "name": "_pid",
          "type": "uint256"
        },
        {
          "internalType": "uint256",
          "name": "_amount",
          "type": "uint256"
        }
      ],
      "name": "deposit",
      "outputs": [],
      "stateMutability": "nonpayable",
      "type": "function"
    },
    {
      "inputs": [
        {
          "internalType": "uint256",
          "name": "_pid",
          "type": "uint256"
        },
        {
          "internalType": "uint256",
          "name": "_amount",
          "type": "uint256"
        }
      ],
      "name": "withdraw",
      "outputs": [],
      "stateMutability": "nonpayable",
      "type": "function"
    },
    {
      "inputs": [
        {
          "internalType": "uint256",
          "name": "_pid",
          "type": "uint256"
        }
      ],
      "name": "emergencyWithdraw",
      "outputs": [],
      "stateMutability": "nonpayable",
      "type": "function"
    },
    {
      "inputs": [
        {
          "internalType": "uint256",
          "name": "_pid",
          "type": "uint256"
        }
      ],
      "name": "getPoolInfo",
      "outputs": [
        {
          "internalType": "address",
          "name": "lpToken",
          "type": "address"
        },
        {
          "internalType": "uint256",
          "name": "allocPoint",
          "type": "uint256"
        },
        {
          "internalType": "uint256",
          "name": "lastRewardBlock",
          "type": "uint256"
        },
        {
          "internalType": "uint256",
          "name": "accNovaPerShare",
          "type": "uint256"
        },
        {
          "internalType": "uint256",
          "name": "depositFeeBP",
          "type": "uint256"
        },
        {
          "internalType": "bool",
          "name": "isSNovaRewards",
          "type": "bool"
        }
      ],
      "stateMutability": "view",
      "type": "function"
    },
    {
      "inputs": [
        {
          "internalType": "address",
          "name": "_devaddr",
          "type": "address"
        }
      ],
      "name": "dev",
      "outputs": [],
      "stateMutability": "nonpayable",
      "type": "function"
    },
    {
      "inputs": [
        {
          "internalType": "address",
          "name": "_feeAddress",
          "type": "address"
        }
      ],
      "name": "setFeeAddress",
      "outputs": [],
      "stateMutability": "nonpayable",
      "type": "function"
    },
    {
      "inputs": [
        {
          "internalType": "uint256",
          "name": "_minimumEmissionRate",
          "type": "uint256"
        }
      ],
      "name": "updateMinimumEmissionRate",
      "outputs": [],
      "stateMutability": "nonpayable",
      "type": "function"
    }
  ],
  "bytecode": "0x610100604052600060098190556706f05b59d3b20000600a5561384060c05260c860e052600b5534801561003257600080fd5b5060405162002aee38038062002aee833981810160405260e081101561005757600080fd5b508051602082015160408301516060840151608085015160a086015160c0909601519495939492939192909190600061008e6102c1565b600080546001600160a01b0319166001600160a01b0383169081178255604051929350917f8be0079c531659141344cd1fd0a4f28419497f9722a3daafe3b4186f6b6457e0908290a350600280546001600160a01b03199081166001600160a01b03998a16908117909255600380548216988a169890981790975560018054881696891696909617865560048054881695891695909517909455600680548716938816939093179092556005819055608082815260a09182526040805160e0810182529485526000602086018181526103209287018381526060880196875293870182815294870182815260c08801838152600780549a8b0181559384905297517fa66cc928b5edb82af9bd49922954155ab7b0942694bea4ce44661d9a8736c688999093029889018054909a1692909a169190911790975595517fa66cc928b5edb82af9bd49922954155ab7b0942694bea4ce44661d9a8736c689860155517fa66cc928b5edb82af9bd49922954155ab7b0942694bea4ce44661d9a8736c68a85015590517fa66cc928b5edb82af9bd49922954155ab7b0942694bea4ce44661d9a8736c68b840155517fa66cc928b5edb82af9bd49922954155ab7b0942694bea4ce44661d9a8736c68c83015592517fa66cc928b5edb82af9bd49922954155ab7b0942694bea4ce44661d9a8736c68d82015591517fa66cc928b5edb82af9bd49922954155ab7b0942694bea4ce44661d9a8736c68e909201805460ff1916921515929092179091556009556102c5565b3390565b60805160a05160c05160e0516127c662000328600039806108015280612167525080611a7e5280611b3152806120f2525080610834525080610a8552806113cf52806113f65280611aa3528061208552806120ae528061211752506127c66000f3fe608060405234801561001057600080fd5b50600436106102065760003560e01c8063715018a61161011a578063bd25adb4116100ad578063e2bbb1581161007c578063e2bbb1581461058b578063e401f439146105ae578063ef0e4925146105b6578063f2fde38b146105d3578063fb9788cb146105f957610206565b8063bd25adb41461050d578063c60dc8e01461054f578063c673fa3714610557578063d49e77cd1461058357610206565b80638da5cb5b116100e95780638da5cb5b146104665780638dbb1e3a1461046e57806393f1a40b1461049157806395575eef146104db57610206565b8063715018a6146103d95780638705fcd4146103e1578063887b4818146104075780638d88a90e1461044057610206565b80633ea69dd71161019d57806348cd4cb11161016c57806348cd4cb11461038757806351eb05a61461038f5780635312ea8e146103ac578063630b5ba1146103c95780636a9a7660146103d157610206565b80633ea69dd71461034a578063412753581461035257806341b1cf151461035a578063441a3e701461036257610206565b80631bb63d0c116101d95780631bb63d0c146102ba5780632ce39db1146102de5780632f380b35146102e65780633215ad4a1461034257610206565b8063081e3eda1461020b5780630a130c72146102255780631526fe271461025157806317caf6f1146102b2575b600080fd5b610213610601565b60408051918252519081900360200190f35b6102136004803603604081101561023b57600080fd5b50803590602001356001600160a01b0316610607565b61026e6004803603602081101561026757600080fd5b5035610694565b604080516001600160a01b0390981688526020880196909652868601949094526060860192909252608085015260a0840152151560c0830152519081900360e00190f35b6102136106ed565b6102c26106f3565b604080516001600160a01b039092168252519081900360200190f35b6102c2610702565b610303600480360360208110156102fc57600080fd5b5035610711565b604080516001600160a01b03909716875260208701959095528585019390935260608501919091526080840152151560a0830152519081900360c00190f35b6102136107f9565b6102136107ff565b6102c2610823565b610213610832565b6103856004803603604081101561037857600080fd5b5080359060200135610856565b005b610213610a83565b610385600480360360208110156103a557600080fd5b5035610aa7565b610385600480360360208110156103c257600080fd5b5035610d2e565b610385610dec565b610213610e0b565b610385610e11565b610385600480360360208110156103f757600080fd5b50356001600160a01b0316610eb3565b610385600480360360a081101561041d57600080fd5b508035906020810135906040810135906060810135151590608001351515610f2d565b6103856004803603602081101561045657600080fd5b50356001600160a01b0316611099565b6102c2611106565b6102136004803603604081101561048457600080fd5b5080359060200135611115565b6104bd600480360360408110156104a757600080fd5b50803590602001356001600160a01b0316611128565b60408051938452602084019290925282820152519081900360600190f35b610385600480360360608110156104f157600080fd5b506001600160a01b038135169060208101359060400135611154565b610385600480360360a081101561052357600080fd5b508035906001600160a01b03602082013516906040810135906060810135151590608001351515611324565b6102c26115b6565b6102136004803603604081101561056d57600080fd5b50803590602001356001600160a01b03166115c5565b6102c26116dd565b610385600480360360408110156105a157600080fd5b50803590602001356116ec565b6102136119c6565b610385600480360360208110156105cc57600080fd5b50356119cc565b610385600480360360208110156105e957600080fd5b50356001600160a01b0316611ace565b610213611b2f565b60075490565b60015460408051636bb6b92760e11b81526001600160a01b038481166004830152602482018690529151600093929092169163d76d724e91604480820192602092909190829003018186803b15801561065f57600080fd5b505afa158015610673573d6000803e3d6000fd5b505050506040513d602081101561068957600080fd5b505190505b92915050565b600781815481106106a157fe5b600091825260209091206007909102018054600182015460028301546003840154600485015460058601546006909601546001600160a01b039095169650929491939092919060ff1687565b60095481565b6002546001600160a01b031681565b6003546001600160a01b031681565b6000806000806000806007878154811061072757fe5b600091825260209091206007918202015481546001600160a01b0390911691908990811061075157fe5b9060005260206000209060070201600201546007898154811061077057fe5b90600052602060002090600702016003015460078a8154811061078f57fe5b90600052602060002090600702016004015460078b815481106107ae57fe5b90600052602060002090600702016005015460078c815481106107cd57fe5b6000918252602090912060079091020160060154949c939b509199509750955060ff9091169350915050565b60055481565b7f000000000000000000000000000000000000000000000000000000000000000081565b6006546001600160a01b031681565b7f000000000000000000000000000000000000000000000000000000000000000081565b600754829081106108ab576040805162461bcd60e51b815260206004820152601a60248201527976616c6964617465506f6f6c3a20706f6f6c206578697374733f60301b604482015290519081900360640190fd5b6000600784815481106108ba57fe5b60009182526020808320878452600882526040808520338652909252922080546007909202909201925084111561092d576040805162461bcd60e51b81526020600482015260126024820152711dda5d1a191c985dce881b9bdd0819dbdbd960721b604482015290519081900360640190fd5b61093685610aa7565b6000610970826002015461096a64e8d4a5100061096487600401548760010154611b5390919063ffffffff16565b90611bac565b90611bee565b9050801561099e57600683015460ff16156109945761098f3382611c30565b61099e565b61099e3382611e03565b8415610a1b5781546109b09086611bee565b825560006109d86127106109646109d1826109cb8c33610607565b90611fd0565b8990611b53565b60018401549091506109ea9082611bee565b60018401558354610a05906001600160a01b0316338861202a565b6001840154610a149082611bee565b6001850155505b610a3f64e8d4a5100061096485600401548560010154611b5390919063ffffffff16565b6002830155604080518681529051879133917ff279e6a1f5e320cca91135676d9cb6e44ca8a08c0b88342bcdb1144f6511b5689181900360200190a3505050505050565b7f000000000000000000000000000000000000000000000000000000000000000081565b60075481908110610afc576040805162461bcd60e51b815260206004820152601a60248201527976616c6964617465506f6f6c3a20706f6f6c206578697374733f60301b604482015290519081900360640190fd5b610b04612081565b600060078381548110610b1357fe5b9060005260206000209060070201905080600301544311610b345750610d2a565b600181015480610b4b575043600390910155610d2a565b6000610b5b836003015443611115565b90506000610b886009546109648660020154610b8260055487611b5390919063ffffffff16565b90611b53565b90506000610b9782600a611bac565b60025460048054604080516340c10f1960e01b81526001600160a01b03928316938101939093526024830185905251939450909116916340c10f199160448082019260009290919082900301818387803b158015610bf457600080fd5b505af1158015610c08573d6000803e3d6000fd5b50505050600685015460ff1615610c8957600354604080516340c10f1960e01b81523060048201526024810185905290516001600160a01b03909216916340c10f199160448082019260009290919082900301818387803b158015610c6c57600080fd5b505af1158015610c80573d6000803e3d6000fd5b50505050610cf5565b600254604080516340c10f1960e01b81523060048201526024810185905290516001600160a01b03909216916340c10f199160448082019260009290919082900301818387803b158015610cdc57600080fd5b505af1158015610cf0573d6000803e3d6000fd5b505050505b610d16610d0b856109648564e8d4a51000611b53565b600487015490611fd0565b600486015550504360039093019290925550505b5050565b600060078281548110610d3d57fe5b600091825260208083208584526008825260408085203386529092529220805460018083015460079094029094019384015493945090929091610d809190611bee565b600180850191909155600080845560028401819055908301558254610daf906001600160a01b0316338361202a565b604080518281529051859133917fbb757047c2b5f3974fe26b7c10f732e7bce710b0952a71082702781e62ae05959181900360200190a350505050565b60075460005b81811015610d2a57610e0381610aa7565b600101610df2565b600b5481565b610e1961220a565b6000546001600160a01b03908116911614610e69576040805162461bcd60e51b8152602060048201819052602482015260008051602061274f833981519152604482015290519081900360640190fd5b600080546040516001600160a01b03909116907f8be0079c531659141344cd1fd0a4f28419497f9722a3daafe3b4186f6b6457e0908390a3600080546001600160a01b0319169055565b610ebb61220a565b6000546001600160a01b03908116911614610f0b576040805162461bcd60e51b8152602060048201819052602482015260008051602061274f833981519152604482015290519081900360640190fd5b600680546001600160a01b0319166001600160a01b0392909216919091179055565b610f3561220a565b6000546001600160a01b03908116911614610f85576040805162461bcd60e51b8152602060048201819052602482015260008051602061274f833981519152604482015290519081900360640190fd5b610190831115610fc65760405162461bcd60e51b815260040180806020018281038252602581526020018061272a6025913960400191505060405180910390fd5b8015610fd457610fd4610dec565b600060078681548110610fe357fe5b9060005260206000209060070201600201549050846007878154811061100557fe5b906000526020600020906007020160020181905550836007878154811061102857fe5b906000526020600020906007020160050181905550826007878154811061104b57fe5b60009182526020909120600790910201600601805460ff19169115159190911790558481146110915761108d856109cb83600954611bee90919063ffffffff16565b6009555b505050505050565b6004546001600160a01b031633146110e4576040805162461bcd60e51b81526020600482015260096024820152686465763a207775743f60b81b604482015290519081900360640190fd5b600480546001600160a01b0319166001600160a01b0392909216919091179055565b6000546001600160a01b031690565b60006111218284611bee565b9392505050565b600860209081526000928352604080842090915290825290208054600182015460029092015490919083565b600754829081106111a9576040805162461bcd60e51b815260206004820152601a60248201527976616c6964617465506f6f6c3a20706f6f6c206578697374733f60301b604482015290519081900360640190fd5b6001546001600160a01b031633146111f6576040805162461bcd60e51b8152602060048201819052602482015260008051602061274f833981519152604482015290519081900360640190fd5b60006007848154811061120557fe5b600091825260208083208784526008825260408085206001600160a01b038b16865290925292206007909102909101915061123f85610aa7565b8054156112a4576000611274826002015461096a64e8d4a5100061096487600401548760010154611b5390919063ffffffff16565b905080156112a257600683015460ff1615611298576112938782611c30565b6112a2565b6112a28782611e03565b505b600180820154908301546112b791611bee565b60018301556112d76127106109646112cf8783611fd0565b845490611b53565b60018083018290558301546112eb91611fd0565b826001018190555061131764e8d4a5100061096484600401548460010154611b5390919063ffffffff16565b6002909101555050505050565b61132c61220a565b6000546001600160a01b0390811691161461137c576040805162461bcd60e51b8152602060048201819052602482015260008051602061274f833981519152604482015290519081900360640190fd5b6101908311156113bd5760405162461bcd60e51b81526004018080602001828103825260258152602001806126736025913960400191505060405180910390fd5b80156113cb576113cb610dec565b60007f0000000000000000000000000000000000000000000000000000000000000000431161141a577f000000000000000000000000000000000000000000000000000000000000000061141c565b435b60095490915061142c9087611fd0565b6009556040805160e0810182526001600160a01b039687168152600060208201818152928201988952606082019384526080820181815260a0830197885295151560c08301908152600780546001810182559281905292517fa66cc928b5edb82af9bd49922954155ab7b0942694bea4ce44661d9a8736c6889290930291820180546001600160a01b031916939099169290921790975590517fa66cc928b5edb82af9bd49922954155ab7b0942694bea4ce44661d9a8736c68987015595517fa66cc928b5edb82af9bd49922954155ab7b0942694bea4ce44661d9a8736c68a860155517fa66cc928b5edb82af9bd49922954155ab7b0942694bea4ce44661d9a8736c68b85015550517fa66cc928b5edb82af9bd49922954155ab7b0942694bea4ce44661d9a8736c68c830155517fa66cc928b5edb82af9bd49922954155ab7b0942694bea4ce44661d9a8736c68d82015590517fa66cc928b5edb82af9bd49922954155ab7b0942694bea4ce44661d9a8736c68e909101805460ff1916911515919091179055565b6001546001600160a01b031681565b600080600784815481106115d557fe5b600091825260208083208784526008825260408085206001600160a01b0389168652909252922060046007909202909201908101546001820154600383015492945090914311801561162657508015155b1561168657600061163b856003015443611115565b905060006116626009546109648860020154610b8260055487611b5390919063ffffffff16565b905061168161167a846109648464e8d4a51000611b53565b8590611fd0565b935050505b60006116b0846002015461096a64e8d4a51000610964878960010154611b5390919063ffffffff16565b600686015490915060ff166116d2576116cf6064610964836062611b53565b90505b979650505050505050565b6004546001600160a01b031681565b60075482908110611741576040805162461bcd60e51b815260206004820152601a60248201527976616c6964617465506f6f6c3a20706f6f6c206578697374733f60301b604482015290519081900360640190fd5b600033905060006007858154811061175557fe5b600091825260208083208884526008825260408085206001600160a01b038816865290925292206007909102909101915061178f86610aa7565b8054156117f45760006117c4826002015461096a64e8d4a5100061096487600401548760010154611b5390919063ffffffff16565b905080156117f257600683015460ff16156117e8576117e38482611c30565b6117f2565b6117f28482611e03565b505b8415611955578154611811906001600160a01b031684308861220e565b60025482546001600160a01b039081169116141561184b57600061183b6064610964886002611b53565b90506118478682611bee565b9550505b6005820154156118ff576000611874612710610964856005015489611b5390919063ffffffff16565b6006548454919250611893916001600160a01b0390811691168361202a565b81546118a590829061096a9089611fd0565b825560006118ca6127106109646118c0826109cb8d8b610607565b610b828b87611bee565b60018401549091506118dc9082611fd0565b6001808501919091558401546118f29082611fd0565b6001850155506119559050565b805461190b9086611fd0565b815560006119266127106109646109d1826109cb8c8a610607565b60018301549091506119389082611fd0565b60018084019190915583015461194e9082611fd0565b6001840155505b61197964e8d4a5100061096484600401548460010154611b5390919063ffffffff16565b600282015560408051868152905187916001600160a01b038616917f90890809c654f11d6e72a28fa60149770a0d11ec6c92319d6ceb2bb0a4ea1a159181900360200190a3505050505050565b600a5481565b6119d461220a565b6000546001600160a01b03908116911614611a24576040805162461bcd60e51b8152602060048201819052602482015260008051602061274f833981519152604482015290519081900360640190fd5b80600a5411611a6a576040805162461bcd60e51b815260206004820152600d60248201526c36bab9ba103132903637bbb2b960991b604482015290519081900360640190fd5b600a819055600554811415611acb57611ac77f0000000000000000000000000000000000000000000000000000000000000000610964437f0000000000000000000000000000000000000000000000000000000000000000611bee565b600b555b50565b611ad661220a565b6000546001600160a01b03908116911614611b26576040805162461bcd60e51b8152602060048201819052602482015260008051602061274f833981519152604482015290519081900360640190fd5b611acb81612268565b7f000000000000000000000000000000000000000000000000000000000000000081565b600082611b625750600061068e565b82820282848281611b6f57fe5b04146111215760405162461bcd60e51b81526004018080602001828103825260218152602001806127096021913960400191505060405180910390fd5b600061112183836040518060400160405280601a81526020017f536166654d6174683a206469766973696f6e206279207a65726f000000000000815250612308565b600061112183836040518060400160405280601e81526020017f536166654d6174683a207375627472616374696f6e206f766572666c6f7700008152506123aa565b600354604080516370a0823160e01b815230600482015290516000926001600160a01b0316916370a08231916024808301926020929190829003018186803b158015611c7b57600080fd5b505afa158015611c8f573d6000803e3d6000fd5b505050506040513d6020811015611ca557600080fd5b50519050600081831115611d3c576003546040805163a9059cbb60e01b81526001600160a01b038781166004830152602482018690529151919092169163a9059cbb9160448083019260209291908290030181600087803b158015611d0957600080fd5b505af1158015611d1d573d6000803e3d6000fd5b505050506040513d6020811015611d3357600080fd5b50519050611dc1565b6003546040805163a9059cbb60e01b81526001600160a01b038781166004830152602482018790529151919092169163a9059cbb9160448083019260209291908290030181600087803b158015611d9257600080fd5b505af1158015611da6573d6000803e3d6000fd5b505050506040513d6020811015611dbc57600080fd5b505190505b80611dfd5760405162461bcd60e51b815260040180806020018281038252602281526020018061276f6022913960400191505060405180910390fd5b50505050565b600254604080516370a0823160e01b815230600482015290516000926001600160a01b0316916370a08231916024808301926020929190829003018186803b158015611e4e57600080fd5b505afa158015611e62573d6000803e3d6000fd5b505050506040513d6020811015611e7857600080fd5b50519050600081831115611f0f576002546040805163a9059cbb60e01b81526001600160a01b038781166004830152602482018690529151919092169163a9059cbb9160448083019260209291908290030181600087803b158015611edc57600080fd5b505af1158015611ef0573d6000803e3d6000fd5b505050506040513d6020811015611f0657600080fd5b50519050611f94565b6002546040805163a9059cbb60e01b81526001600160a01b038781166004830152602482018790529151919092169163a9059cbb9160448083019260209291908290030181600087803b158015611f6557600080fd5b505af1158015611f79573d6000803e3d6000fd5b505050506040513d6020811015611f8f57600080fd5b505190505b80611dfd5760405162461bcd60e51b81526004018080602001828103825260218152602001806126e86021913960400191505060405180910390fd5b600082820183811015611121576040805162461bcd60e51b815260206004820152601b60248201527f536166654d6174683a206164646974696f6e206f766572666c6f770000000000604482015290519081900360640190fd5b604080516001600160a01b038416602482015260448082018490528251808303909101815260649091019091526020810180516001600160e01b031663a9059cbb60e01b17905261207c908490612404565b505050565b60007f00000000000000000000000000000000000000000000000000000000000000001180156120d157507f00000000000000000000000000000000000000000000000000000000000000004311155b156120db57612208565b600a54600554116120eb57612208565b600061213b7f0000000000000000000000000000000000000000000000000000000000000000610964437f0000000000000000000000000000000000000000000000000000000000000000611bee565b9050600b54811161214c5750612208565b600554600b545b828110156121975761218d612710610964847f00000000000000000000000000000000000000000000000000000000000000008303611b53565b9150600101612153565b50600a5481106121a757806121ab565b600a545b905060055481106121bd575050612208565b600b82905560058054908290556040805182815260208101849052815133927feedc6338c9c1ad8f3cd6c90dd09dbe98dbd57e610d3e59a17996d07acb0d9511928290030190a25050505b565b3390565b604080516001600160a01b0380861660248301528416604482015260648082018490528251808303909101815260849091019091526020810180516001600160e01b03166323b872dd60e01b179052611dfd908590612404565b6001600160a01b0381166122ad5760405162461bcd60e51b81526004018080602001828103825260268152602001806126c26026913960400191505060405180910390fd5b600080546040516001600160a01b03808516939216917f8be0079c531659141344cd1fd0a4f28419497f9722a3daafe3b4186f6b6457e091a3600080546001600160a01b0319166001600160a01b0392909216919091179055565b600081836123945760405162461bcd60e51b81526004018080602001828103825283818151815260200191508051906020019080838360005b83811015612359578181015183820152602001612341565b50505050905090810190601f1680156123865780820380516001836020036101000a031916815260200191505b509250505060405180910390fd5b5060008385816123a057fe5b0495945050505050565b600081848411156123fc5760405162461bcd60e51b8152602060048201818152835160248401528351909283926044909101919085019080838360008315612359578181015183820152602001612341565b505050900390565b6060612459826040518060400160405280602081526020017f5361666542455032303a206c6f772d6c6576656c2063616c6c206661696c6564815250856001600160a01b03166124b59092919063ffffffff16565b80519091501561207c5780806020019051602081101561247857600080fd5b505161207c5760405162461bcd60e51b815260040180806020018281038252602a815260200180612698602a913960400191505060405180910390fd5b60606124c484846000856124cc565b949350505050565b60606124d785612639565b612528576040805162461bcd60e51b815260206004820152601d60248201527f416464726573733a2063616c6c20746f206e6f6e2d636f6e7472616374000000604482015290519081900360640190fd5b60006060866001600160a01b031685876040518082805190602001908083835b602083106125675780518252601f199092019160209182019101612548565b6001836020036101000a03801982511681845116808217855250505050505090500191505060006040518083038185875af1925050503d80600081146125c9576040519150601f19603f3d011682016040523d82523d6000602084013e6125ce565b606091505b509150915081156125e25791506124c49050565b8051156125f25780518082602001fd5b60405162461bcd60e51b8152602060048201818152865160248401528651879391928392604401919085019080838360008315612359578181015183820152602001612341565b6000813f7fc5d2460186f7233c927e7db2dcc703c0e500b653ca82273b7bfad8045d85a4708181148015906124c457505015159291505056fe6164643a20696e76616c6964206465706f7369742066656520626173697320706f696e74735361666542455032303a204245503230206f7065726174696f6e20646964206e6f7420737563636565644f776e61626c653a206e6577206f776e657220697320746865207a65726f2061646472657373736166654e6f76615472616e736665723a205472616e73666572206661696c6564536166654d6174683a206d756c7469706c69636174696f6e206f766572666c6f777365743a20696e76616c6964206465706f7369742066656520626173697320706f696e74734f776e61626c653a2063616c6c6572206973206e6f7420746865206f776e657273616665534e6f76615472616e736665723a205472616e73666572206661696c6564a264697066735822122084e5c0bde968c3ebeed967578860fb55ea3b8df485473b11f0ab8b686d38ee2f64736f6c634300060c0033",
  "immutableReferences": {
    "527": [
      {
        "length": 32,
        "start": 2693
      },
      {
        "length": 32,
        "start": 5071
      },
      {
        "length": 32,
        "start": 5110
      },
      {
        "length": 32,
        "start": 6819
      },
      {
        "length": 32,
        "start": 8325
      },
      {
        "length": 32,
        "start": 8366
      },
      {
        "length": 32,
        "start": 8471
      }
    ],
    "529": [
      {
        "length": 32,
        "start": 2100
      }
    ],
    "535": [
      {
        "length": 32,
        "start": 6782
      },
      {
        "length": 32,
        "start": 6961
      },
      {
        "length": 32,
        "start": 8434
      }
    ],
    "538": [
      {
        "length": 32,
        "start": 2049
      },
      {
        "length": 32,
        "start": 8551
      }
    ]
  },
  "source": "// SPDX-License-Identifier: MIT\r\npragma solidity 0.6.12;\r\n\r\nimport \"./libs/SafeMath.sol\";\r\nimport \"./libs/IBEP20.sol\";\r\nimport \"./libs/SafeBEP20.sol\";\r\nimport \"./libs/Ownable.sol\";\r\n\r\nimport \"./ShibaBonusAggregator.sol\";\r\nimport \"./libs/ShibaBEP20.sol\";\r\n\r\n// MasterShiba is the master of Nova and sNova.\r\n// The Ownership of this contract is going to be transferred to a timelock\r\ncontract MasterShiba is Ownable, IMasterBonus {\r\n    using SafeMath for uint256;\r\n    using SafeBEP20 for ShibaBEP20;\r\n    using SafeBEP20 for IBEP20;\r\n\r\n    // Info of each user.\r\n    struct UserInfo {\r\n        uint256 amount;     // How many LP tokens the user has provided.\r\n        uint256 amountWithBonus;\r\n        uint256 rewardDebt; // Reward debt. See explanation below.\r\n        //\r\n        // We do some fancy math here. Basically, any point in time, the amount of Novas\r\n        // entitled to a user but is pending to be distributed is:\r\n        //\r\n        //   pending reward = (user.amount * pool.accNovaPerShare) - user.rewardDebt\r\n        //\r\n        // Whenever a user deposits or withdraws LP tokens to a pool. Here's what happens:\r\n        //   1. The pool's `accNovaPerShare` (and `lastRewardBlock`) gets updated.\r\n        //   2. User receives the pending reward sent to his/her address.\r\n        //   3. User's `amount` gets updated.\r\n        //   4. User's `rewardDebt` gets updated.\r\n    }\r\n\r\n    // Info of each pool.\r\n    struct PoolInfo {\r\n        IBEP20 lpToken;           // Address of LP token contract.\r\n        uint256 lpSupply;\r\n        uint256 allocPoint;       // How many allocation points assigned to this pool. Novas to distribute per block.\r\n        uint256 lastRewardBlock;  // Last block number that Novas distribution occurs.\r\n        uint256 accNovaPerShare; // Accumulated Novas per share, times 1e12. See below.\r\n        uint256 depositFeeBP;     // deposit Fee\r\n        bool isSNovaRewards;\r\n    }\r\n\r\n    ShibaBonusAggregator public bonusAggregator;\r\n    // The Nova TOKEN!\r\n    ShibaBEP20 public Nova;\r\n    // The SNova TOKEN!\r\n    ShibaBEP20 public sNova;\r\n    // Dev address.\r\n    address public devaddr;\r\n    // Nova tokens created per block.\r\n    uint256 public NovaPerBlock;\r\n    // Deposit Fee address\r\n    address public feeAddress;\r\n\r\n    // Info of each pool.\r\n    PoolInfo[] public poolInfo;\r\n    // Info of each user that stakes LP tokens.\r\n    mapping (uint256 => mapping (address => UserInfo)) public userInfo;\r\n    // Total allocation points. Must be the sum of all allocation points in all pools.\r\n    uint256 public totalAllocPoint = 0;\r\n    // The block number when Nova mining starts.\r\n    uint256 public immutable startBlock;\r\n\r\n    // Initial emission rate: 1 Nova per block.\r\n    uint256 public immutable initialEmissionRate;\r\n    // Minimum emission rate: 0.5 Nova per block.\r\n    uint256 public minimumEmissionRate = 500 finney;\r\n    // Reduce emission every 14400 blocks ~ 12 hours.\r\n    uint256 public immutable emissionReductionPeriodBlocks = 14400;\r\n    // Emission reduction rate per period in basis points: 2%.\r\n    uint256 public immutable emissionReductionRatePerPeriod = 200;\r\n    // Last reduction period index\r\n    uint256 public lastReductionPeriodIndex = 0;\r\n\r\n    event Deposit(address indexed user, uint256 indexed pid, uint256 amount);\r\n    event Withdraw(address indexed user, uint256 indexed pid, uint256 amount);\r\n    event EmergencyWithdraw(address indexed user, uint256 indexed pid, uint256 amount);\r\n    event EmissionRateUpdated(address indexed caller, uint256 previousAmount, uint256 newAmount);\r\n\r\n    constructor(\r\n        ShibaBEP20 _Nova,\r\n        ShibaBEP20 _sNova,\r\n        ShibaBonusAggregator _bonusAggregator,\r\n        address _devaddr,\r\n        address _feeAddress,\r\n        uint256 _NovaPerBlock,\r\n        uint256 _startBlock\r\n    ) public {\r\n        Nova = _Nova;\r\n        sNova = _sNova;\r\n        bonusAggregator = _bonusAggregator;\r\n        devaddr = _devaddr;\r\n        feeAddress = _feeAddress;\r\n        NovaPerBlock = _NovaPerBlock;\r\n        startBlock = _startBlock;\r\n        initialEmissionRate = _NovaPerBlock;\r\n\r\n        // staking pool\r\n        poolInfo.push(PoolInfo({\r\n            lpToken: _Nova,\r\n            lpSupply: 0,\r\n            allocPoint: 800,\r\n            lastRewardBlock: _startBlock,\r\n            accNovaPerShare: 0,\r\n            depositFeeBP: 0,\r\n            isSNovaRewards: false\r\n        }));\r\n        totalAllocPoint = 800;\r\n    }\r\n\r\n    modifier validatePool(uint256 _pid) {\r\n        require(_pid < poolInfo.length, \"validatePool: pool exists?\");\r\n        _;\r\n    }\r\n\r\n    modifier onlyAggregator() {\r\n        require(msg.sender == address(bonusAggregator), \"Ownable: caller is not the owner\");\r\n        _;\r\n    }\r\n\r\n    function poolLength() external view returns (uint256) {\r\n        return poolInfo.length;\r\n    }\r\n\r\n    function userBonus(uint256 _pid, address _user) public view returns (uint256){\r\n        return bonusAggregator.getBonusOnFarmsForUser(_user, _pid);\r\n    }\r\n\r\n    // Return reward multiplier over the given _from to _to block.\r\n    function getMultiplier(uint256 _from, uint256 _to) public pure returns (uint256) {\r\n        return _to.sub(_from);\r\n    }\r\n\r\n    // Add a new lp to the pool. Can only be called by the owner.\r\n    function add(uint256 _allocPoint, IBEP20 _lpToken, uint256 _depositFeeBP, bool _isSNovaRewards, bool _withUpdate) external onlyOwner {\r\n        require(_depositFeeBP <= 400, \"add: invalid deposit fee basis points\");\r\n        if (_withUpdate) {\r\n            massUpdatePools();\r\n        }\r\n        uint256 lastRewardBlock = block.number > startBlock ? block.number : startBlock;\r\n        totalAllocPoint = totalAllocPoint.add(_allocPoint);\r\n        poolInfo.push(PoolInfo({\r\n            lpToken: _lpToken,\r\n            lpSupply: 0,\r\n            allocPoint: _allocPoint,\r\n            lastRewardBlock: lastRewardBlock,\r\n            accNovaPerShare: 0,\r\n            depositFeeBP : _depositFeeBP,\r\n            isSNovaRewards: _isSNovaRewards\r\n        }));\r\n    }\r\n\r\n    // Update the given pool's Nova allocation point. Can only be called by the owner.\r\n    function set(uint256 _pid, uint256 _allocPoint, uint256 _depositFeeBP, bool _isSNovaRewards, bool _withUpdate) external onlyOwner {\r\n        require(_depositFeeBP <= 400, \"set: invalid deposit fee basis points\");\r\n        if (_withUpdate) {\r\n            massUpdatePools();\r\n        }\r\n        uint256 prevAllocPoint = poolInfo[_pid].allocPoint;\r\n        poolInfo[_pid].allocPoint = _allocPoint;\r\n        poolInfo[_pid].depositFeeBP = _depositFeeBP;\r\n        poolInfo[_pid].isSNovaRewards = _isSNovaRewards;\r\n        if (prevAllocPoint != _allocPoint) {\r\n            totalAllocPoint = totalAllocPoint.sub(prevAllocPoint).add(_allocPoint);\r\n        }\r\n    }\r\n\r\n    // View function to see pending Novas on frontend.\r\n    function pendingNova(uint256 _pid, address _user) external view returns (uint256) {\r\n        PoolInfo storage pool = poolInfo[_pid];\r\n        UserInfo storage user = userInfo[_pid][_user];\r\n        uint256 accNovaPerShare = pool.accNovaPerShare;\r\n        uint256 lpSupply = pool.lpSupply;\r\n        if (block.number > pool.lastRewardBlock && lpSupply != 0) {\r\n            uint256 multiplier = getMultiplier(pool.lastRewardBlock, block.number);\r\n            uint256 NovaReward = multiplier.mul(NovaPerBlock).mul(pool.allocPoint).div(totalAllocPoint);\r\n            accNovaPerShare = accNovaPerShare.add(NovaReward.mul(1e12).div(lpSupply));\r\n        }\r\n        uint256 userRewards = user.amountWithBonus.mul(accNovaPerShare).div(1e12).sub(user.rewardDebt);\r\n        if(!pool.isSNovaRewards){\r\n            // taking account of the 2% auto-burn\r\n            userRewards = userRewards.mul(98).div(100);\r\n        }\r\n        return userRewards; // taking account of the 2% auto burn on Nova\r\n    }\r\n\r\n    // Reduce emission rate based on configurations\r\n    function updateEmissionRate() internal {\r\n        if(startBlock > 0 && block.number <= startBlock){\r\n            return;\r\n        }\r\n        if(NovaPerBlock <= minimumEmissionRate){\r\n            return;\r\n        }\r\n\r\n        uint256 currentIndex = block.number.sub(startBlock).div(emissionReductionPeriodBlocks);\r\n        if (currentIndex <= lastReductionPeriodIndex) {\r\n            return;\r\n        }\r\n\r\n        uint256 newEmissionRate = NovaPerBlock;\r\n        for (uint256 index = lastReductionPeriodIndex; index < currentIndex; ++index) {\r\n            newEmissionRate = newEmissionRate.mul(1e4 - emissionReductionRatePerPeriod).div(1e4);\r\n        }\r\n\r\n        newEmissionRate = newEmissionRate < minimumEmissionRate ? minimumEmissionRate : newEmissionRate;\r\n        if (newEmissionRate >= NovaPerBlock) {\r\n            return;\r\n        }\r\n\r\n        lastReductionPeriodIndex = currentIndex;\r\n        uint256 previousEmissionRate = NovaPerBlock;\r\n        NovaPerBlock = newEmissionRate;\r\n        emit EmissionRateUpdated(msg.sender, previousEmissionRate, newEmissionRate);\r\n    }\r\n\r\n    // Update reward variables for all pools. Be careful of gas spending!\r\n    function massUpdatePools() public {\r\n        uint256 length = poolInfo.length;\r\n        for (uint256 pid = 0; pid < length; ++pid) {\r\n            updatePool(pid);\r\n        }\r\n    }\r\n\r\n    // Update reward variables of the given pool to be up-to-date.\r\n    function updatePool(uint256 _pid) public validatePool(_pid) {\r\n        updateEmissionRate();\r\n        PoolInfo storage pool = poolInfo[_pid];\r\n        if (block.number <= pool.lastRewardBlock) {\r\n            return;\r\n        }\r\n        uint256 lpSupply = pool.lpSupply;\r\n        if (lpSupply == 0) {\r\n            pool.lastRewardBlock = block.number;\r\n            return;\r\n        }\r\n        uint256 multiplier = getMultiplier(pool.lastRewardBlock, block.number);\r\n        uint256 NovaReward = multiplier.mul(NovaPerBlock).mul(pool.allocPoint).div(totalAllocPoint);\r\n        uint256 devMintAmount = NovaReward.div(10);\r\n        Nova.mint(devaddr, devMintAmount);\r\n        if (pool.isSNovaRewards){\r\n            sNova.mint(address(this), NovaReward);\r\n        }\r\n        else{\r\n            Nova.mint(address(this), NovaReward);\r\n        }\r\n        pool.accNovaPerShare = pool.accNovaPerShare.add(NovaReward.mul(1e12).div(lpSupply));\r\n        pool.lastRewardBlock = block.number;\r\n    }\r\n\r\n    // Allow ShibaBonusAggregator to add bonus on a single pool by id to a specific user\r\n    function updateUserBonus(address _user, uint256 _pid, uint256 bonus) external virtual override validatePool(_pid) onlyAggregator{\r\n        PoolInfo storage pool = poolInfo[_pid];\r\n        UserInfo storage user = userInfo[_pid][_user];\r\n        updatePool(_pid);\r\n        if (user.amount > 0) {\r\n            uint256 pending = user.amountWithBonus.mul(pool.accNovaPerShare).div(1e12).sub(user.rewardDebt);\r\n            if(pending > 0) {\r\n                if(pool.isSNovaRewards){\r\n                    safeSNovaTransfer(_user, pending);\r\n                }\r\n                else{\r\n                    safeNovaTransfer(_user, pending);\r\n                }\r\n            }\r\n        }\r\n        pool.lpSupply = pool.lpSupply.sub(user.amountWithBonus);\r\n        user.amountWithBonus =  user.amount.mul(bonus.add(10000)).div(10000);\r\n        pool.lpSupply = pool.lpSupply.add(user.amountWithBonus);\r\n        user.rewardDebt = user.amountWithBonus.mul(pool.accNovaPerShare).div(1e12);\r\n    }\r\n\r\n    // Deposit LP tokens to MasterShiba for Nova allocation.\r\n    function deposit(uint256 _pid, uint256 _amount) external validatePool(_pid) {\r\n        address _user = msg.sender;\r\n        PoolInfo storage pool = poolInfo[_pid];\r\n        UserInfo storage user = userInfo[_pid][_user];\r\n        updatePool(_pid);\r\n        if (user.amount > 0) {\r\n            uint256 pending = user.amountWithBonus.mul(pool.accNovaPerShare).div(1e12).sub(user.rewardDebt);\r\n            if(pending > 0) {\r\n                if(pool.isSNovaRewards){\r\n                    safeSNovaTransfer(_user, pending);\r\n                }\r\n                else{\r\n                    safeNovaTransfer(_user, pending);\r\n                }\r\n            }\r\n        }\r\n        if (_amount > 0) {\r\n            pool.lpToken.safeTransferFrom(address(_user), address(this), _amount);\r\n            if (address(pool.lpToken) == address(Nova)) {\r\n                uint256 transferTax = _amount.mul(2).div(100);\r\n                _amount = _amount.sub(transferTax);\r\n            }\r\n            if (pool.depositFeeBP > 0) {\r\n                uint256 depositFee = _amount.mul(pool.depositFeeBP).div(10000);\r\n                pool.lpToken.safeTransfer(feeAddress, depositFee);\r\n                user.amount = user.amount.add(_amount).sub(depositFee);\r\n                uint256 _bonusAmount = _amount.sub(depositFee).mul(userBonus(_pid, _user).add(10000)).div(10000);\r\n                user.amountWithBonus = user.amountWithBonus.add(_bonusAmount);\r\n                pool.lpSupply = pool.lpSupply.add(_bonusAmount);\r\n            } else {\r\n                user.amount = user.amount.add(_amount);\r\n                uint256 _bonusAmount = _amount.mul(userBonus(_pid, _user).add(10000)).div(10000);\r\n                user.amountWithBonus = user.amountWithBonus.add(_bonusAmount);\r\n                pool.lpSupply = pool.lpSupply.add(_bonusAmount);\r\n            }\r\n        }\r\n        user.rewardDebt = user.amountWithBonus.mul(pool.accNovaPerShare).div(1e12);\r\n        emit Deposit(_user, _pid, _amount);\r\n    }\r\n\r\n    // Withdraw LP tokens from MasterShiba.\r\n    function withdraw(uint256 _pid, uint256 _amount) external validatePool(_pid) {\r\n        PoolInfo storage pool = poolInfo[_pid];\r\n        UserInfo storage user = userInfo[_pid][msg.sender];\r\n        require(user.amount >= _amount, \"withdraw: not good\");\r\n\r\n        updatePool(_pid);\r\n        uint256 pending = user.amountWithBonus.mul(pool.accNovaPerShare).div(1e12).sub(user.rewardDebt);\r\n        if(pending > 0) {\r\n            if(pool.isSNovaRewards){\r\n                safeSNovaTransfer(msg.sender, pending);\r\n            }\r\n            else{\r\n                safeNovaTransfer(msg.sender, pending);\r\n            }\r\n        }\r\n        if(_amount > 0) {\r\n            user.amount = user.amount.sub(_amount);\r\n            uint256 _bonusAmount = _amount.mul(userBonus(_pid, msg.sender).add(10000)).div(10000);\r\n            user.amountWithBonus = user.amountWithBonus.sub(_bonusAmount);\r\n            pool.lpToken.safeTransfer(address(msg.sender), _amount);\r\n            pool.lpSupply = pool.lpSupply.sub(_bonusAmount);\r\n        }\r\n        user.rewardDebt = user.amountWithBonus.mul(pool.accNovaPerShare).div(1e12);\r\n        emit Withdraw(msg.sender, _pid, _amount);\r\n    }\r\n\r\n    // Withdraw without caring about rewards. EMERGENCY ONLY.\r\n    function emergencyWithdraw(uint256 _pid) external {\r\n        PoolInfo storage pool = poolInfo[_pid];\r\n        UserInfo storage user = userInfo[_pid][msg.sender];\r\n        uint256 amount = user.amount;\r\n        pool.lpSupply = pool.lpSupply.sub(user.amountWithBonus);\r\n        user.amount = 0;\r\n        user.rewardDebt = 0;\r\n        user.amountWithBonus = 0;\r\n        pool.lpToken.safeTransfer(address(msg.sender), amount);\r\n        emit EmergencyWithdraw(msg.sender, _pid, amount);\r\n    }\r\n\r\n    function getPoolInfo(uint256 _pid) external view\r\n    returns(address lpToken, uint256 allocPoint, uint256 lastRewardBlock,\r\n            uint256 accNovaPerShare, uint256 depositFeeBP, bool isSNovaRewards) {\r\n        return (\r\n            address(poolInfo[_pid].lpToken),\r\n            poolInfo[_pid].allocPoint,\r\n            poolInfo[_pid].lastRewardBlock,\r\n            poolInfo[_pid].accNovaPerShare,\r\n            poolInfo[_pid].depositFeeBP,\r\n            poolInfo[_pid].isSNovaRewards\r\n        );\r\n    }\r\n\r\n    // Safe Nova transfer function, just in case if rounding error causes pool to not have enough Novas.\r\n    function safeNovaTransfer(address _to, uint256 _amount) internal {\r\n        uint256 NovaBal = Nova.balanceOf(address(this));\r\n        bool transferSuccess = false;\r\n        if (_amount > NovaBal) {\r\n            transferSuccess = Nova.transfer(_to, NovaBal);\r\n        } else {\r\n            transferSuccess = Nova.transfer(_to, _amount);\r\n        }\r\n        require(transferSuccess, \"safeNovaTransfer: Transfer failed\");\r\n    }\r\n\r\n    // Safe sNova transfer function, just in case if rounding error causes pool to not have enough SNovas.\r\n    function safeSNovaTransfer(address _to, uint256 _amount) internal {\r\n        uint256 sNovaBal = sNova.balanceOf(address(this));\r\n        bool transferSuccess = false;\r\n        if (_amount > sNovaBal) {\r\n            transferSuccess = sNova.transfer(_to, sNovaBal);\r\n        } else {\r\n            transferSuccess = sNova.transfer(_to, _amount);\r\n        }\r\n        require(transferSuccess, \"safeSNovaTransfer: Transfer failed\");\r\n    }\r\n\r\n    // Update dev address by the previous dev.\r\n    function dev(address _devaddr) external {\r\n        require(msg.sender == devaddr, \"dev: wut?\");\r\n        devaddr = _devaddr;\r\n    }\r\n\r\n    function setFeeAddress(address _feeAddress) external onlyOwner {\r\n        feeAddress = _feeAddress;\r\n    }\r\n\r\n    function updateMinimumEmissionRate(uint256 _minimumEmissionRate) external onlyOwner{\r\n        require(minimumEmissionRate > _minimumEmissionRate, \"must be lower\");\r\n        minimumEmissionRate = _minimumEmissionRate;\r\n        if(NovaPerBlock == minimumEmissionRate){\r\n            lastReductionPeriodIndex = block.number.sub(startBlock).div(emissionReductionPeriodBlocks);\r\n        }\r\n    }\r\n\r\n}\r\n",
  "sourcePath": "D:/DeployShiba/shibanova/contracts/MasterShiba.sol",
  "compiler": {
    "name": "solc",
    "version": "0.6.12+commit.27d51765.Emscripten.clang"
  },
  "schemaVersion": "3.4.0",
  "updatedAt": "2021-05-30T19:38:02.763Z",
  "devdoc": {
    "kind": "dev",
    "methods": {
      "owner()": {
        "details": "Returns the address of the current owner."
      },
      "renounceOwnership()": {
        "details": "Leaves the contract without owner. It will not be possible to call `onlyOwner` functions anymore. Can only be called by the current owner. NOTE: Renouncing ownership will leave the contract without an owner, thereby removing any functionality that is only available to the owner."
      },
      "transferOwnership(address)": {
        "details": "Transfers ownership of the contract to a new account (`newOwner`). Can only be called by the current owner."
      }
    },
    "version": 1
  },
  "userdoc": {
    "kind": "user",
    "methods": {},
    "version": 1
  }
}