{
  "contractName": "NovaToken",
  "abi": [
    {
      "anonymous": false,
      "inputs": [
        {
          "indexed": true,
          "internalType": "address",
          "name": "owner",
          "type": "address"
        },
        {
          "indexed": true,
          "internalType": "address",
          "name": "spender",
          "type": "address"
        },
        {
          "indexed": false,
          "internalType": "uint256",
          "name": "value",
          "type": "uint256"
        }
      ],
      "name": "Approval",
      "type": "event"
    },
    {
      "anonymous": false,
      "inputs": [
        {
          "indexed": true,
          "internalType": "address",
          "name": "previousOwner",
          "type": "address"
        },
        {
          "indexed": true,
          "internalType": "address",
          "name": "newOwner",
          "type": "address"
        }
      ],
      "name": "OwnershipTransferred",
      "type": "event"
    },
    {
      "anonymous": false,
      "inputs": [
        {
          "indexed": true,
          "internalType": "address",
          "name": "from",
          "type": "address"
        },
        {
          "indexed": true,
          "internalType": "address",
          "name": "to",
          "type": "address"
        },
        {
          "indexed": false,
          "internalType": "uint256",
          "name": "value",
          "type": "uint256"
        }
      ],
      "name": "Transfer",
      "type": "event"
    },
    {
      "inputs": [],
      "name": "BURN_ADDRESS",
      "outputs": [
        {
          "internalType": "address",
          "name": "",
          "type": "address"
        }
      ],
      "stateMutability": "view",
      "type": "function",
      "constant": true
    },
    {
      "inputs": [
        {
          "internalType": "address",
          "name": "owner",
          "type": "address"
        },
        {
          "internalType": "address",
          "name": "spender",
          "type": "address"
        }
      ],
      "name": "allowance",
      "outputs": [
        {
          "internalType": "uint256",
          "name": "",
          "type": "uint256"
        }
      ],
      "stateMutability": "view",
      "type": "function",
      "constant": true
    },
    {
      "inputs": [
        {
          "internalType": "address",
          "name": "spender",
          "type": "address"
        },
        {
          "internalType": "uint256",
          "name": "amount",
          "type": "uint256"
        }
      ],
      "name": "approve",
      "outputs": [
        {
          "internalType": "bool",
          "name": "",
          "type": "bool"
        }
      ],
      "stateMutability": "nonpayable",
      "type": "function"
    },
    {
      "inputs": [
        {
          "internalType": "address",
          "name": "account",
          "type": "address"
        }
      ],
      "name": "balanceOf",
      "outputs": [
        {
          "internalType": "uint256",
          "name": "",
          "type": "uint256"
        }
      ],
      "stateMutability": "view",
      "type": "function",
      "constant": true
    },
    {
      "inputs": [],
      "name": "burnSupply",
      "outputs": [
        {
          "internalType": "uint256",
          "name": "",
          "type": "uint256"
        }
      ],
      "stateMutability": "view",
      "type": "function",
      "constant": true
    },
    {
      "inputs": [],
      "name": "decimals",
      "outputs": [
        {
          "internalType": "uint8",
          "name": "",
          "type": "uint8"
        }
      ],
      "stateMutability": "view",
      "type": "function",
      "constant": true
    },
    {
      "inputs": [
        {
          "internalType": "address",
          "name": "spender",
          "type": "address"
        },
        {
          "internalType": "uint256",
          "name": "subtractedValue",
          "type": "uint256"
        }
      ],
      "name": "decreaseAllowance",
      "outputs": [
        {
          "internalType": "bool",
          "name": "",
          "type": "bool"
        }
      ],
      "stateMutability": "nonpayable",
      "type": "function"
    },
    {
      "inputs": [],
      "name": "getOwner",
      "outputs": [
        {
          "internalType": "address",
          "name": "",
          "type": "address"
        }
      ],
      "stateMutability": "view",
      "type": "function",
      "constant": true
    },
    {
      "inputs": [
        {
          "internalType": "address",
          "name": "spender",
          "type": "address"
        },
        {
          "internalType": "uint256",
          "name": "addedValue",
          "type": "uint256"
        }
      ],
      "name": "increaseAllowance",
      "outputs": [
        {
          "internalType": "bool",
          "name": "",
          "type": "bool"
        }
      ],
      "stateMutability": "nonpayable",
      "type": "function"
    },
    {
      "inputs": [],
      "name": "name",
      "outputs": [
        {
          "internalType": "string",
          "name": "",
          "type": "string"
        }
      ],
      "stateMutability": "view",
      "type": "function",
      "constant": true
    },
    {
      "inputs": [],
      "name": "owner",
      "outputs": [
        {
          "internalType": "address",
          "name": "",
          "type": "address"
        }
      ],
      "stateMutability": "view",
      "type": "function",
      "constant": true
    },
    {
      "inputs": [],
      "name": "renounceOwnership",
      "outputs": [],
      "stateMutability": "nonpayable",
      "type": "function"
    },
    {
      "inputs": [],
      "name": "sNova",
      "outputs": [
        {
          "internalType": "address",
          "name": "",
          "type": "address"
        }
      ],
      "stateMutability": "view",
      "type": "function",
      "constant": true
    },
    {
      "inputs": [],
      "name": "symbol",
      "outputs": [
        {
          "internalType": "string",
          "name": "",
          "type": "string"
        }
      ],
      "stateMutability": "view",
      "type": "function",
      "constant": true
    },
    {
      "inputs": [],
      "name": "totalSupply",
      "outputs": [
        {
          "internalType": "uint256",
          "name": "",
          "type": "uint256"
        }
      ],
      "stateMutability": "view",
      "type": "function",
      "constant": true
    },
    {
      "inputs": [
        {
          "internalType": "address",
          "name": "recipient",
          "type": "address"
        },
        {
          "internalType": "uint256",
          "name": "amount",
          "type": "uint256"
        }
      ],
      "name": "transfer",
      "outputs": [
        {
          "internalType": "bool",
          "name": "",
          "type": "bool"
        }
      ],
      "stateMutability": "nonpayable",
      "type": "function"
    },
    {
      "inputs": [
        {
          "internalType": "address",
          "name": "sender",
          "type": "address"
        },
        {
          "internalType": "address",
          "name": "recipient",
          "type": "address"
        },
        {
          "internalType": "uint256",
          "name": "amount",
          "type": "uint256"
        }
      ],
      "name": "transferFrom",
      "outputs": [
        {
          "internalType": "bool",
          "name": "",
          "type": "bool"
        }
      ],
      "stateMutability": "nonpayable",
      "type": "function"
    },
    {
      "inputs": [
        {
          "internalType": "address",
          "name": "newOwner",
          "type": "address"
        }
      ],
      "name": "transferOwnership",
      "outputs": [],
      "stateMutability": "nonpayable",
      "type": "function"
    },
    {
      "inputs": [],
      "name": "isOwner",
      "outputs": [
        {
          "internalType": "bool",
          "name": "",
          "type": "bool"
        }
      ],
      "stateMutability": "view",
      "type": "function",
      "constant": true
    },
    {
      "inputs": [
        {
          "internalType": "address",
          "name": "_sNova",
          "type": "address"
        }
      ],
      "name": "setupSNova",
      "outputs": [],
      "stateMutability": "nonpayable",
      "type": "function"
    },
    {
      "inputs": [
        {
          "internalType": "address",
          "name": "_to",
          "type": "address"
        },
        {
          "internalType": "uint256",
          "name": "_amount",
          "type": "uint256"
        }
      ],
      "name": "mint",
      "outputs": [],
      "stateMutability": "nonpayable",
      "type": "function"
    }
  ],
  "bytecode": "0x60806040523480156200001157600080fd5b506040518060400160405280600a8152602001695368696261204e4f564160b01b815250604051806040016040528060048152602001634e4f564160e01b815250600062000064620000ef60201b60201c565b600080546001600160a01b0319166001600160a01b0383169081178255604051929350917f8be0079c531659141344cd1fd0a4f28419497f9722a3daafe3b4186f6b6457e0908290a3508151620000c3906005906020850190620000f3565b508051620000d9906006906020840190620000f3565b50506007805460ff19166012179055506200018f565b3390565b828054600181600116156101000203166002900490600052602060002090601f016020900481019282601f106200013657805160ff191683800117855562000166565b8280016001018555821562000166579182015b828111156200016657825182559160200191906001019062000149565b506200017492915062000178565b5090565b5b8082111562000174576000815560010162000179565b61134b806200019f6000396000f3fe608060405234801561001057600080fd5b50600436106101375760003560e01c8063893d20e8116100b8578063a457c2d71161007c578063a457c2d714610359578063a9059cbb14610385578063b03e6478146103b1578063dd62ed3e146103b9578063f2fde38b146103e7578063fccc28131461040d57610137565b8063893d20e8146103135780638da5cb5b1461031b5780638f32d59b1461032357806395d89b411461032b5780639dfd5f051461033357610137565b8063313ce567116100ff578063313ce5671461026d578063395093511461028b57806340c10f19146102b757806370a08231146102e5578063715018a61461030b57610137565b806306fdde031461013c578063095ea7b3146101b957806318160ddd146101f957806323b872dd146102135780632ce39db114610249575b600080fd5b610144610415565b6040805160208082528351818301528351919283929083019185019080838360005b8381101561017e578181015183820152602001610166565b50505050905090810190601f1680156101ab5780820380516001836020036101000a031916815260200191505b509250505060405180910390f35b6101e5600480360360408110156101cf57600080fd5b506001600160a01b0381351690602001356104ab565b604080519115158252519081900360200190f35b6102016104c9565b60408051918252519081900360200190f35b6101e56004803603606081101561022957600080fd5b506001600160a01b038135811691602081013590911690604001356104cf565b610251610556565b604080516001600160a01b039092168252519081900360200190f35b61027561056a565b6040805160ff9092168252519081900360200190f35b6101e5600480360360408110156102a157600080fd5b506001600160a01b038135169060200135610573565b6102e3600480360360408110156102cd57600080fd5b506001600160a01b0381351690602001356105c1565b005b610201600480360360208110156102fb57600080fd5b50356001600160a01b0316610636565b6102e3610651565b610251610705565b610251610714565b6101e5610723565b610144610746565b6102e36004803603602081101561034957600080fd5b50356001600160a01b03166107a7565b6101e56004803603604081101561036f57600080fd5b506001600160a01b038135169060200135610839565b6101e56004803603604081101561039b57600080fd5b506001600160a01b0381351690602001356108a1565b6102016108b5565b610201600480360360408110156103cf57600080fd5b506001600160a01b03813581169160200135166108bb565b6102e3600480360360208110156103fd57600080fd5b50356001600160a01b03166108e6565b61025161095c565b60058054604080516020601f60026000196101006001881615020190951694909404938401819004810282018101909252828152606093909290918301828280156104a15780601f10610476576101008083540402835291602001916104a1565b820191906000526020600020905b81548152906001019060200180831161048457829003601f168201915b5050505050905090565b60006104bf6104b8610962565b8484610966565b5060015b92915050565b60035490565b60006104dc848484610a52565b61054c846104e8610962565b610547856040518060600160405280602881526020016111d8602891396001600160a01b038a16600090815260026020526040812090610526610962565b6001600160a01b031681526020810191909152604001600020549190610b3a565b610966565b5060019392505050565b60075461010090046001600160a01b031681565b60075460ff1690565b60006104bf610580610962565b846105478560026000610591610962565b6001600160a01b03908116825260208083019390935260409182016000908120918c168152925290205490610bd1565b6105c9610723565b806105d757506105d7610c32565b610628576040805162461bcd60e51b815260206004820181905260248201527f63616c6c6572206973206e6f7420746865206f776e6572206f7220734e6f7661604482015290519081900360640190fd5b6106328282610c48565b5050565b6001600160a01b031660009081526001602052604090205490565b610659610962565b6000546001600160a01b039081169116146106bb576040805162461bcd60e51b815260206004820181905260248201527f4f776e61626c653a2063616c6c6572206973206e6f7420746865206f776e6572604482015290519081900360640190fd5b600080546040516001600160a01b03909116907f8be0079c531659141344cd1fd0a4f28419497f9722a3daafe3b4186f6b6457e0908390a3600080546001600160a01b0319169055565b600061070f610714565b905090565b6000546001600160a01b031690565b600061072d610714565b6001600160a01b0316336001600160a01b031614905090565b60068054604080516020601f60026000196101006001881615020190951694909404938401819004810282018101909252828152606093909290918301828280156104a15780601f10610476576101008083540402835291602001916104a1565b6107af610962565b6000546001600160a01b03908116911614610811576040805162461bcd60e51b815260206004820181905260248201527f4f776e61626c653a2063616c6c6572206973206e6f7420746865206f776e6572604482015290519081900360640190fd5b600780546001600160a01b0390921661010002610100600160a81b0319909216919091179055565b60006104bf610846610962565b846105478560405180606001604052806025815260200161128c6025913960026000610870610962565b6001600160a01b03908116825260208083019390935260409182016000908120918d16815292529020549190610b3a565b60006104bf6108ae610962565b8484610a52565b60045490565b6001600160a01b03918216600090815260026020908152604080832093909416825291909152205490565b6108ee610962565b6000546001600160a01b03908116911614610950576040805162461bcd60e51b815260206004820181905260248201527f4f776e61626c653a2063616c6c6572206973206e6f7420746865206f776e6572604482015290519081900360640190fd5b61095981610d2e565b50565b61dead81565b3390565b6001600160a01b0383166109ab5760405162461bcd60e51b815260040180806020018281038252602481526020018061118e6024913960400191505060405180910390fd5b6001600160a01b0382166109f05760405162461bcd60e51b81526004018080602001828103825260228152602001806112f46022913960400191505060405180910390fd5b6001600160a01b03808416600081815260026020908152604080832094871680845294825291829020859055815185815291517f8c5be1e5ebec7d5bd14f71427d1e84f3dd0314c0f7b2291e5b200ac8c7c3b9259281900390910190a3505050565b60008111610a92576040805162461bcd60e51b81526020600482015260086024820152670616d6f756e7420360c41b604482015290519081900360640190fd5b6001600160a01b03821661dead1415610ab457610aaf8382610dce565b610b35565b6000610acc6064610ac6846002610ed4565b90610f2d565b90506000610ada8383610f6f565b90508181018314610b1c5760405162461bcd60e51b81526004018080602001828103825260228152602001806112006022913960400191505060405180910390fd5b610b268583610dce565b610b31858583610fb1565b9150505b505050565b60008184841115610bc95760405162461bcd60e51b81526004018080602001828103825283818151815260200191508051906020019080838360005b83811015610b8e578181015183820152602001610b76565b50505050905090810190601f168015610bbb5780820380516001836020036101000a031916815260200191505b509250505060405180910390fd5b505050900390565b600082820183811015610c2b576040805162461bcd60e51b815260206004820152601b60248201527f536166654d6174683a206164646974696f6e206f766572666c6f770000000000604482015290519081900360640190fd5b9392505050565b60075461010090046001600160a01b0316331490565b6001600160a01b038216610ca3576040805162461bcd60e51b815260206004820152601f60248201527f42455032303a206d696e7420746f20746865207a65726f206164647265737300604482015290519081900360640190fd5b600354610cb09082610bd1565b6003556001600160a01b038216600090815260016020526040902054610cd69082610bd1565b6001600160a01b03831660008181526001602090815260408083209490945583518581529351929391927fddf252ad1be2c89b69c2b068fc378daa952ba7f163c4a11628f55a4df523b3ef9281900390910190a35050565b6001600160a01b038116610d735760405162461bcd60e51b81526004018080602001828103825260268152602001806111b26026913960400191505060405180910390fd5b600080546040516001600160a01b03808516939216917f8be0079c531659141344cd1fd0a4f28419497f9722a3daafe3b4186f6b6457e091a3600080546001600160a01b0319166001600160a01b0392909216919091179055565b6001600160a01b03821661dead1415610e185760405162461bcd60e51b81526004018080602001828103825260218152602001806112b16021913960400191505060405180910390fd5b610e55816040518060600160405280602281526020016112d2602291396001600160a01b0385166000908152600160205260409020549190610b3a565b6001600160a01b038316600090815260016020526040902055600354610e7b9082610f6f565b600355600454610e8b9082610bd1565b60045560408051828152905161dead916001600160a01b038516917fddf252ad1be2c89b69c2b068fc378daa952ba7f163c4a11628f55a4df523b3ef9181900360200190a35050565b600082610ee3575060006104c3565b82820282848281610ef057fe5b0414610c2b5760405162461bcd60e51b81526004018080602001828103825260218152602001806112226021913960400191505060405180910390fd5b6000610c2b83836040518060400160405280601a81526020017f536166654d6174683a206469766973696f6e206279207a65726f000000000000815250611103565b6000610c2b83836040518060400160405280601e81526020017f536166654d6174683a207375627472616374696f6e206f766572666c6f770000815250610b3a565b6001600160a01b038316610ff65760405162461bcd60e51b81526004018080602001828103825260258152602001806111696025913960400191505060405180910390fd5b6001600160a01b03821661103b5760405162461bcd60e51b81526004018080602001828103825260238152602001806112696023913960400191505060405180910390fd5b61107881604051806060016040528060268152602001611243602691396001600160a01b0386166000908152600160205260409020549190610b3a565b6001600160a01b0380851660009081526001602052604080822093909355908416815220546110a79082610bd1565b6001600160a01b0380841660008181526001602090815260409182902094909455805185815290519193928716927fddf252ad1be2c89b69c2b068fc378daa952ba7f163c4a11628f55a4df523b3ef92918290030190a3505050565b600081836111525760405162461bcd60e51b8152602060048201818152835160248401528351909283926044909101919085019080838360008315610b8e578181015183820152602001610b76565b50600083858161115e57fe5b049594505050505056fe42455032303a207472616e736665722066726f6d20746865207a65726f206164647265737342455032303a20617070726f76652066726f6d20746865207a65726f20616464726573734f776e61626c653a206e6577206f776e657220697320746865207a65726f206164647265737342455032303a207472616e7366657220616d6f756e74206578636565647320616c6c6f77616e63654e6f76613a3a7472616e736665723a204275726e2076616c756520696e76616c6964536166654d6174683a206d756c7469706c69636174696f6e206f766572666c6f7742455032303a207472616e7366657220616d6f756e7420657863656564732062616c616e636542455032303a207472616e7366657220746f20746865207a65726f206164647265737342455032303a2064656372656173656420616c6c6f77616e63652062656c6f77207a65726f42455032303a206275726e2066726f6d20746865207a65726f206164647265737342455032303a206275726e20616d6f756e7420657863656564732062616c616e636542455032303a20617070726f766520746f20746865207a65726f2061646472657373a26469706673582212202a63bd340a658c3ea2d493d42161c31bb428efd00212e6cacd425123fde671de64736f6c634300060c0033",
  "immutableReferences": {},
  "source": "// SPDX-License-Identifier: MIT\r\n\r\npragma solidity 0.6.12;\r\n\r\nimport \"./libs/ShibaBEP20.sol\";\r\n\r\ncontract NovaToken is ShibaBEP20(\"Shiba NOVA\", \"NOVA\") {\r\n\r\n    address public sNova;\r\n\r\n    /*\r\n     * @dev Throws if called by any account other than the owner or sNova\r\n     */\r\n    modifier onlyOwnerOrSNova() {\r\n        require(isOwner() || isSNova(), \"caller is not the owner or sNova\");\r\n        _;\r\n    }\r\n\r\n    /**\r\n     * @dev Returns true if the caller is the current owner.\r\n     */\r\n    function isOwner() public view returns (bool) {\r\n        return msg.sender == owner();\r\n    }\r\n\r\n    /**\r\n     * @dev Returns true if the caller is sNova contracts.\r\n     */\r\n    function isSNova() internal view returns (bool) {\r\n        return msg.sender == address(sNova);\r\n    }\r\n\r\n    function setupSNova(address _sNova) external onlyOwner{\r\n        sNova = _sNova;\r\n    }\r\n\r\n    /// @notice Creates `_amount` token to `_to`. Must only be called by the owner (MasterShiba).\r\n    function mint(address _to, uint256 _amount) external virtual override onlyOwnerOrSNova  {\r\n        _mint(_to, _amount);\r\n    }\r\n\r\n\r\n    /// @dev overrides transfer function to meet tokenomics of Nova\r\n    function _transfer(address sender, address recipient, uint256 amount) internal virtual override {\r\n        require(amount > 0, \"amount 0\");\r\n        if (recipient == BURN_ADDRESS) {\r\n            super._burn(sender, amount);\r\n        } else {\r\n            // 2% of every transfer burnt\r\n            uint256 burnAmount = amount.mul(2).div(100);\r\n            // 98% of transfer sent to recipient\r\n            uint256 sendAmount = amount.sub(burnAmount);\r\n            require(amount == sendAmount + burnAmount, \"Nova::transfer: Burn value invalid\");\r\n\r\n            super._burn(sender, burnAmount);\r\n            super._transfer(sender, recipient, sendAmount);\r\n            amount = sendAmount;\r\n        }\r\n    }\r\n\r\n}",
  "sourcePath": "D:/DeployShiba/shibanova/contracts/NovaToken.sol",
  "compiler": {
    "name": "solc",
    "version": "0.6.12+commit.27d51765.Emscripten.clang"
  },
  "schemaVersion": "3.4.0",
  "updatedAt": "2021-06-08T18:40:26.161Z",
  "networkType": "ethereum",
  "devdoc": {
    "kind": "dev",
    "methods": {
      "allowance(address,address)": {
        "details": "See {BEP20-allowance}."
      },
      "approve(address,uint256)": {
        "details": "See {BEP20-approve}. Requirements: - `spender` cannot be the zero address."
      },
      "balanceOf(address)": {
        "details": "See {BEP20-balanceOf}."
      },
      "burnSupply()": {
        "details": "See {BEP20-totalSupply}."
      },
      "decimals()": {
        "details": "Returns the token decimals."
      },
      "decreaseAllowance(address,uint256)": {
        "details": "Atomically decreases the allowance granted to `spender` by the caller. This is an alternative to {approve} that can be used as a mitigation for problems described in {BEP20-approve}. Emits an {Approval} event indicating the updated allowance. Requirements: - `spender` cannot be the zero address. - `spender` must have allowance for the caller of at least `subtractedValue`."
      },
      "getOwner()": {
        "details": "Returns the bep token owner."
      },
      "increaseAllowance(address,uint256)": {
        "details": "Atomically increases the allowance granted to `spender` by the caller. This is an alternative to {approve} that can be used as a mitigation for problems described in {BEP20-approve}. Emits an {Approval} event indicating the updated allowance. Requirements: - `spender` cannot be the zero address."
      },
      "isOwner()": {
        "details": "Returns true if the caller is the current owner."
      },
      "name()": {
        "details": "Returns the token name."
      },
      "owner()": {
        "details": "Returns the address of the current owner."
      },
      "renounceOwnership()": {
        "details": "Leaves the contract without owner. It will not be possible to call `onlyOwner` functions anymore. Can only be called by the current owner. NOTE: Renouncing ownership will leave the contract without an owner, thereby removing any functionality that is only available to the owner."
      },
      "symbol()": {
        "details": "Returns the token symbol."
      },
      "totalSupply()": {
        "details": "See {BEP20-totalSupply}."
      },
      "transfer(address,uint256)": {
        "details": "See {BEP20-transfer}. Requirements: - `recipient` cannot be the zero address. - the caller must have a balance of at least `amount`."
      },
      "transferFrom(address,address,uint256)": {
        "details": "See {BEP20-transferFrom}. Emits an {Approval} event indicating the updated allowance. This is not required by the EIP. See the note at the beginning of {BEP20}; Requirements: - `sender` and `recipient` cannot be the zero address. - `sender` must have a balance of at least `amount`. - the caller must have allowance for `sender`'s tokens of at least `amount`."
      },
      "transferOwnership(address)": {
        "details": "Transfers ownership of the contract to a new account (`newOwner`). Can only be called by the current owner."
      }
    },
    "version": 1
  },
  "userdoc": {
    "kind": "user",
    "methods": {
      "mint(address,uint256)": {
        "notice": "Creates `_amount` token to `_to`. Must only be called by the owner (MasterShiba)."
      }
    },
    "version": 1
  }
}